{
	"testStock.sol": {
		"OrderBook": {
			"abi": [
				{
					"inputs": [
						{
							"internalType": "string",
							"name": "stockName",
							"type": "string"
						},
						{
							"internalType": "uint256",
							"name": "amount",
							"type": "uint256"
						}
					],
					"name": "addStock",
					"outputs": [],
					"stateMutability": "nonpayable",
					"type": "function"
				},
				{
					"inputs": [
						{
							"internalType": "address",
							"name": "",
							"type": "address"
						},
						{
							"internalType": "string",
							"name": "",
							"type": "string"
						}
					],
					"name": "balances",
					"outputs": [
						{
							"internalType": "uint256",
							"name": "",
							"type": "uint256"
						}
					],
					"stateMutability": "view",
					"type": "function"
				},
				{
					"inputs": [
						{
							"internalType": "string",
							"name": "",
							"type": "string"
						},
						{
							"internalType": "uint256",
							"name": "",
							"type": "uint256"
						},
						{
							"internalType": "uint256",
							"name": "",
							"type": "uint256"
						}
					],
					"name": "buyOrders",
					"outputs": [
						{
							"internalType": "address",
							"name": "trader",
							"type": "address"
						},
						{
							"internalType": "uint256",
							"name": "quantity",
							"type": "uint256"
						},
						{
							"internalType": "uint256",
							"name": "timeStamp",
							"type": "uint256"
						}
					],
					"stateMutability": "view",
					"type": "function"
				},
				{
					"inputs": [
						{
							"internalType": "string",
							"name": "",
							"type": "string"
						}
					],
					"name": "highestBuyPrice",
					"outputs": [
						{
							"internalType": "uint256",
							"name": "",
							"type": "uint256"
						}
					],
					"stateMutability": "view",
					"type": "function"
				},
				{
					"inputs": [
						{
							"internalType": "string",
							"name": "",
							"type": "string"
						}
					],
					"name": "lowestSellPrice",
					"outputs": [
						{
							"internalType": "uint256",
							"name": "",
							"type": "uint256"
						}
					],
					"stateMutability": "view",
					"type": "function"
				},
				{
					"inputs": [
						{
							"internalType": "string",
							"name": "stockName",
							"type": "string"
						},
						{
							"internalType": "uint256",
							"name": "price",
							"type": "uint256"
						},
						{
							"internalType": "uint256",
							"name": "quantity",
							"type": "uint256"
						}
					],
					"name": "placeBuyOrder",
					"outputs": [],
					"stateMutability": "nonpayable",
					"type": "function"
				},
				{
					"inputs": [
						{
							"internalType": "string",
							"name": "stockName",
							"type": "string"
						},
						{
							"internalType": "uint256",
							"name": "price",
							"type": "uint256"
						},
						{
							"internalType": "uint256",
							"name": "quantity",
							"type": "uint256"
						}
					],
					"name": "placeSellOrder",
					"outputs": [],
					"stateMutability": "nonpayable",
					"type": "function"
				},
				{
					"inputs": [
						{
							"internalType": "string",
							"name": "",
							"type": "string"
						},
						{
							"internalType": "uint256",
							"name": "",
							"type": "uint256"
						},
						{
							"internalType": "uint256",
							"name": "",
							"type": "uint256"
						}
					],
					"name": "sellOrders",
					"outputs": [
						{
							"internalType": "address",
							"name": "trader",
							"type": "address"
						},
						{
							"internalType": "uint256",
							"name": "quantity",
							"type": "uint256"
						},
						{
							"internalType": "uint256",
							"name": "timeStamp",
							"type": "uint256"
						}
					],
					"stateMutability": "view",
					"type": "function"
				}
			],
			"devdoc": {
				"kind": "dev",
				"methods": {},
				"version": 1
			},
			"evm": {
				"assembly": "    /* \"testStock.sol\":60:3535  contract OrderBook {... */\n  mstore(0x40, 0x80)\n  callvalue\n  dup1\n  iszero\n  tag_1\n  jumpi\n  0x00\n  dup1\n  revert\ntag_1:\n  pop\n  dataSize(sub_0)\n  dup1\n  dataOffset(sub_0)\n  0x00\n  codecopy\n  0x00\n  return\nstop\n\nsub_0: assembly {\n        /* \"testStock.sol\":60:3535  contract OrderBook {... */\n      mstore(0x40, 0x80)\n      callvalue\n      dup1\n      iszero\n      tag_1\n      jumpi\n      0x00\n      dup1\n      revert\n    tag_1:\n      pop\n      jumpi(tag_2, lt(calldatasize, 0x04))\n      shr(0xe0, calldataload(0x00))\n      dup1\n      0x8a219535\n      gt\n      tag_11\n      jumpi\n      dup1\n      0x8a219535\n      eq\n      tag_7\n      jumpi\n      dup1\n      0xb446b43e\n      eq\n      tag_8\n      jumpi\n      dup1\n      0xe6d0054c\n      eq\n      tag_9\n      jumpi\n      dup1\n      0xf7c03b80\n      eq\n      tag_10\n      jumpi\n      jump(tag_2)\n    tag_11:\n      dup1\n      0x05d01f50\n      eq\n      tag_3\n      jumpi\n      dup1\n      0x225c3957\n      eq\n      tag_4\n      jumpi\n      dup1\n      0x2c2e7e5c\n      eq\n      tag_5\n      jumpi\n      dup1\n      0x5ac8a1e5\n      eq\n      tag_6\n      jumpi\n    tag_2:\n      0x00\n      dup1\n      revert\n        /* \"testStock.sol\":195:257  mapping(address => mapping(string => uint256)) public balances */\n    tag_3:\n      tag_12\n      0x04\n      dup1\n      calldatasize\n      sub\n      dup2\n      add\n      swap1\n      tag_13\n      swap2\n      swap1\n      tag_14\n      jump\t// in\n    tag_13:\n      tag_15\n      jump\t// in\n    tag_12:\n      mload(0x40)\n      tag_16\n      swap2\n      swap1\n      tag_17\n      jump\t// in\n    tag_16:\n      mload(0x40)\n      dup1\n      swap2\n      sub\n      swap1\n      return\n        /* \"testStock.sol\":1763:2999  function placeSellOrder(string memory stockName, uint256 price, uint256 quantity) external {... */\n    tag_4:\n      tag_18\n      0x04\n      dup1\n      calldatasize\n      sub\n      dup2\n      add\n      swap1\n      tag_19\n      swap2\n      swap1\n      tag_20\n      jump\t// in\n    tag_19:\n      tag_21\n      jump\t// in\n    tag_18:\n      stop\n        /* \"testStock.sol\":461:510  mapping(string => uint256) public lowestSellPrice */\n    tag_5:\n      tag_22\n      0x04\n      dup1\n      calldatasize\n      sub\n      dup2\n      add\n      swap1\n      tag_23\n      swap2\n      swap1\n      tag_24\n      jump\t// in\n    tag_23:\n      tag_25\n      jump\t// in\n    tag_22:\n      mload(0x40)\n      tag_26\n      swap2\n      swap1\n      tag_17\n      jump\t// in\n    tag_26:\n      mload(0x40)\n      dup1\n      swap2\n      sub\n      swap1\n      return\n        /* \"testStock.sol\":405:454  mapping(string => uint256) public highestBuyPrice */\n    tag_6:\n      tag_27\n      0x04\n      dup1\n      calldatasize\n      sub\n      dup2\n      add\n      swap1\n      tag_28\n      swap2\n      swap1\n      tag_24\n      jump\t// in\n    tag_28:\n      tag_29\n      jump\t// in\n    tag_27:\n      mload(0x40)\n      tag_30\n      swap2\n      swap1\n      tag_17\n      jump\t// in\n    tag_30:\n      mload(0x40)\n      dup1\n      swap2\n      sub\n      swap1\n      return\n        /* \"testStock.sol\":266:327  mapping(string => mapping(uint256=>Order[])) public buyOrders */\n    tag_7:\n      tag_31\n      0x04\n      dup1\n      calldatasize\n      sub\n      dup2\n      add\n      swap1\n      tag_32\n      swap2\n      swap1\n      tag_20\n      jump\t// in\n    tag_32:\n      tag_33\n      jump\t// in\n    tag_31:\n      mload(0x40)\n      tag_34\n      swap4\n      swap3\n      swap2\n      swap1\n      tag_35\n      jump\t// in\n    tag_34:\n      mload(0x40)\n      dup1\n      swap2\n      sub\n      swap1\n      return\n        /* \"testStock.sol\":334:396  mapping(string => mapping(uint256=>Order[])) public sellOrders */\n    tag_8:\n      tag_36\n      0x04\n      dup1\n      calldatasize\n      sub\n      dup2\n      add\n      swap1\n      tag_37\n      swap2\n      swap1\n      tag_20\n      jump\t// in\n    tag_37:\n      tag_38\n      jump\t// in\n    tag_36:\n      mload(0x40)\n      tag_39\n      swap4\n      swap3\n      swap2\n      swap1\n      tag_35\n      jump\t// in\n    tag_39:\n      mload(0x40)\n      dup1\n      swap2\n      sub\n      swap1\n      return\n        /* \"testStock.sol\":3007:3133  function addStock(string memory stockName, uint256 amount) public {... */\n    tag_9:\n      tag_40\n      0x04\n      dup1\n      calldatasize\n      sub\n      dup2\n      add\n      swap1\n      tag_41\n      swap2\n      swap1\n      tag_42\n      jump\t// in\n    tag_41:\n      tag_43\n      jump\t// in\n    tag_40:\n      stop\n        /* \"testStock.sol\":521:1753  function placeBuyOrder(string memory stockName, uint256 price, uint256 quantity) external {... */\n    tag_10:\n      tag_44\n      0x04\n      dup1\n      calldatasize\n      sub\n      dup2\n      add\n      swap1\n      tag_45\n      swap2\n      swap1\n      tag_20\n      jump\t// in\n    tag_45:\n      tag_46\n      jump\t// in\n    tag_44:\n      stop\n        /* \"testStock.sol\":195:257  mapping(address => mapping(string => uint256)) public balances */\n    tag_15:\n      mstore(0x20, 0x00)\n      dup2\n      0x00\n      mstore\n      keccak256(0x00, 0x40)\n      dup2\n      dup1\n      mload\n      0x20\n      dup2\n      add\n      dup3\n      add\n      dup1\n      mload\n      dup5\n      dup3\n      mstore\n      0x20\n      dup4\n      add\n      0x20\n      dup6\n      add\n      keccak256\n      dup2\n      dup4\n      mstore\n      dup1\n      swap6\n      pop\n      pop\n      pop\n      pop\n      pop\n      pop\n      0x00\n      swap2\n      pop\n      swap2\n      pop\n      pop\n      sload\n      dup2\n      jump\t// out\n        /* \"testStock.sol\":1763:2999  function placeSellOrder(string memory stockName, uint256 price, uint256 quantity) external {... */\n    tag_21:\n        /* \"testStock.sol\":1905:1906  0 */\n      0x00\n        /* \"testStock.sol\":1868:1877  buyOrders */\n      0x01\n        /* \"testStock.sol\":1878:1887  stockName */\n      dup5\n        /* \"testStock.sol\":1868:1888  buyOrders[stockName] */\n      mload(0x40)\n      tag_48\n      swap2\n      swap1\n      tag_49\n      jump\t// in\n    tag_48:\n      swap1\n      dup2\n      mstore\n      0x20\n      add\n      mload(0x40)\n      dup1\n      swap2\n      sub\n      swap1\n      keccak256\n        /* \"testStock.sol\":1868:1895  buyOrders[stockName][price] */\n      0x00\n        /* \"testStock.sol\":1889:1894  price */\n      dup5\n        /* \"testStock.sol\":1868:1895  buyOrders[stockName][price] */\n      dup2\n      mstore\n      0x20\n      add\n      swap1\n      dup2\n      mstore\n      0x20\n      add\n      0x00\n      keccak256\n        /* \"testStock.sol\":1868:1902  buyOrders[stockName][price].length */\n      dup1\n      sload\n      swap1\n      pop\n        /* \"testStock.sol\":1868:1906  buyOrders[stockName][price].length > 0 */\n      gt\n        /* \"testStock.sol\":1865:2982  if(buyOrders[stockName][price].length > 0) {... */\n      iszero\n      tag_50\n      jumpi\n        /* \"testStock.sol\":1923:1948  uint256 remainingQuantity */\n      0x00\n        /* \"testStock.sol\":1951:1959  quantity */\n      dup2\n        /* \"testStock.sol\":1923:1959  uint256 remainingQuantity = quantity */\n      swap1\n      pop\n        /* \"testStock.sol\":1978:1984  uint i */\n      0x00\n        /* \"testStock.sol\":1974:2539  for(uint i = 0; i < buyOrders[stockName][price].length && remainingQuantity > 0; i++) {... */\n    tag_51:\n        /* \"testStock.sol\":1994:2003  buyOrders */\n      0x01\n        /* \"testStock.sol\":2004:2013  stockName */\n      dup6\n        /* \"testStock.sol\":1994:2014  buyOrders[stockName] */\n      mload(0x40)\n      tag_54\n      swap2\n      swap1\n      tag_49\n      jump\t// in\n    tag_54:\n      swap1\n      dup2\n      mstore\n      0x20\n      add\n      mload(0x40)\n      dup1\n      swap2\n      sub\n      swap1\n      keccak256\n        /* \"testStock.sol\":1994:2021  buyOrders[stockName][price] */\n      0x00\n        /* \"testStock.sol\":2015:2020  price */\n      dup6\n        /* \"testStock.sol\":1994:2021  buyOrders[stockName][price] */\n      dup2\n      mstore\n      0x20\n      add\n      swap1\n      dup2\n      mstore\n      0x20\n      add\n      0x00\n      keccak256\n        /* \"testStock.sol\":1994:2028  buyOrders[stockName][price].length */\n      dup1\n      sload\n      swap1\n      pop\n        /* \"testStock.sol\":1990:1991  i */\n      dup2\n        /* \"testStock.sol\":1990:2028  i < buyOrders[stockName][price].length */\n      lt\n        /* \"testStock.sol\":1990:2053  i < buyOrders[stockName][price].length && remainingQuantity > 0 */\n      dup1\n      iszero\n      tag_55\n      jumpi\n      pop\n        /* \"testStock.sol\":2052:2053  0 */\n      0x00\n        /* \"testStock.sol\":2032:2049  remainingQuantity */\n      dup3\n        /* \"testStock.sol\":2032:2053  remainingQuantity > 0 */\n      gt\n        /* \"testStock.sol\":1990:2053  i < buyOrders[stockName][price].length && remainingQuantity > 0 */\n    tag_55:\n        /* \"testStock.sol\":1974:2539  for(uint i = 0; i < buyOrders[stockName][price].length && remainingQuantity > 0; i++) {... */\n      iszero\n      tag_52\n      jumpi\n        /* \"testStock.sol\":2079:2101  uint256 quantityToSell */\n      0x00\n        /* \"testStock.sol\":2147:2164  remainingQuantity */\n      dup3\n        /* \"testStock.sol\":2104:2113  buyOrders */\n      0x01\n        /* \"testStock.sol\":2114:2123  stockName */\n      dup8\n        /* \"testStock.sol\":2104:2124  buyOrders[stockName] */\n      mload(0x40)\n      tag_56\n      swap2\n      swap1\n      tag_49\n      jump\t// in\n    tag_56:\n      swap1\n      dup2\n      mstore\n      0x20\n      add\n      mload(0x40)\n      dup1\n      swap2\n      sub\n      swap1\n      keccak256\n        /* \"testStock.sol\":2104:2131  buyOrders[stockName][price] */\n      0x00\n        /* \"testStock.sol\":2125:2130  price */\n      dup8\n        /* \"testStock.sol\":2104:2131  buyOrders[stockName][price] */\n      dup2\n      mstore\n      0x20\n      add\n      swap1\n      dup2\n      mstore\n      0x20\n      add\n      0x00\n      keccak256\n        /* \"testStock.sol\":2132:2133  i */\n      dup4\n        /* \"testStock.sol\":2104:2134  buyOrders[stockName][price][i] */\n      dup2\n      sload\n      dup2\n      lt\n      tag_57\n      jumpi\n      tag_58\n      tag_59\n      jump\t// in\n    tag_58:\n    tag_57:\n      swap1\n      0x00\n      mstore\n      keccak256(0x00, 0x20)\n      swap1\n      0x03\n      mul\n      add\n        /* \"testStock.sol\":2104:2143  buyOrders[stockName][price][i].quantity */\n      0x01\n      add\n      sload\n        /* \"testStock.sol\":2104:2164  buyOrders[stockName][price][i].quantity <= remainingQuantity */\n      gt\n      iszero\n        /* \"testStock.sol\":2104:2226  buyOrders[stockName][price][i].quantity <= remainingQuantity ? buyOrders[stockName][price][i].quantity : remainingQuantity */\n      tag_61\n      jumpi\n        /* \"testStock.sol\":2209:2226  remainingQuantity */\n      dup3\n        /* \"testStock.sol\":2104:2226  buyOrders[stockName][price][i].quantity <= remainingQuantity ? buyOrders[stockName][price][i].quantity : remainingQuantity */\n      jump(tag_62)\n    tag_61:\n        /* \"testStock.sol\":2167:2176  buyOrders */\n      0x01\n        /* \"testStock.sol\":2177:2186  stockName */\n      dup7\n        /* \"testStock.sol\":2167:2187  buyOrders[stockName] */\n      mload(0x40)\n      tag_63\n      swap2\n      swap1\n      tag_49\n      jump\t// in\n    tag_63:\n      swap1\n      dup2\n      mstore\n      0x20\n      add\n      mload(0x40)\n      dup1\n      swap2\n      sub\n      swap1\n      keccak256\n        /* \"testStock.sol\":2167:2194  buyOrders[stockName][price] */\n      0x00\n        /* \"testStock.sol\":2188:2193  price */\n      dup7\n        /* \"testStock.sol\":2167:2194  buyOrders[stockName][price] */\n      dup2\n      mstore\n      0x20\n      add\n      swap1\n      dup2\n      mstore\n      0x20\n      add\n      0x00\n      keccak256\n        /* \"testStock.sol\":2195:2196  i */\n      dup3\n        /* \"testStock.sol\":2167:2197  buyOrders[stockName][price][i] */\n      dup2\n      sload\n      dup2\n      lt\n      tag_64\n      jumpi\n      tag_65\n      tag_59\n      jump\t// in\n    tag_65:\n    tag_64:\n      swap1\n      0x00\n      mstore\n      keccak256(0x00, 0x20)\n      swap1\n      0x03\n      mul\n      add\n        /* \"testStock.sol\":2167:2206  buyOrders[stockName][price][i].quantity */\n      0x01\n      add\n      sload\n        /* \"testStock.sol\":2104:2226  buyOrders[stockName][price][i].quantity <= remainingQuantity ? buyOrders[stockName][price][i].quantity : remainingQuantity */\n    tag_62:\n        /* \"testStock.sol\":2079:2226  uint256 quantityToSell = buyOrders[stockName][price][i].quantity <= remainingQuantity ? buyOrders[stockName][price][i].quantity : remainingQuantity */\n      swap1\n      pop\n        /* \"testStock.sol\":2268:2282  quantityToSell */\n      dup1\n        /* \"testStock.sol\":2247:2282  remainingQuantity -= quantityToSell */\n      dup4\n      tag_67\n      swap2\n      swap1\n      tag_68\n      jump\t// in\n    tag_67:\n      swap3\n      pop\n        /* \"testStock.sol\":2344:2358  quantityToSell */\n      dup1\n        /* \"testStock.sol\":2301:2310  buyOrders */\n      0x01\n        /* \"testStock.sol\":2311:2320  stockName */\n      dup8\n        /* \"testStock.sol\":2301:2321  buyOrders[stockName] */\n      mload(0x40)\n      tag_69\n      swap2\n      swap1\n      tag_49\n      jump\t// in\n    tag_69:\n      swap1\n      dup2\n      mstore\n      0x20\n      add\n      mload(0x40)\n      dup1\n      swap2\n      sub\n      swap1\n      keccak256\n        /* \"testStock.sol\":2301:2328  buyOrders[stockName][price] */\n      0x00\n        /* \"testStock.sol\":2322:2327  price */\n      dup8\n        /* \"testStock.sol\":2301:2328  buyOrders[stockName][price] */\n      dup2\n      mstore\n      0x20\n      add\n      swap1\n      dup2\n      mstore\n      0x20\n      add\n      0x00\n      keccak256\n        /* \"testStock.sol\":2329:2330  i */\n      dup4\n        /* \"testStock.sol\":2301:2331  buyOrders[stockName][price][i] */\n      dup2\n      sload\n      dup2\n      lt\n      tag_70\n      jumpi\n      tag_71\n      tag_59\n      jump\t// in\n    tag_71:\n    tag_70:\n      swap1\n      0x00\n      mstore\n      keccak256(0x00, 0x20)\n      swap1\n      0x03\n      mul\n      add\n        /* \"testStock.sol\":2301:2340  buyOrders[stockName][price][i].quantity */\n      0x01\n      add\n      0x00\n        /* \"testStock.sol\":2301:2358  buyOrders[stockName][price][i].quantity -= quantityToSell */\n      dup3\n      dup3\n      sload\n      tag_73\n      swap2\n      swap1\n      tag_68\n      jump\t// in\n    tag_73:\n      swap3\n      pop\n      pop\n      dup2\n      swap1\n      sstore\n      pop\n        /* \"testStock.sol\":2414:2428  quantityToSell */\n      dup1\n        /* \"testStock.sol\":2379:2387  balances */\n      0x00\n        /* \"testStock.sol\":2379:2399  balances[msg.sender] */\n      dup1\n        /* \"testStock.sol\":2388:2398  msg.sender */\n      caller\n        /* \"testStock.sol\":2379:2399  balances[msg.sender] */\n      0xffffffffffffffffffffffffffffffffffffffff\n      and\n      0xffffffffffffffffffffffffffffffffffffffff\n      and\n      dup2\n      mstore\n      0x20\n      add\n      swap1\n      dup2\n      mstore\n      0x20\n      add\n      0x00\n      keccak256\n        /* \"testStock.sol\":2400:2409  stockName */\n      dup8\n        /* \"testStock.sol\":2379:2410  balances[msg.sender][stockName] */\n      mload(0x40)\n      tag_74\n      swap2\n      swap1\n      tag_49\n      jump\t// in\n    tag_74:\n      swap1\n      dup2\n      mstore\n      0x20\n      add\n      mload(0x40)\n      dup1\n      swap2\n      sub\n      swap1\n      keccak256\n      0x00\n        /* \"testStock.sol\":2379:2428  balances[msg.sender][stockName] -= quantityToSell */\n      dup3\n      dup3\n      sload\n      tag_75\n      swap2\n      swap1\n      tag_68\n      jump\t// in\n    tag_75:\n      swap3\n      pop\n      pop\n      dup2\n      swap1\n      sstore\n      pop\n        /* \"testStock.sol\":2509:2523  quantityToSell */\n      dup1\n        /* \"testStock.sol\":2447:2455  balances */\n      0x00\n        /* \"testStock.sol\":2447:2494  balances[buyOrders[stockName][price][i].trader] */\n      dup1\n        /* \"testStock.sol\":2456:2465  buyOrders */\n      0x01\n        /* \"testStock.sol\":2466:2475  stockName */\n      dup10\n        /* \"testStock.sol\":2456:2476  buyOrders[stockName] */\n      mload(0x40)\n      tag_76\n      swap2\n      swap1\n      tag_49\n      jump\t// in\n    tag_76:\n      swap1\n      dup2\n      mstore\n      0x20\n      add\n      mload(0x40)\n      dup1\n      swap2\n      sub\n      swap1\n      keccak256\n        /* \"testStock.sol\":2456:2483  buyOrders[stockName][price] */\n      0x00\n        /* \"testStock.sol\":2477:2482  price */\n      dup10\n        /* \"testStock.sol\":2456:2483  buyOrders[stockName][price] */\n      dup2\n      mstore\n      0x20\n      add\n      swap1\n      dup2\n      mstore\n      0x20\n      add\n      0x00\n      keccak256\n        /* \"testStock.sol\":2484:2485  i */\n      dup6\n        /* \"testStock.sol\":2456:2486  buyOrders[stockName][price][i] */\n      dup2\n      sload\n      dup2\n      lt\n      tag_77\n      jumpi\n      tag_78\n      tag_59\n      jump\t// in\n    tag_78:\n    tag_77:\n      swap1\n      0x00\n      mstore\n      keccak256(0x00, 0x20)\n      swap1\n      0x03\n      mul\n      add\n        /* \"testStock.sol\":2456:2493  buyOrders[stockName][price][i].trader */\n      0x00\n      add\n      0x00\n      swap1\n      sload\n      swap1\n      0x0100\n      exp\n      swap1\n      div\n      0xffffffffffffffffffffffffffffffffffffffff\n      and\n        /* \"testStock.sol\":2447:2494  balances[buyOrders[stockName][price][i].trader] */\n      0xffffffffffffffffffffffffffffffffffffffff\n      and\n      0xffffffffffffffffffffffffffffffffffffffff\n      and\n      dup2\n      mstore\n      0x20\n      add\n      swap1\n      dup2\n      mstore\n      0x20\n      add\n      0x00\n      keccak256\n        /* \"testStock.sol\":2495:2504  stockName */\n      dup8\n        /* \"testStock.sol\":2447:2505  balances[buyOrders[stockName][price][i].trader][stockName] */\n      mload(0x40)\n      tag_80\n      swap2\n      swap1\n      tag_49\n      jump\t// in\n    tag_80:\n      swap1\n      dup2\n      mstore\n      0x20\n      add\n      mload(0x40)\n      dup1\n      swap2\n      sub\n      swap1\n      keccak256\n      0x00\n        /* \"testStock.sol\":2447:2523  balances[buyOrders[stockName][price][i].trader][stockName] += quantityToSell */\n      dup3\n      dup3\n      sload\n      tag_81\n      swap2\n      swap1\n      tag_82\n      jump\t// in\n    tag_81:\n      swap3\n      pop\n      pop\n      dup2\n      swap1\n      sstore\n      pop\n        /* \"testStock.sol\":2060:2539  {... */\n      pop\n        /* \"testStock.sol\":2055:2058  i++ */\n      dup1\n      dup1\n      tag_83\n      swap1\n      tag_84\n      jump\t// in\n    tag_83:\n      swap2\n      pop\n      pop\n        /* \"testStock.sol\":1974:2539  for(uint i = 0; i < buyOrders[stockName][price].length && remainingQuantity > 0; i++) {... */\n      jump(tag_51)\n    tag_52:\n      pop\n        /* \"testStock.sol\":2555:2565  sellOrders */\n      0x02\n        /* \"testStock.sol\":2566:2575  stockName */\n      dup5\n        /* \"testStock.sol\":2555:2576  sellOrders[stockName] */\n      mload(0x40)\n      tag_85\n      swap2\n      swap1\n      tag_49\n      jump\t// in\n    tag_85:\n      swap1\n      dup2\n      mstore\n      0x20\n      add\n      mload(0x40)\n      dup1\n      swap2\n      sub\n      swap1\n      keccak256\n        /* \"testStock.sol\":2555:2583  sellOrders[stockName][price] */\n      0x00\n        /* \"testStock.sol\":2577:2582  price */\n      dup5\n        /* \"testStock.sol\":2555:2583  sellOrders[stockName][price] */\n      dup2\n      mstore\n      0x20\n      add\n      swap1\n      dup2\n      mstore\n      0x20\n      add\n      0x00\n      keccak256\n        /* \"testStock.sol\":2589:2642  Order(msg.sender, remainingQuantity, block.timestamp) */\n      mload(0x40)\n      dup1\n      0x60\n      add\n      0x40\n      mstore\n      dup1\n        /* \"testStock.sol\":2595:2605  msg.sender */\n      caller\n        /* \"testStock.sol\":2589:2642  Order(msg.sender, remainingQuantity, block.timestamp) */\n      0xffffffffffffffffffffffffffffffffffffffff\n      and\n      dup2\n      mstore\n      0x20\n      add\n        /* \"testStock.sol\":2607:2624  remainingQuantity */\n      dup4\n        /* \"testStock.sol\":2589:2642  Order(msg.sender, remainingQuantity, block.timestamp) */\n      dup2\n      mstore\n      0x20\n      add\n        /* \"testStock.sol\":2626:2641  block.timestamp */\n      timestamp\n        /* \"testStock.sol\":2589:2642  Order(msg.sender, remainingQuantity, block.timestamp) */\n      dup2\n      mstore\n      pop\n        /* \"testStock.sol\":2555:2643  sellOrders[stockName][price].push(Order(msg.sender, remainingQuantity, block.timestamp)) */\n      swap1\n      dup1\n      0x01\n      dup2\n      sload\n      add\n      dup1\n      dup3\n      sstore\n      dup1\n      swap2\n      pop\n      pop\n      0x01\n      swap1\n      sub\n      swap1\n      0x00\n      mstore\n      keccak256(0x00, 0x20)\n      swap1\n      0x03\n      mul\n      add\n      0x00\n      swap1\n      swap2\n      swap1\n      swap2\n      swap1\n      swap2\n      pop\n      0x00\n      dup3\n      add\n      mload\n      dup2\n      0x00\n      add\n      exp(0x0100, 0x00)\n      dup2\n      sload\n      dup2\n      0xffffffffffffffffffffffffffffffffffffffff\n      mul\n      not\n      and\n      swap1\n      dup4\n      0xffffffffffffffffffffffffffffffffffffffff\n      and\n      mul\n      or\n      swap1\n      sstore\n      pop\n      0x20\n      dup3\n      add\n      mload\n      dup2\n      0x01\n      add\n      sstore\n      0x40\n      dup3\n      add\n      mload\n      dup2\n      0x02\n      add\n      sstore\n      pop\n      pop\n        /* \"testStock.sol\":2658:2699  removeOrders(buyOrders[stockName][price]) */\n      tag_87\n        /* \"testStock.sol\":2671:2680  buyOrders */\n      0x01\n        /* \"testStock.sol\":2681:2690  stockName */\n      dup6\n        /* \"testStock.sol\":2671:2691  buyOrders[stockName] */\n      mload(0x40)\n      tag_88\n      swap2\n      swap1\n      tag_49\n      jump\t// in\n    tag_88:\n      swap1\n      dup2\n      mstore\n      0x20\n      add\n      mload(0x40)\n      dup1\n      swap2\n      sub\n      swap1\n      keccak256\n        /* \"testStock.sol\":2671:2698  buyOrders[stockName][price] */\n      0x00\n        /* \"testStock.sol\":2692:2697  price */\n      dup6\n        /* \"testStock.sol\":2671:2698  buyOrders[stockName][price] */\n      dup2\n      mstore\n      0x20\n      add\n      swap1\n      dup2\n      mstore\n      0x20\n      add\n      0x00\n      keccak256\n        /* \"testStock.sol\":2658:2670  removeOrders */\n      tag_89\n        /* \"testStock.sol\":2658:2699  removeOrders(buyOrders[stockName][price]) */\n      jump\t// in\n    tag_87:\n        /* \"testStock.sol\":1908:2713  {... */\n      pop\n        /* \"testStock.sol\":1865:2982  if(buyOrders[stockName][price].length > 0) {... */\n      jump(tag_90)\n    tag_50:\n        /* \"testStock.sol\":2734:2744  sellOrders */\n      0x02\n        /* \"testStock.sol\":2745:2754  stockName */\n      dup4\n        /* \"testStock.sol\":2734:2755  sellOrders[stockName] */\n      mload(0x40)\n      tag_91\n      swap2\n      swap1\n      tag_49\n      jump\t// in\n    tag_91:\n      swap1\n      dup2\n      mstore\n      0x20\n      add\n      mload(0x40)\n      dup1\n      swap2\n      sub\n      swap1\n      keccak256\n        /* \"testStock.sol\":2734:2762  sellOrders[stockName][price] */\n      0x00\n        /* \"testStock.sol\":2756:2761  price */\n      dup4\n        /* \"testStock.sol\":2734:2762  sellOrders[stockName][price] */\n      dup2\n      mstore\n      0x20\n      add\n      swap1\n      dup2\n      mstore\n      0x20\n      add\n      0x00\n      keccak256\n        /* \"testStock.sol\":2768:2812  Order(msg.sender, quantity, block.timestamp) */\n      mload(0x40)\n      dup1\n      0x60\n      add\n      0x40\n      mstore\n      dup1\n        /* \"testStock.sol\":2774:2784  msg.sender */\n      caller\n        /* \"testStock.sol\":2768:2812  Order(msg.sender, quantity, block.timestamp) */\n      0xffffffffffffffffffffffffffffffffffffffff\n      and\n      dup2\n      mstore\n      0x20\n      add\n        /* \"testStock.sol\":2786:2794  quantity */\n      dup4\n        /* \"testStock.sol\":2768:2812  Order(msg.sender, quantity, block.timestamp) */\n      dup2\n      mstore\n      0x20\n      add\n        /* \"testStock.sol\":2796:2811  block.timestamp */\n      timestamp\n        /* \"testStock.sol\":2768:2812  Order(msg.sender, quantity, block.timestamp) */\n      dup2\n      mstore\n      pop\n        /* \"testStock.sol\":2734:2813  sellOrders[stockName][price].push(Order(msg.sender, quantity, block.timestamp)) */\n      swap1\n      dup1\n      0x01\n      dup2\n      sload\n      add\n      dup1\n      dup3\n      sstore\n      dup1\n      swap2\n      pop\n      pop\n      0x01\n      swap1\n      sub\n      swap1\n      0x00\n      mstore\n      keccak256(0x00, 0x20)\n      swap1\n      0x03\n      mul\n      add\n      0x00\n      swap1\n      swap2\n      swap1\n      swap2\n      swap1\n      swap2\n      pop\n      0x00\n      dup3\n      add\n      mload\n      dup2\n      0x00\n      add\n      exp(0x0100, 0x00)\n      dup2\n      sload\n      dup2\n      0xffffffffffffffffffffffffffffffffffffffff\n      mul\n      not\n      and\n      swap1\n      dup4\n      0xffffffffffffffffffffffffffffffffffffffff\n      and\n      mul\n      or\n      swap1\n      sstore\n      pop\n      0x20\n      dup3\n      add\n      mload\n      dup2\n      0x01\n      add\n      sstore\n      0x40\n      dup3\n      add\n      mload\n      dup2\n      0x02\n      add\n      sstore\n      pop\n      pop\n        /* \"testStock.sol\":2861:2862  0 */\n      0x00\n        /* \"testStock.sol\":2831:2846  lowestSellPrice */\n      0x04\n        /* \"testStock.sol\":2847:2856  stockName */\n      dup5\n        /* \"testStock.sol\":2831:2857  lowestSellPrice[stockName] */\n      mload(0x40)\n      tag_93\n      swap2\n      swap1\n      tag_49\n      jump\t// in\n    tag_93:\n      swap1\n      dup2\n      mstore\n      0x20\n      add\n      mload(0x40)\n      dup1\n      swap2\n      sub\n      swap1\n      keccak256\n      sload\n        /* \"testStock.sol\":2831:2862  lowestSellPrice[stockName] == 0 */\n      eq\n        /* \"testStock.sol\":2831:2900  lowestSellPrice[stockName] == 0 || price < lowestSellPrice[stockName] */\n      dup1\n      tag_94\n      jumpi\n      pop\n        /* \"testStock.sol\":2874:2889  lowestSellPrice */\n      0x04\n        /* \"testStock.sol\":2890:2899  stockName */\n      dup4\n        /* \"testStock.sol\":2874:2900  lowestSellPrice[stockName] */\n      mload(0x40)\n      tag_95\n      swap2\n      swap1\n      tag_49\n      jump\t// in\n    tag_95:\n      swap1\n      dup2\n      mstore\n      0x20\n      add\n      mload(0x40)\n      dup1\n      swap2\n      sub\n      swap1\n      keccak256\n      sload\n        /* \"testStock.sol\":2866:2871  price */\n      dup3\n        /* \"testStock.sol\":2866:2900  price < lowestSellPrice[stockName] */\n      lt\n        /* \"testStock.sol\":2831:2900  lowestSellPrice[stockName] == 0 || price < lowestSellPrice[stockName] */\n    tag_94:\n        /* \"testStock.sol\":2828:2971  if(lowestSellPrice[stockName] == 0 || price < lowestSellPrice[stockName]) {... */\n      iszero\n      tag_96\n      jumpi\n        /* \"testStock.sol\":2950:2955  price */\n      dup2\n        /* \"testStock.sol\":2921:2936  lowestSellPrice */\n      0x04\n        /* \"testStock.sol\":2937:2946  stockName */\n      dup5\n        /* \"testStock.sol\":2921:2947  lowestSellPrice[stockName] */\n      mload(0x40)\n      tag_97\n      swap2\n      swap1\n      tag_49\n      jump\t// in\n    tag_97:\n      swap1\n      dup2\n      mstore\n      0x20\n      add\n      mload(0x40)\n      dup1\n      swap2\n      sub\n      swap1\n      keccak256\n        /* \"testStock.sol\":2921:2955  lowestSellPrice[stockName] = price */\n      dup2\n      swap1\n      sstore\n      pop\n        /* \"testStock.sol\":2828:2971  if(lowestSellPrice[stockName] == 0 || price < lowestSellPrice[stockName]) {... */\n    tag_96:\n        /* \"testStock.sol\":1865:2982  if(buyOrders[stockName][price].length > 0) {... */\n    tag_90:\n        /* \"testStock.sol\":1763:2999  function placeSellOrder(string memory stockName, uint256 price, uint256 quantity) external {... */\n      pop\n      pop\n      pop\n      jump\t// out\n        /* \"testStock.sol\":461:510  mapping(string => uint256) public lowestSellPrice */\n    tag_25:\n      0x04\n      dup2\n      dup1\n      mload\n      0x20\n      dup2\n      add\n      dup3\n      add\n      dup1\n      mload\n      dup5\n      dup3\n      mstore\n      0x20\n      dup4\n      add\n      0x20\n      dup6\n      add\n      keccak256\n      dup2\n      dup4\n      mstore\n      dup1\n      swap6\n      pop\n      pop\n      pop\n      pop\n      pop\n      pop\n      0x00\n      swap2\n      pop\n      swap1\n      pop\n      sload\n      dup2\n      jump\t// out\n        /* \"testStock.sol\":405:454  mapping(string => uint256) public highestBuyPrice */\n    tag_29:\n      0x03\n      dup2\n      dup1\n      mload\n      0x20\n      dup2\n      add\n      dup3\n      add\n      dup1\n      mload\n      dup5\n      dup3\n      mstore\n      0x20\n      dup4\n      add\n      0x20\n      dup6\n      add\n      keccak256\n      dup2\n      dup4\n      mstore\n      dup1\n      swap6\n      pop\n      pop\n      pop\n      pop\n      pop\n      pop\n      0x00\n      swap2\n      pop\n      swap1\n      pop\n      sload\n      dup2\n      jump\t// out\n        /* \"testStock.sol\":266:327  mapping(string => mapping(uint256=>Order[])) public buyOrders */\n    tag_33:\n      0x01\n      dup4\n      dup1\n      mload\n      0x20\n      dup2\n      add\n      dup3\n      add\n      dup1\n      mload\n      dup5\n      dup3\n      mstore\n      0x20\n      dup4\n      add\n      0x20\n      dup6\n      add\n      keccak256\n      dup2\n      dup4\n      mstore\n      dup1\n      swap6\n      pop\n      pop\n      pop\n      pop\n      pop\n      pop\n      0x20\n      mstore\n      dup2\n      0x00\n      mstore\n      keccak256(0x00, 0x40)\n      dup2\n      dup2\n      sload\n      dup2\n      lt\n      tag_98\n      jumpi\n      0x00\n      dup1\n      revert\n    tag_98:\n      swap1\n      0x00\n      mstore\n      keccak256(0x00, 0x20)\n      swap1\n      0x03\n      mul\n      add\n      0x00\n      swap3\n      pop\n      swap3\n      pop\n      pop\n      pop\n      dup1\n      0x00\n      add\n      0x00\n      swap1\n      sload\n      swap1\n      0x0100\n      exp\n      swap1\n      div\n      0xffffffffffffffffffffffffffffffffffffffff\n      and\n      swap1\n      dup1\n      0x01\n      add\n      sload\n      swap1\n      dup1\n      0x02\n      add\n      sload\n      swap1\n      pop\n      dup4\n      jump\t// out\n        /* \"testStock.sol\":334:396  mapping(string => mapping(uint256=>Order[])) public sellOrders */\n    tag_38:\n      0x02\n      dup4\n      dup1\n      mload\n      0x20\n      dup2\n      add\n      dup3\n      add\n      dup1\n      mload\n      dup5\n      dup3\n      mstore\n      0x20\n      dup4\n      add\n      0x20\n      dup6\n      add\n      keccak256\n      dup2\n      dup4\n      mstore\n      dup1\n      swap6\n      pop\n      pop\n      pop\n      pop\n      pop\n      pop\n      0x20\n      mstore\n      dup2\n      0x00\n      mstore\n      keccak256(0x00, 0x40)\n      dup2\n      dup2\n      sload\n      dup2\n      lt\n      tag_100\n      jumpi\n      0x00\n      dup1\n      revert\n    tag_100:\n      swap1\n      0x00\n      mstore\n      keccak256(0x00, 0x20)\n      swap1\n      0x03\n      mul\n      add\n      0x00\n      swap3\n      pop\n      swap3\n      pop\n      pop\n      pop\n      dup1\n      0x00\n      add\n      0x00\n      swap1\n      sload\n      swap1\n      0x0100\n      exp\n      swap1\n      div\n      0xffffffffffffffffffffffffffffffffffffffff\n      and\n      swap1\n      dup1\n      0x01\n      add\n      sload\n      swap1\n      dup1\n      0x02\n      add\n      sload\n      swap1\n      pop\n      dup4\n      jump\t// out\n        /* \"testStock.sol\":3007:3133  function addStock(string memory stockName, uint256 amount) public {... */\n    tag_43:\n        /* \"testStock.sol\":3119:3125  amount */\n      dup1\n        /* \"testStock.sol\":3084:3092  balances */\n      0x00\n        /* \"testStock.sol\":3084:3104  balances[msg.sender] */\n      dup1\n        /* \"testStock.sol\":3093:3103  msg.sender */\n      caller\n        /* \"testStock.sol\":3084:3104  balances[msg.sender] */\n      0xffffffffffffffffffffffffffffffffffffffff\n      and\n      0xffffffffffffffffffffffffffffffffffffffff\n      and\n      dup2\n      mstore\n      0x20\n      add\n      swap1\n      dup2\n      mstore\n      0x20\n      add\n      0x00\n      keccak256\n        /* \"testStock.sol\":3105:3114  stockName */\n      dup4\n        /* \"testStock.sol\":3084:3115  balances[msg.sender][stockName] */\n      mload(0x40)\n      tag_103\n      swap2\n      swap1\n      tag_49\n      jump\t// in\n    tag_103:\n      swap1\n      dup2\n      mstore\n      0x20\n      add\n      mload(0x40)\n      dup1\n      swap2\n      sub\n      swap1\n      keccak256\n      0x00\n        /* \"testStock.sol\":3084:3125  balances[msg.sender][stockName] += amount */\n      dup3\n      dup3\n      sload\n      tag_104\n      swap2\n      swap1\n      tag_82\n      jump\t// in\n    tag_104:\n      swap3\n      pop\n      pop\n      dup2\n      swap1\n      sstore\n      pop\n        /* \"testStock.sol\":3007:3133  function addStock(string memory stockName, uint256 amount) public {... */\n      pop\n      pop\n      jump\t// out\n        /* \"testStock.sol\":521:1753  function placeBuyOrder(string memory stockName, uint256 price, uint256 quantity) external {... */\n    tag_46:\n        /* \"testStock.sol\":663:664  0 */\n      0x00\n        /* \"testStock.sol\":625:635  sellOrders */\n      0x02\n        /* \"testStock.sol\":636:645  stockName */\n      dup5\n        /* \"testStock.sol\":625:646  sellOrders[stockName] */\n      mload(0x40)\n      tag_106\n      swap2\n      swap1\n      tag_49\n      jump\t// in\n    tag_106:\n      swap1\n      dup2\n      mstore\n      0x20\n      add\n      mload(0x40)\n      dup1\n      swap2\n      sub\n      swap1\n      keccak256\n        /* \"testStock.sol\":625:653  sellOrders[stockName][price] */\n      0x00\n        /* \"testStock.sol\":647:652  price */\n      dup5\n        /* \"testStock.sol\":625:653  sellOrders[stockName][price] */\n      dup2\n      mstore\n      0x20\n      add\n      swap1\n      dup2\n      mstore\n      0x20\n      add\n      0x00\n      keccak256\n        /* \"testStock.sol\":625:660  sellOrders[stockName][price].length */\n      dup1\n      sload\n      swap1\n      pop\n        /* \"testStock.sol\":625:664  sellOrders[stockName][price].length > 0 */\n      gt\n        /* \"testStock.sol\":622:1736  if(sellOrders[stockName][price].length > 0) {... */\n      iszero\n      tag_107\n      jumpi\n        /* \"testStock.sol\":681:706  uint256 remainingQuantity */\n      0x00\n        /* \"testStock.sol\":709:717  quantity */\n      dup2\n        /* \"testStock.sol\":681:717  uint256 remainingQuantity = quantity */\n      swap1\n      pop\n        /* \"testStock.sol\":736:742  uint i */\n      0x00\n        /* \"testStock.sol\":732:1297  for(uint i = 0; i < sellOrders[stockName][price].length && remainingQuantity > 0; i++) {... */\n    tag_108:\n        /* \"testStock.sol\":752:762  sellOrders */\n      0x02\n        /* \"testStock.sol\":763:772  stockName */\n      dup6\n        /* \"testStock.sol\":752:773  sellOrders[stockName] */\n      mload(0x40)\n      tag_111\n      swap2\n      swap1\n      tag_49\n      jump\t// in\n    tag_111:\n      swap1\n      dup2\n      mstore\n      0x20\n      add\n      mload(0x40)\n      dup1\n      swap2\n      sub\n      swap1\n      keccak256\n        /* \"testStock.sol\":752:780  sellOrders[stockName][price] */\n      0x00\n        /* \"testStock.sol\":774:779  price */\n      dup6\n        /* \"testStock.sol\":752:780  sellOrders[stockName][price] */\n      dup2\n      mstore\n      0x20\n      add\n      swap1\n      dup2\n      mstore\n      0x20\n      add\n      0x00\n      keccak256\n        /* \"testStock.sol\":752:787  sellOrders[stockName][price].length */\n      dup1\n      sload\n      swap1\n      pop\n        /* \"testStock.sol\":748:749  i */\n      dup2\n        /* \"testStock.sol\":748:787  i < sellOrders[stockName][price].length */\n      lt\n        /* \"testStock.sol\":748:812  i < sellOrders[stockName][price].length && remainingQuantity > 0 */\n      dup1\n      iszero\n      tag_112\n      jumpi\n      pop\n        /* \"testStock.sol\":811:812  0 */\n      0x00\n        /* \"testStock.sol\":791:808  remainingQuantity */\n      dup3\n        /* \"testStock.sol\":791:812  remainingQuantity > 0 */\n      gt\n        /* \"testStock.sol\":748:812  i < sellOrders[stockName][price].length && remainingQuantity > 0 */\n    tag_112:\n        /* \"testStock.sol\":732:1297  for(uint i = 0; i < sellOrders[stockName][price].length && remainingQuantity > 0; i++) {... */\n      iszero\n      tag_109\n      jumpi\n        /* \"testStock.sol\":838:859  uint256 quantityToBuy */\n      0x00\n        /* \"testStock.sol\":906:923  remainingQuantity */\n      dup3\n        /* \"testStock.sol\":862:872  sellOrders */\n      0x02\n        /* \"testStock.sol\":873:882  stockName */\n      dup8\n        /* \"testStock.sol\":862:883  sellOrders[stockName] */\n      mload(0x40)\n      tag_113\n      swap2\n      swap1\n      tag_49\n      jump\t// in\n    tag_113:\n      swap1\n      dup2\n      mstore\n      0x20\n      add\n      mload(0x40)\n      dup1\n      swap2\n      sub\n      swap1\n      keccak256\n        /* \"testStock.sol\":862:890  sellOrders[stockName][price] */\n      0x00\n        /* \"testStock.sol\":884:889  price */\n      dup8\n        /* \"testStock.sol\":862:890  sellOrders[stockName][price] */\n      dup2\n      mstore\n      0x20\n      add\n      swap1\n      dup2\n      mstore\n      0x20\n      add\n      0x00\n      keccak256\n        /* \"testStock.sol\":891:892  i */\n      dup4\n        /* \"testStock.sol\":862:893  sellOrders[stockName][price][i] */\n      dup2\n      sload\n      dup2\n      lt\n      tag_114\n      jumpi\n      tag_115\n      tag_59\n      jump\t// in\n    tag_115:\n    tag_114:\n      swap1\n      0x00\n      mstore\n      keccak256(0x00, 0x20)\n      swap1\n      0x03\n      mul\n      add\n        /* \"testStock.sol\":862:902  sellOrders[stockName][price][i].quantity */\n      0x01\n      add\n      sload\n        /* \"testStock.sol\":862:923  sellOrders[stockName][price][i].quantity <= remainingQuantity */\n      gt\n      iszero\n        /* \"testStock.sol\":862:986  sellOrders[stockName][price][i].quantity <= remainingQuantity ? sellOrders[stockName][price][i].quantity : remainingQuantity */\n      tag_117\n      jumpi\n        /* \"testStock.sol\":969:986  remainingQuantity */\n      dup3\n        /* \"testStock.sol\":862:986  sellOrders[stockName][price][i].quantity <= remainingQuantity ? sellOrders[stockName][price][i].quantity : remainingQuantity */\n      jump(tag_118)\n    tag_117:\n        /* \"testStock.sol\":926:936  sellOrders */\n      0x02\n        /* \"testStock.sol\":937:946  stockName */\n      dup7\n        /* \"testStock.sol\":926:947  sellOrders[stockName] */\n      mload(0x40)\n      tag_119\n      swap2\n      swap1\n      tag_49\n      jump\t// in\n    tag_119:\n      swap1\n      dup2\n      mstore\n      0x20\n      add\n      mload(0x40)\n      dup1\n      swap2\n      sub\n      swap1\n      keccak256\n        /* \"testStock.sol\":926:954  sellOrders[stockName][price] */\n      0x00\n        /* \"testStock.sol\":948:953  price */\n      dup7\n        /* \"testStock.sol\":926:954  sellOrders[stockName][price] */\n      dup2\n      mstore\n      0x20\n      add\n      swap1\n      dup2\n      mstore\n      0x20\n      add\n      0x00\n      keccak256\n        /* \"testStock.sol\":955:956  i */\n      dup3\n        /* \"testStock.sol\":926:957  sellOrders[stockName][price][i] */\n      dup2\n      sload\n      dup2\n      lt\n      tag_120\n      jumpi\n      tag_121\n      tag_59\n      jump\t// in\n    tag_121:\n    tag_120:\n      swap1\n      0x00\n      mstore\n      keccak256(0x00, 0x20)\n      swap1\n      0x03\n      mul\n      add\n        /* \"testStock.sol\":926:966  sellOrders[stockName][price][i].quantity */\n      0x01\n      add\n      sload\n        /* \"testStock.sol\":862:986  sellOrders[stockName][price][i].quantity <= remainingQuantity ? sellOrders[stockName][price][i].quantity : remainingQuantity */\n    tag_118:\n        /* \"testStock.sol\":838:986  uint256 quantityToBuy = sellOrders[stockName][price][i].quantity <= remainingQuantity ? sellOrders[stockName][price][i].quantity : remainingQuantity */\n      swap1\n      pop\n        /* \"testStock.sol\":1028:1041  quantityToBuy */\n      dup1\n        /* \"testStock.sol\":1007:1041  remainingQuantity -= quantityToBuy */\n      dup4\n      tag_123\n      swap2\n      swap1\n      tag_68\n      jump\t// in\n    tag_123:\n      swap3\n      pop\n        /* \"testStock.sol\":1104:1117  quantityToBuy */\n      dup1\n        /* \"testStock.sol\":1060:1070  sellOrders */\n      0x02\n        /* \"testStock.sol\":1071:1080  stockName */\n      dup8\n        /* \"testStock.sol\":1060:1081  sellOrders[stockName] */\n      mload(0x40)\n      tag_124\n      swap2\n      swap1\n      tag_49\n      jump\t// in\n    tag_124:\n      swap1\n      dup2\n      mstore\n      0x20\n      add\n      mload(0x40)\n      dup1\n      swap2\n      sub\n      swap1\n      keccak256\n        /* \"testStock.sol\":1060:1088  sellOrders[stockName][price] */\n      0x00\n        /* \"testStock.sol\":1082:1087  price */\n      dup8\n        /* \"testStock.sol\":1060:1088  sellOrders[stockName][price] */\n      dup2\n      mstore\n      0x20\n      add\n      swap1\n      dup2\n      mstore\n      0x20\n      add\n      0x00\n      keccak256\n        /* \"testStock.sol\":1089:1090  i */\n      dup4\n        /* \"testStock.sol\":1060:1091  sellOrders[stockName][price][i] */\n      dup2\n      sload\n      dup2\n      lt\n      tag_125\n      jumpi\n      tag_126\n      tag_59\n      jump\t// in\n    tag_126:\n    tag_125:\n      swap1\n      0x00\n      mstore\n      keccak256(0x00, 0x20)\n      swap1\n      0x03\n      mul\n      add\n        /* \"testStock.sol\":1060:1100  sellOrders[stockName][price][i].quantity */\n      0x01\n      add\n      0x00\n        /* \"testStock.sol\":1060:1117  sellOrders[stockName][price][i].quantity -= quantityToBuy */\n      dup3\n      dup3\n      sload\n      tag_128\n      swap2\n      swap1\n      tag_68\n      jump\t// in\n    tag_128:\n      swap3\n      pop\n      pop\n      dup2\n      swap1\n      sstore\n      pop\n        /* \"testStock.sol\":1173:1186  quantityToBuy */\n      dup1\n        /* \"testStock.sol\":1138:1146  balances */\n      0x00\n        /* \"testStock.sol\":1138:1158  balances[msg.sender] */\n      dup1\n        /* \"testStock.sol\":1147:1157  msg.sender */\n      caller\n        /* \"testStock.sol\":1138:1158  balances[msg.sender] */\n      0xffffffffffffffffffffffffffffffffffffffff\n      and\n      0xffffffffffffffffffffffffffffffffffffffff\n      and\n      dup2\n      mstore\n      0x20\n      add\n      swap1\n      dup2\n      mstore\n      0x20\n      add\n      0x00\n      keccak256\n        /* \"testStock.sol\":1159:1168  stockName */\n      dup8\n        /* \"testStock.sol\":1138:1169  balances[msg.sender][stockName] */\n      mload(0x40)\n      tag_129\n      swap2\n      swap1\n      tag_49\n      jump\t// in\n    tag_129:\n      swap1\n      dup2\n      mstore\n      0x20\n      add\n      mload(0x40)\n      dup1\n      swap2\n      sub\n      swap1\n      keccak256\n      0x00\n        /* \"testStock.sol\":1138:1186  balances[msg.sender][stockName] += quantityToBuy */\n      dup3\n      dup3\n      sload\n      tag_130\n      swap2\n      swap1\n      tag_82\n      jump\t// in\n    tag_130:\n      swap3\n      pop\n      pop\n      dup2\n      swap1\n      sstore\n      pop\n        /* \"testStock.sol\":1268:1281  quantityToBuy */\n      dup1\n        /* \"testStock.sol\":1205:1213  balances */\n      0x00\n        /* \"testStock.sol\":1205:1253  balances[sellOrders[stockName][price][i].trader] */\n      dup1\n        /* \"testStock.sol\":1214:1224  sellOrders */\n      0x02\n        /* \"testStock.sol\":1225:1234  stockName */\n      dup10\n        /* \"testStock.sol\":1214:1235  sellOrders[stockName] */\n      mload(0x40)\n      tag_131\n      swap2\n      swap1\n      tag_49\n      jump\t// in\n    tag_131:\n      swap1\n      dup2\n      mstore\n      0x20\n      add\n      mload(0x40)\n      dup1\n      swap2\n      sub\n      swap1\n      keccak256\n        /* \"testStock.sol\":1214:1242  sellOrders[stockName][price] */\n      0x00\n        /* \"testStock.sol\":1236:1241  price */\n      dup10\n        /* \"testStock.sol\":1214:1242  sellOrders[stockName][price] */\n      dup2\n      mstore\n      0x20\n      add\n      swap1\n      dup2\n      mstore\n      0x20\n      add\n      0x00\n      keccak256\n        /* \"testStock.sol\":1243:1244  i */\n      dup6\n        /* \"testStock.sol\":1214:1245  sellOrders[stockName][price][i] */\n      dup2\n      sload\n      dup2\n      lt\n      tag_132\n      jumpi\n      tag_133\n      tag_59\n      jump\t// in\n    tag_133:\n    tag_132:\n      swap1\n      0x00\n      mstore\n      keccak256(0x00, 0x20)\n      swap1\n      0x03\n      mul\n      add\n        /* \"testStock.sol\":1214:1252  sellOrders[stockName][price][i].trader */\n      0x00\n      add\n      0x00\n      swap1\n      sload\n      swap1\n      0x0100\n      exp\n      swap1\n      div\n      0xffffffffffffffffffffffffffffffffffffffff\n      and\n        /* \"testStock.sol\":1205:1253  balances[sellOrders[stockName][price][i].trader] */\n      0xffffffffffffffffffffffffffffffffffffffff\n      and\n      0xffffffffffffffffffffffffffffffffffffffff\n      and\n      dup2\n      mstore\n      0x20\n      add\n      swap1\n      dup2\n      mstore\n      0x20\n      add\n      0x00\n      keccak256\n        /* \"testStock.sol\":1254:1263  stockName */\n      dup8\n        /* \"testStock.sol\":1205:1264  balances[sellOrders[stockName][price][i].trader][stockName] */\n      mload(0x40)\n      tag_135\n      swap2\n      swap1\n      tag_49\n      jump\t// in\n    tag_135:\n      swap1\n      dup2\n      mstore\n      0x20\n      add\n      mload(0x40)\n      dup1\n      swap2\n      sub\n      swap1\n      keccak256\n      0x00\n        /* \"testStock.sol\":1205:1281  balances[sellOrders[stockName][price][i].trader][stockName] -= quantityToBuy */\n      dup3\n      dup3\n      sload\n      tag_136\n      swap2\n      swap1\n      tag_68\n      jump\t// in\n    tag_136:\n      swap3\n      pop\n      pop\n      dup2\n      swap1\n      sstore\n      pop\n        /* \"testStock.sol\":819:1297  {... */\n      pop\n        /* \"testStock.sol\":814:817  i++ */\n      dup1\n      dup1\n      tag_137\n      swap1\n      tag_84\n      jump\t// in\n    tag_137:\n      swap2\n      pop\n      pop\n        /* \"testStock.sol\":732:1297  for(uint i = 0; i < sellOrders[stockName][price].length && remainingQuantity > 0; i++) {... */\n      jump(tag_108)\n    tag_109:\n      pop\n        /* \"testStock.sol\":1313:1322  buyOrders */\n      0x01\n        /* \"testStock.sol\":1323:1332  stockName */\n      dup5\n        /* \"testStock.sol\":1313:1333  buyOrders[stockName] */\n      mload(0x40)\n      tag_138\n      swap2\n      swap1\n      tag_49\n      jump\t// in\n    tag_138:\n      swap1\n      dup2\n      mstore\n      0x20\n      add\n      mload(0x40)\n      dup1\n      swap2\n      sub\n      swap1\n      keccak256\n        /* \"testStock.sol\":1313:1340  buyOrders[stockName][price] */\n      0x00\n        /* \"testStock.sol\":1334:1339  price */\n      dup5\n        /* \"testStock.sol\":1313:1340  buyOrders[stockName][price] */\n      dup2\n      mstore\n      0x20\n      add\n      swap1\n      dup2\n      mstore\n      0x20\n      add\n      0x00\n      keccak256\n        /* \"testStock.sol\":1346:1399  Order(msg.sender, remainingQuantity, block.timestamp) */\n      mload(0x40)\n      dup1\n      0x60\n      add\n      0x40\n      mstore\n      dup1\n        /* \"testStock.sol\":1352:1362  msg.sender */\n      caller\n        /* \"testStock.sol\":1346:1399  Order(msg.sender, remainingQuantity, block.timestamp) */\n      0xffffffffffffffffffffffffffffffffffffffff\n      and\n      dup2\n      mstore\n      0x20\n      add\n        /* \"testStock.sol\":1364:1381  remainingQuantity */\n      dup4\n        /* \"testStock.sol\":1346:1399  Order(msg.sender, remainingQuantity, block.timestamp) */\n      dup2\n      mstore\n      0x20\n      add\n        /* \"testStock.sol\":1383:1398  block.timestamp */\n      timestamp\n        /* \"testStock.sol\":1346:1399  Order(msg.sender, remainingQuantity, block.timestamp) */\n      dup2\n      mstore\n      pop\n        /* \"testStock.sol\":1313:1400  buyOrders[stockName][price].push(Order(msg.sender, remainingQuantity, block.timestamp)) */\n      swap1\n      dup1\n      0x01\n      dup2\n      sload\n      add\n      dup1\n      dup3\n      sstore\n      dup1\n      swap2\n      pop\n      pop\n      0x01\n      swap1\n      sub\n      swap1\n      0x00\n      mstore\n      keccak256(0x00, 0x20)\n      swap1\n      0x03\n      mul\n      add\n      0x00\n      swap1\n      swap2\n      swap1\n      swap2\n      swap1\n      swap2\n      pop\n      0x00\n      dup3\n      add\n      mload\n      dup2\n      0x00\n      add\n      exp(0x0100, 0x00)\n      dup2\n      sload\n      dup2\n      0xffffffffffffffffffffffffffffffffffffffff\n      mul\n      not\n      and\n      swap1\n      dup4\n      0xffffffffffffffffffffffffffffffffffffffff\n      and\n      mul\n      or\n      swap1\n      sstore\n      pop\n      0x20\n      dup3\n      add\n      mload\n      dup2\n      0x01\n      add\n      sstore\n      0x40\n      dup3\n      add\n      mload\n      dup2\n      0x02\n      add\n      sstore\n      pop\n      pop\n        /* \"testStock.sol\":1415:1457  removeOrders(sellOrders[stockName][price]) */\n      tag_140\n        /* \"testStock.sol\":1428:1438  sellOrders */\n      0x02\n        /* \"testStock.sol\":1439:1448  stockName */\n      dup6\n        /* \"testStock.sol\":1428:1449  sellOrders[stockName] */\n      mload(0x40)\n      tag_141\n      swap2\n      swap1\n      tag_49\n      jump\t// in\n    tag_141:\n      swap1\n      dup2\n      mstore\n      0x20\n      add\n      mload(0x40)\n      dup1\n      swap2\n      sub\n      swap1\n      keccak256\n        /* \"testStock.sol\":1428:1456  sellOrders[stockName][price] */\n      0x00\n        /* \"testStock.sol\":1450:1455  price */\n      dup6\n        /* \"testStock.sol\":1428:1456  sellOrders[stockName][price] */\n      dup2\n      mstore\n      0x20\n      add\n      swap1\n      dup2\n      mstore\n      0x20\n      add\n      0x00\n      keccak256\n        /* \"testStock.sol\":1415:1427  removeOrders */\n      tag_89\n        /* \"testStock.sol\":1415:1457  removeOrders(sellOrders[stockName][price]) */\n      jump\t// in\n    tag_140:\n        /* \"testStock.sol\":666:1469  {... */\n      pop\n        /* \"testStock.sol\":622:1736  if(sellOrders[stockName][price].length > 0) {... */\n      jump(tag_142)\n    tag_107:\n        /* \"testStock.sol\":1490:1499  buyOrders */\n      0x01\n        /* \"testStock.sol\":1500:1509  stockName */\n      dup4\n        /* \"testStock.sol\":1490:1510  buyOrders[stockName] */\n      mload(0x40)\n      tag_143\n      swap2\n      swap1\n      tag_49\n      jump\t// in\n    tag_143:\n      swap1\n      dup2\n      mstore\n      0x20\n      add\n      mload(0x40)\n      dup1\n      swap2\n      sub\n      swap1\n      keccak256\n        /* \"testStock.sol\":1490:1517  buyOrders[stockName][price] */\n      0x00\n        /* \"testStock.sol\":1511:1516  price */\n      dup4\n        /* \"testStock.sol\":1490:1517  buyOrders[stockName][price] */\n      dup2\n      mstore\n      0x20\n      add\n      swap1\n      dup2\n      mstore\n      0x20\n      add\n      0x00\n      keccak256\n        /* \"testStock.sol\":1523:1566  Order(msg.sender,quantity, block.timestamp) */\n      mload(0x40)\n      dup1\n      0x60\n      add\n      0x40\n      mstore\n      dup1\n        /* \"testStock.sol\":1529:1539  msg.sender */\n      caller\n        /* \"testStock.sol\":1523:1566  Order(msg.sender,quantity, block.timestamp) */\n      0xffffffffffffffffffffffffffffffffffffffff\n      and\n      dup2\n      mstore\n      0x20\n      add\n        /* \"testStock.sol\":1540:1548  quantity */\n      dup4\n        /* \"testStock.sol\":1523:1566  Order(msg.sender,quantity, block.timestamp) */\n      dup2\n      mstore\n      0x20\n      add\n        /* \"testStock.sol\":1550:1565  block.timestamp */\n      timestamp\n        /* \"testStock.sol\":1523:1566  Order(msg.sender,quantity, block.timestamp) */\n      dup2\n      mstore\n      pop\n        /* \"testStock.sol\":1490:1567  buyOrders[stockName][price].push(Order(msg.sender,quantity, block.timestamp)) */\n      swap1\n      dup1\n      0x01\n      dup2\n      sload\n      add\n      dup1\n      dup3\n      sstore\n      dup1\n      swap2\n      pop\n      pop\n      0x01\n      swap1\n      sub\n      swap1\n      0x00\n      mstore\n      keccak256(0x00, 0x20)\n      swap1\n      0x03\n      mul\n      add\n      0x00\n      swap1\n      swap2\n      swap1\n      swap2\n      swap1\n      swap2\n      pop\n      0x00\n      dup3\n      add\n      mload\n      dup2\n      0x00\n      add\n      exp(0x0100, 0x00)\n      dup2\n      sload\n      dup2\n      0xffffffffffffffffffffffffffffffffffffffff\n      mul\n      not\n      and\n      swap1\n      dup4\n      0xffffffffffffffffffffffffffffffffffffffff\n      and\n      mul\n      or\n      swap1\n      sstore\n      pop\n      0x20\n      dup3\n      add\n      mload\n      dup2\n      0x01\n      add\n      sstore\n      0x40\n      dup3\n      add\n      mload\n      dup2\n      0x02\n      add\n      sstore\n      pop\n      pop\n        /* \"testStock.sol\":1615:1616  0 */\n      0x00\n        /* \"testStock.sol\":1585:1600  highestBuyPrice */\n      0x03\n        /* \"testStock.sol\":1601:1610  stockName */\n      dup5\n        /* \"testStock.sol\":1585:1611  highestBuyPrice[stockName] */\n      mload(0x40)\n      tag_145\n      swap2\n      swap1\n      tag_49\n      jump\t// in\n    tag_145:\n      swap1\n      dup2\n      mstore\n      0x20\n      add\n      mload(0x40)\n      dup1\n      swap2\n      sub\n      swap1\n      keccak256\n      sload\n        /* \"testStock.sol\":1585:1616  highestBuyPrice[stockName] == 0 */\n      eq\n        /* \"testStock.sol\":1585:1654  highestBuyPrice[stockName] == 0 || highestBuyPrice[stockName] < price */\n      dup1\n      tag_146\n      jumpi\n      pop\n        /* \"testStock.sol\":1649:1654  price */\n      dup2\n        /* \"testStock.sol\":1620:1635  highestBuyPrice */\n      0x03\n        /* \"testStock.sol\":1636:1645  stockName */\n      dup5\n        /* \"testStock.sol\":1620:1646  highestBuyPrice[stockName] */\n      mload(0x40)\n      tag_147\n      swap2\n      swap1\n      tag_49\n      jump\t// in\n    tag_147:\n      swap1\n      dup2\n      mstore\n      0x20\n      add\n      mload(0x40)\n      dup1\n      swap2\n      sub\n      swap1\n      keccak256\n      sload\n        /* \"testStock.sol\":1620:1654  highestBuyPrice[stockName] < price */\n      lt\n        /* \"testStock.sol\":1585:1654  highestBuyPrice[stockName] == 0 || highestBuyPrice[stockName] < price */\n    tag_146:\n        /* \"testStock.sol\":1582:1725  if(highestBuyPrice[stockName] == 0 || highestBuyPrice[stockName] < price) {... */\n      iszero\n      tag_148\n      jumpi\n        /* \"testStock.sol\":1704:1709  price */\n      dup2\n        /* \"testStock.sol\":1675:1690  highestBuyPrice */\n      0x03\n        /* \"testStock.sol\":1691:1700  stockName */\n      dup5\n        /* \"testStock.sol\":1675:1701  highestBuyPrice[stockName] */\n      mload(0x40)\n      tag_149\n      swap2\n      swap1\n      tag_49\n      jump\t// in\n    tag_149:\n      swap1\n      dup2\n      mstore\n      0x20\n      add\n      mload(0x40)\n      dup1\n      swap2\n      sub\n      swap1\n      keccak256\n        /* \"testStock.sol\":1675:1709  highestBuyPrice[stockName] = price */\n      dup2\n      swap1\n      sstore\n      pop\n        /* \"testStock.sol\":1582:1725  if(highestBuyPrice[stockName] == 0 || highestBuyPrice[stockName] < price) {... */\n    tag_148:\n        /* \"testStock.sol\":622:1736  if(sellOrders[stockName][price].length > 0) {... */\n    tag_142:\n        /* \"testStock.sol\":521:1753  function placeBuyOrder(string memory stockName, uint256 price, uint256 quantity) external {... */\n      pop\n      pop\n      pop\n      jump\t// out\n        /* \"testStock.sol\":3141:3532  function removeOrders(Order[] storage orders) internal {... */\n    tag_89:\n        /* \"testStock.sol\":3207:3216  uint256 i */\n      0x00\n        /* \"testStock.sol\":3231:3525  while(i < orders.length) {... */\n    tag_151:\n        /* \"testStock.sol\":3241:3247  orders */\n      dup2\n        /* \"testStock.sol\":3241:3254  orders.length */\n      dup1\n      sload\n      swap1\n      pop\n        /* \"testStock.sol\":3237:3238  i */\n      dup2\n        /* \"testStock.sol\":3237:3254  i < orders.length */\n      lt\n        /* \"testStock.sol\":3231:3525  while(i < orders.length) {... */\n      iszero\n      tag_152\n      jumpi\n        /* \"testStock.sol\":3296:3297  0 */\n      0x00\n        /* \"testStock.sol\":3274:3280  orders */\n      dup3\n        /* \"testStock.sol\":3281:3282  i */\n      dup3\n        /* \"testStock.sol\":3274:3283  orders[i] */\n      dup2\n      sload\n      dup2\n      lt\n      tag_153\n      jumpi\n      tag_154\n      tag_59\n      jump\t// in\n    tag_154:\n    tag_153:\n      swap1\n      0x00\n      mstore\n      keccak256(0x00, 0x20)\n      swap1\n      0x03\n      mul\n      add\n        /* \"testStock.sol\":3274:3292  orders[i].quantity */\n      0x01\n      add\n      sload\n        /* \"testStock.sol\":3274:3297  orders[i].quantity == 0 */\n      sub\n        /* \"testStock.sol\":3271:3514  if(orders[i].quantity == 0) {... */\n      tag_156\n      jumpi\n        /* \"testStock.sol\":3341:3342  1 */\n      0x01\n        /* \"testStock.sol\":3325:3331  orders */\n      dup3\n        /* \"testStock.sol\":3325:3338  orders.length */\n      dup1\n      sload\n      swap1\n      pop\n        /* \"testStock.sol\":3325:3342  orders.length - 1 */\n      tag_157\n      swap2\n      swap1\n      tag_68\n      jump\t// in\n    tag_157:\n        /* \"testStock.sol\":3321:3322  i */\n      dup2\n        /* \"testStock.sol\":3321:3342  i < orders.length - 1 */\n      lt\n        /* \"testStock.sol\":3318:3424  if(i < orders.length - 1) {... */\n      iszero\n      tag_158\n      jumpi\n        /* \"testStock.sol\":3379:3385  orders */\n      dup2\n        /* \"testStock.sol\":3402:3403  1 */\n      0x01\n        /* \"testStock.sol\":3386:3392  orders */\n      dup4\n        /* \"testStock.sol\":3386:3399  orders.length */\n      dup1\n      sload\n      swap1\n      pop\n        /* \"testStock.sol\":3386:3403  orders.length - 1 */\n      tag_159\n      swap2\n      swap1\n      tag_68\n      jump\t// in\n    tag_159:\n        /* \"testStock.sol\":3379:3404  orders[orders.length - 1] */\n      dup2\n      sload\n      dup2\n      lt\n      tag_160\n      jumpi\n      tag_161\n      tag_59\n      jump\t// in\n    tag_161:\n    tag_160:\n      swap1\n      0x00\n      mstore\n      keccak256(0x00, 0x20)\n      swap1\n      0x03\n      mul\n      add\n        /* \"testStock.sol\":3367:3373  orders */\n      dup3\n        /* \"testStock.sol\":3374:3375  i */\n      dup3\n        /* \"testStock.sol\":3367:3376  orders[i] */\n      dup2\n      sload\n      dup2\n      lt\n      tag_163\n      jumpi\n      tag_164\n      tag_59\n      jump\t// in\n    tag_164:\n    tag_163:\n      swap1\n      0x00\n      mstore\n      keccak256(0x00, 0x20)\n      swap1\n      0x03\n      mul\n      add\n        /* \"testStock.sol\":3367:3404  orders[i] = orders[orders.length - 1] */\n      0x00\n      dup3\n      add\n      0x00\n      swap1\n      sload\n      swap1\n      0x0100\n      exp\n      swap1\n      div\n      0xffffffffffffffffffffffffffffffffffffffff\n      and\n      dup2\n      0x00\n      add\n      exp(0x0100, 0x00)\n      dup2\n      sload\n      dup2\n      0xffffffffffffffffffffffffffffffffffffffff\n      mul\n      not\n      and\n      swap1\n      dup4\n      0xffffffffffffffffffffffffffffffffffffffff\n      and\n      mul\n      or\n      swap1\n      sstore\n      pop\n      0x01\n      dup3\n      add\n      sload\n      dup2\n      0x01\n      add\n      sstore\n      0x02\n      dup3\n      add\n      sload\n      dup2\n      0x02\n      add\n      sstore\n      swap1\n      pop\n      pop\n        /* \"testStock.sol\":3318:3424  if(i < orders.length - 1) {... */\n    tag_158:\n        /* \"testStock.sol\":3442:3448  orders */\n      dup2\n        /* \"testStock.sol\":3442:3454  orders.pop() */\n      dup1\n      sload\n      dup1\n      tag_166\n      jumpi\n      tag_167\n      tag_168\n      jump\t// in\n    tag_167:\n    tag_166:\n      0x01\n      swap1\n      sub\n      dup2\n      dup2\n      swap1\n      0x00\n      mstore\n      keccak256(0x00, 0x20)\n      swap1\n      0x03\n      mul\n      add\n      0x00\n      dup1\n      dup3\n      add\n      exp(0x0100, 0x00)\n      dup2\n      sload\n      swap1\n      0xffffffffffffffffffffffffffffffffffffffff\n      mul\n      not\n      and\n      swap1\n      sstore\n      0x01\n      dup3\n      add\n      0x00\n      swap1\n      sstore\n      0x02\n      dup3\n      add\n      0x00\n      swap1\n      sstore\n      pop\n      pop\n      swap1\n      sstore\n        /* \"testStock.sol\":3271:3514  if(orders[i].quantity == 0) {... */\n      jump(tag_170)\n    tag_156:\n        /* \"testStock.sol\":3495:3498  i++ */\n      dup1\n      dup1\n      tag_171\n      swap1\n      tag_84\n      jump\t// in\n    tag_171:\n      swap2\n      pop\n      pop\n        /* \"testStock.sol\":3271:3514  if(orders[i].quantity == 0) {... */\n    tag_170:\n        /* \"testStock.sol\":3231:3525  while(i < orders.length) {... */\n      jump(tag_151)\n    tag_152:\n        /* \"testStock.sol\":3196:3532  {... */\n      pop\n        /* \"testStock.sol\":3141:3532  function removeOrders(Order[] storage orders) internal {... */\n      pop\n      jump\t// out\n        /* \"#utility.yul\":7:82   */\n    tag_172:\n        /* \"#utility.yul\":40:46   */\n      0x00\n        /* \"#utility.yul\":73:75   */\n      0x40\n        /* \"#utility.yul\":67:76   */\n      mload\n        /* \"#utility.yul\":57:76   */\n      swap1\n      pop\n        /* \"#utility.yul\":7:82   */\n      swap1\n      jump\t// out\n        /* \"#utility.yul\":88:205   */\n    tag_173:\n        /* \"#utility.yul\":197:198   */\n      0x00\n        /* \"#utility.yul\":194:195   */\n      dup1\n        /* \"#utility.yul\":187:199   */\n      revert\n        /* \"#utility.yul\":211:328   */\n    tag_174:\n        /* \"#utility.yul\":320:321   */\n      0x00\n        /* \"#utility.yul\":317:318   */\n      dup1\n        /* \"#utility.yul\":310:322   */\n      revert\n        /* \"#utility.yul\":334:460   */\n    tag_175:\n        /* \"#utility.yul\":371:378   */\n      0x00\n        /* \"#utility.yul\":411:453   */\n      0xffffffffffffffffffffffffffffffffffffffff\n        /* \"#utility.yul\":404:409   */\n      dup3\n        /* \"#utility.yul\":400:454   */\n      and\n        /* \"#utility.yul\":389:454   */\n      swap1\n      pop\n        /* \"#utility.yul\":334:460   */\n      swap2\n      swap1\n      pop\n      jump\t// out\n        /* \"#utility.yul\":466:562   */\n    tag_176:\n        /* \"#utility.yul\":503:510   */\n      0x00\n        /* \"#utility.yul\":532:556   */\n      tag_205\n        /* \"#utility.yul\":550:555   */\n      dup3\n        /* \"#utility.yul\":532:556   */\n      tag_175\n      jump\t// in\n    tag_205:\n        /* \"#utility.yul\":521:556   */\n      swap1\n      pop\n        /* \"#utility.yul\":466:562   */\n      swap2\n      swap1\n      pop\n      jump\t// out\n        /* \"#utility.yul\":568:690   */\n    tag_177:\n        /* \"#utility.yul\":641:665   */\n      tag_207\n        /* \"#utility.yul\":659:664   */\n      dup2\n        /* \"#utility.yul\":641:665   */\n      tag_176\n      jump\t// in\n    tag_207:\n        /* \"#utility.yul\":634:639   */\n      dup2\n        /* \"#utility.yul\":631:666   */\n      eq\n        /* \"#utility.yul\":621:684   */\n      tag_208\n      jumpi\n        /* \"#utility.yul\":680:681   */\n      0x00\n        /* \"#utility.yul\":677:678   */\n      dup1\n        /* \"#utility.yul\":670:682   */\n      revert\n        /* \"#utility.yul\":621:684   */\n    tag_208:\n        /* \"#utility.yul\":568:690   */\n      pop\n      jump\t// out\n        /* \"#utility.yul\":696:835   */\n    tag_178:\n        /* \"#utility.yul\":742:747   */\n      0x00\n        /* \"#utility.yul\":780:786   */\n      dup2\n        /* \"#utility.yul\":767:787   */\n      calldataload\n        /* \"#utility.yul\":758:787   */\n      swap1\n      pop\n        /* \"#utility.yul\":796:829   */\n      tag_210\n        /* \"#utility.yul\":823:828   */\n      dup2\n        /* \"#utility.yul\":796:829   */\n      tag_177\n      jump\t// in\n    tag_210:\n        /* \"#utility.yul\":696:835   */\n      swap3\n      swap2\n      pop\n      pop\n      jump\t// out\n        /* \"#utility.yul\":841:958   */\n    tag_179:\n        /* \"#utility.yul\":950:951   */\n      0x00\n        /* \"#utility.yul\":947:948   */\n      dup1\n        /* \"#utility.yul\":940:952   */\n      revert\n        /* \"#utility.yul\":964:1081   */\n    tag_180:\n        /* \"#utility.yul\":1073:1074   */\n      0x00\n        /* \"#utility.yul\":1070:1071   */\n      dup1\n        /* \"#utility.yul\":1063:1075   */\n      revert\n        /* \"#utility.yul\":1087:1189   */\n    tag_181:\n        /* \"#utility.yul\":1128:1134   */\n      0x00\n        /* \"#utility.yul\":1179:1181   */\n      0x1f\n        /* \"#utility.yul\":1175:1182   */\n      not\n        /* \"#utility.yul\":1170:1172   */\n      0x1f\n        /* \"#utility.yul\":1163:1168   */\n      dup4\n        /* \"#utility.yul\":1159:1173   */\n      add\n        /* \"#utility.yul\":1155:1183   */\n      and\n        /* \"#utility.yul\":1145:1183   */\n      swap1\n      pop\n        /* \"#utility.yul\":1087:1189   */\n      swap2\n      swap1\n      pop\n      jump\t// out\n        /* \"#utility.yul\":1195:1375   */\n    tag_182:\n        /* \"#utility.yul\":1243:1320   */\n      0x4e487b7100000000000000000000000000000000000000000000000000000000\n        /* \"#utility.yul\":1240:1241   */\n      0x00\n        /* \"#utility.yul\":1233:1321   */\n      mstore\n        /* \"#utility.yul\":1340:1344   */\n      0x41\n        /* \"#utility.yul\":1337:1338   */\n      0x04\n        /* \"#utility.yul\":1330:1345   */\n      mstore\n        /* \"#utility.yul\":1364:1368   */\n      0x24\n        /* \"#utility.yul\":1361:1362   */\n      0x00\n        /* \"#utility.yul\":1354:1369   */\n      revert\n        /* \"#utility.yul\":1381:1662   */\n    tag_183:\n        /* \"#utility.yul\":1464:1491   */\n      tag_216\n        /* \"#utility.yul\":1486:1490   */\n      dup3\n        /* \"#utility.yul\":1464:1491   */\n      tag_181\n      jump\t// in\n    tag_216:\n        /* \"#utility.yul\":1456:1462   */\n      dup2\n        /* \"#utility.yul\":1452:1492   */\n      add\n        /* \"#utility.yul\":1594:1600   */\n      dup2\n        /* \"#utility.yul\":1582:1592   */\n      dup2\n        /* \"#utility.yul\":1579:1601   */\n      lt\n        /* \"#utility.yul\":1558:1576   */\n      0xffffffffffffffff\n        /* \"#utility.yul\":1546:1556   */\n      dup3\n        /* \"#utility.yul\":1543:1577   */\n      gt\n        /* \"#utility.yul\":1540:1602   */\n      or\n        /* \"#utility.yul\":1537:1625   */\n      iszero\n      tag_217\n      jumpi\n        /* \"#utility.yul\":1605:1623   */\n      tag_218\n      tag_182\n      jump\t// in\n    tag_218:\n        /* \"#utility.yul\":1537:1625   */\n    tag_217:\n        /* \"#utility.yul\":1645:1655   */\n      dup1\n        /* \"#utility.yul\":1641:1643   */\n      0x40\n        /* \"#utility.yul\":1634:1656   */\n      mstore\n        /* \"#utility.yul\":1424:1662   */\n      pop\n        /* \"#utility.yul\":1381:1662   */\n      pop\n      pop\n      jump\t// out\n        /* \"#utility.yul\":1668:1797   */\n    tag_184:\n        /* \"#utility.yul\":1702:1708   */\n      0x00\n        /* \"#utility.yul\":1729:1749   */\n      tag_220\n      tag_172\n      jump\t// in\n    tag_220:\n        /* \"#utility.yul\":1719:1749   */\n      swap1\n      pop\n        /* \"#utility.yul\":1758:1791   */\n      tag_221\n        /* \"#utility.yul\":1786:1790   */\n      dup3\n        /* \"#utility.yul\":1778:1784   */\n      dup3\n        /* \"#utility.yul\":1758:1791   */\n      tag_183\n      jump\t// in\n    tag_221:\n        /* \"#utility.yul\":1668:1797   */\n      swap2\n      swap1\n      pop\n      jump\t// out\n        /* \"#utility.yul\":1803:2111   */\n    tag_185:\n        /* \"#utility.yul\":1865:1869   */\n      0x00\n        /* \"#utility.yul\":1955:1973   */\n      0xffffffffffffffff\n        /* \"#utility.yul\":1947:1953   */\n      dup3\n        /* \"#utility.yul\":1944:1974   */\n      gt\n        /* \"#utility.yul\":1941:1997   */\n      iszero\n      tag_223\n      jumpi\n        /* \"#utility.yul\":1977:1995   */\n      tag_224\n      tag_182\n      jump\t// in\n    tag_224:\n        /* \"#utility.yul\":1941:1997   */\n    tag_223:\n        /* \"#utility.yul\":2015:2044   */\n      tag_225\n        /* \"#utility.yul\":2037:2043   */\n      dup3\n        /* \"#utility.yul\":2015:2044   */\n      tag_181\n      jump\t// in\n    tag_225:\n        /* \"#utility.yul\":2007:2044   */\n      swap1\n      pop\n        /* \"#utility.yul\":2099:2103   */\n      0x20\n        /* \"#utility.yul\":2093:2097   */\n      dup2\n        /* \"#utility.yul\":2089:2104   */\n      add\n        /* \"#utility.yul\":2081:2104   */\n      swap1\n      pop\n        /* \"#utility.yul\":1803:2111   */\n      swap2\n      swap1\n      pop\n      jump\t// out\n        /* \"#utility.yul\":2117:2263   */\n    tag_186:\n        /* \"#utility.yul\":2214:2220   */\n      dup3\n        /* \"#utility.yul\":2209:2212   */\n      dup2\n        /* \"#utility.yul\":2204:2207   */\n      dup4\n        /* \"#utility.yul\":2191:2221   */\n      calldatacopy\n        /* \"#utility.yul\":2255:2256   */\n      0x00\n        /* \"#utility.yul\":2246:2252   */\n      dup4\n        /* \"#utility.yul\":2241:2244   */\n      dup4\n        /* \"#utility.yul\":2237:2253   */\n      add\n        /* \"#utility.yul\":2230:2257   */\n      mstore\n        /* \"#utility.yul\":2117:2263   */\n      pop\n      pop\n      pop\n      jump\t// out\n        /* \"#utility.yul\":2269:2694   */\n    tag_187:\n        /* \"#utility.yul\":2347:2352   */\n      0x00\n        /* \"#utility.yul\":2372:2438   */\n      tag_228\n        /* \"#utility.yul\":2388:2437   */\n      tag_229\n        /* \"#utility.yul\":2430:2436   */\n      dup5\n        /* \"#utility.yul\":2388:2437   */\n      tag_185\n      jump\t// in\n    tag_229:\n        /* \"#utility.yul\":2372:2438   */\n      tag_184\n      jump\t// in\n    tag_228:\n        /* \"#utility.yul\":2363:2438   */\n      swap1\n      pop\n        /* \"#utility.yul\":2461:2467   */\n      dup3\n        /* \"#utility.yul\":2454:2459   */\n      dup2\n        /* \"#utility.yul\":2447:2468   */\n      mstore\n        /* \"#utility.yul\":2499:2503   */\n      0x20\n        /* \"#utility.yul\":2492:2497   */\n      dup2\n        /* \"#utility.yul\":2488:2504   */\n      add\n        /* \"#utility.yul\":2537:2540   */\n      dup5\n        /* \"#utility.yul\":2528:2534   */\n      dup5\n        /* \"#utility.yul\":2523:2526   */\n      dup5\n        /* \"#utility.yul\":2519:2535   */\n      add\n        /* \"#utility.yul\":2516:2541   */\n      gt\n        /* \"#utility.yul\":2513:2625   */\n      iszero\n      tag_230\n      jumpi\n        /* \"#utility.yul\":2544:2623   */\n      tag_231\n      tag_180\n      jump\t// in\n    tag_231:\n        /* \"#utility.yul\":2513:2625   */\n    tag_230:\n        /* \"#utility.yul\":2634:2688   */\n      tag_232\n        /* \"#utility.yul\":2681:2687   */\n      dup5\n        /* \"#utility.yul\":2676:2679   */\n      dup3\n        /* \"#utility.yul\":2671:2674   */\n      dup6\n        /* \"#utility.yul\":2634:2688   */\n      tag_186\n      jump\t// in\n    tag_232:\n        /* \"#utility.yul\":2353:2694   */\n      pop\n        /* \"#utility.yul\":2269:2694   */\n      swap4\n      swap3\n      pop\n      pop\n      pop\n      jump\t// out\n        /* \"#utility.yul\":2714:3054   */\n    tag_188:\n        /* \"#utility.yul\":2770:2775   */\n      0x00\n        /* \"#utility.yul\":2819:2822   */\n      dup3\n        /* \"#utility.yul\":2812:2816   */\n      0x1f\n        /* \"#utility.yul\":2804:2810   */\n      dup4\n        /* \"#utility.yul\":2800:2817   */\n      add\n        /* \"#utility.yul\":2796:2823   */\n      slt\n        /* \"#utility.yul\":2786:2908   */\n      tag_234\n      jumpi\n        /* \"#utility.yul\":2827:2906   */\n      tag_235\n      tag_179\n      jump\t// in\n    tag_235:\n        /* \"#utility.yul\":2786:2908   */\n    tag_234:\n        /* \"#utility.yul\":2944:2950   */\n      dup2\n        /* \"#utility.yul\":2931:2951   */\n      calldataload\n        /* \"#utility.yul\":2969:3048   */\n      tag_236\n        /* \"#utility.yul\":3044:3047   */\n      dup5\n        /* \"#utility.yul\":3036:3042   */\n      dup3\n        /* \"#utility.yul\":3029:3033   */\n      0x20\n        /* \"#utility.yul\":3021:3027   */\n      dup7\n        /* \"#utility.yul\":3017:3034   */\n      add\n        /* \"#utility.yul\":2969:3048   */\n      tag_187\n      jump\t// in\n    tag_236:\n        /* \"#utility.yul\":2960:3048   */\n      swap2\n      pop\n        /* \"#utility.yul\":2776:3054   */\n      pop\n        /* \"#utility.yul\":2714:3054   */\n      swap3\n      swap2\n      pop\n      pop\n      jump\t// out\n        /* \"#utility.yul\":3060:3714   */\n    tag_14:\n        /* \"#utility.yul\":3138:3144   */\n      0x00\n        /* \"#utility.yul\":3146:3152   */\n      dup1\n        /* \"#utility.yul\":3195:3197   */\n      0x40\n        /* \"#utility.yul\":3183:3192   */\n      dup4\n        /* \"#utility.yul\":3174:3181   */\n      dup6\n        /* \"#utility.yul\":3170:3193   */\n      sub\n        /* \"#utility.yul\":3166:3198   */\n      slt\n        /* \"#utility.yul\":3163:3282   */\n      iszero\n      tag_238\n      jumpi\n        /* \"#utility.yul\":3201:3280   */\n      tag_239\n      tag_173\n      jump\t// in\n    tag_239:\n        /* \"#utility.yul\":3163:3282   */\n    tag_238:\n        /* \"#utility.yul\":3321:3322   */\n      0x00\n        /* \"#utility.yul\":3346:3399   */\n      tag_240\n        /* \"#utility.yul\":3391:3398   */\n      dup6\n        /* \"#utility.yul\":3382:3388   */\n      dup3\n        /* \"#utility.yul\":3371:3380   */\n      dup7\n        /* \"#utility.yul\":3367:3389   */\n      add\n        /* \"#utility.yul\":3346:3399   */\n      tag_178\n      jump\t// in\n    tag_240:\n        /* \"#utility.yul\":3336:3399   */\n      swap3\n      pop\n        /* \"#utility.yul\":3292:3409   */\n      pop\n        /* \"#utility.yul\":3476:3478   */\n      0x20\n        /* \"#utility.yul\":3465:3474   */\n      dup4\n        /* \"#utility.yul\":3461:3479   */\n      add\n        /* \"#utility.yul\":3448:3480   */\n      calldataload\n        /* \"#utility.yul\":3507:3525   */\n      0xffffffffffffffff\n        /* \"#utility.yul\":3499:3505   */\n      dup2\n        /* \"#utility.yul\":3496:3526   */\n      gt\n        /* \"#utility.yul\":3493:3610   */\n      iszero\n      tag_241\n      jumpi\n        /* \"#utility.yul\":3529:3608   */\n      tag_242\n      tag_174\n      jump\t// in\n    tag_242:\n        /* \"#utility.yul\":3493:3610   */\n    tag_241:\n        /* \"#utility.yul\":3634:3697   */\n      tag_243\n        /* \"#utility.yul\":3689:3696   */\n      dup6\n        /* \"#utility.yul\":3680:3686   */\n      dup3\n        /* \"#utility.yul\":3669:3678   */\n      dup7\n        /* \"#utility.yul\":3665:3687   */\n      add\n        /* \"#utility.yul\":3634:3697   */\n      tag_188\n      jump\t// in\n    tag_243:\n        /* \"#utility.yul\":3624:3697   */\n      swap2\n      pop\n        /* \"#utility.yul\":3419:3707   */\n      pop\n        /* \"#utility.yul\":3060:3714   */\n      swap3\n      pop\n      swap3\n      swap1\n      pop\n      jump\t// out\n        /* \"#utility.yul\":3720:3797   */\n    tag_189:\n        /* \"#utility.yul\":3757:3764   */\n      0x00\n        /* \"#utility.yul\":3786:3791   */\n      dup2\n        /* \"#utility.yul\":3775:3791   */\n      swap1\n      pop\n        /* \"#utility.yul\":3720:3797   */\n      swap2\n      swap1\n      pop\n      jump\t// out\n        /* \"#utility.yul\":3803:3921   */\n    tag_190:\n        /* \"#utility.yul\":3890:3914   */\n      tag_246\n        /* \"#utility.yul\":3908:3913   */\n      dup2\n        /* \"#utility.yul\":3890:3914   */\n      tag_189\n      jump\t// in\n    tag_246:\n        /* \"#utility.yul\":3885:3888   */\n      dup3\n        /* \"#utility.yul\":3878:3915   */\n      mstore\n        /* \"#utility.yul\":3803:3921   */\n      pop\n      pop\n      jump\t// out\n        /* \"#utility.yul\":3927:4149   */\n    tag_17:\n        /* \"#utility.yul\":4020:4024   */\n      0x00\n        /* \"#utility.yul\":4058:4060   */\n      0x20\n        /* \"#utility.yul\":4047:4056   */\n      dup3\n        /* \"#utility.yul\":4043:4061   */\n      add\n        /* \"#utility.yul\":4035:4061   */\n      swap1\n      pop\n        /* \"#utility.yul\":4071:4142   */\n      tag_248\n        /* \"#utility.yul\":4139:4140   */\n      0x00\n        /* \"#utility.yul\":4128:4137   */\n      dup4\n        /* \"#utility.yul\":4124:4141   */\n      add\n        /* \"#utility.yul\":4115:4121   */\n      dup5\n        /* \"#utility.yul\":4071:4142   */\n      tag_190\n      jump\t// in\n    tag_248:\n        /* \"#utility.yul\":3927:4149   */\n      swap3\n      swap2\n      pop\n      pop\n      jump\t// out\n        /* \"#utility.yul\":4155:4277   */\n    tag_191:\n        /* \"#utility.yul\":4228:4252   */\n      tag_250\n        /* \"#utility.yul\":4246:4251   */\n      dup2\n        /* \"#utility.yul\":4228:4252   */\n      tag_189\n      jump\t// in\n    tag_250:\n        /* \"#utility.yul\":4221:4226   */\n      dup2\n        /* \"#utility.yul\":4218:4253   */\n      eq\n        /* \"#utility.yul\":4208:4271   */\n      tag_251\n      jumpi\n        /* \"#utility.yul\":4267:4268   */\n      0x00\n        /* \"#utility.yul\":4264:4265   */\n      dup1\n        /* \"#utility.yul\":4257:4269   */\n      revert\n        /* \"#utility.yul\":4208:4271   */\n    tag_251:\n        /* \"#utility.yul\":4155:4277   */\n      pop\n      jump\t// out\n        /* \"#utility.yul\":4283:4422   */\n    tag_192:\n        /* \"#utility.yul\":4329:4334   */\n      0x00\n        /* \"#utility.yul\":4367:4373   */\n      dup2\n        /* \"#utility.yul\":4354:4374   */\n      calldataload\n        /* \"#utility.yul\":4345:4374   */\n      swap1\n      pop\n        /* \"#utility.yul\":4383:4416   */\n      tag_253\n        /* \"#utility.yul\":4410:4415   */\n      dup2\n        /* \"#utility.yul\":4383:4416   */\n      tag_191\n      jump\t// in\n    tag_253:\n        /* \"#utility.yul\":4283:4422   */\n      swap3\n      swap2\n      pop\n      pop\n      jump\t// out\n        /* \"#utility.yul\":4428:5227   */\n    tag_20:\n        /* \"#utility.yul\":4515:4521   */\n      0x00\n        /* \"#utility.yul\":4523:4529   */\n      dup1\n        /* \"#utility.yul\":4531:4537   */\n      0x00\n        /* \"#utility.yul\":4580:4582   */\n      0x60\n        /* \"#utility.yul\":4568:4577   */\n      dup5\n        /* \"#utility.yul\":4559:4566   */\n      dup7\n        /* \"#utility.yul\":4555:4578   */\n      sub\n        /* \"#utility.yul\":4551:4583   */\n      slt\n        /* \"#utility.yul\":4548:4667   */\n      iszero\n      tag_255\n      jumpi\n        /* \"#utility.yul\":4586:4665   */\n      tag_256\n      tag_173\n      jump\t// in\n    tag_256:\n        /* \"#utility.yul\":4548:4667   */\n    tag_255:\n        /* \"#utility.yul\":4734:4735   */\n      0x00\n        /* \"#utility.yul\":4723:4732   */\n      dup5\n        /* \"#utility.yul\":4719:4736   */\n      add\n        /* \"#utility.yul\":4706:4737   */\n      calldataload\n        /* \"#utility.yul\":4764:4782   */\n      0xffffffffffffffff\n        /* \"#utility.yul\":4756:4762   */\n      dup2\n        /* \"#utility.yul\":4753:4783   */\n      gt\n        /* \"#utility.yul\":4750:4867   */\n      iszero\n      tag_257\n      jumpi\n        /* \"#utility.yul\":4786:4865   */\n      tag_258\n      tag_174\n      jump\t// in\n    tag_258:\n        /* \"#utility.yul\":4750:4867   */\n    tag_257:\n        /* \"#utility.yul\":4891:4954   */\n      tag_259\n        /* \"#utility.yul\":4946:4953   */\n      dup7\n        /* \"#utility.yul\":4937:4943   */\n      dup3\n        /* \"#utility.yul\":4926:4935   */\n      dup8\n        /* \"#utility.yul\":4922:4944   */\n      add\n        /* \"#utility.yul\":4891:4954   */\n      tag_188\n      jump\t// in\n    tag_259:\n        /* \"#utility.yul\":4881:4954   */\n      swap4\n      pop\n        /* \"#utility.yul\":4677:4964   */\n      pop\n        /* \"#utility.yul\":5003:5005   */\n      0x20\n        /* \"#utility.yul\":5029:5082   */\n      tag_260\n        /* \"#utility.yul\":5074:5081   */\n      dup7\n        /* \"#utility.yul\":5065:5071   */\n      dup3\n        /* \"#utility.yul\":5054:5063   */\n      dup8\n        /* \"#utility.yul\":5050:5072   */\n      add\n        /* \"#utility.yul\":5029:5082   */\n      tag_192\n      jump\t// in\n    tag_260:\n        /* \"#utility.yul\":5019:5082   */\n      swap3\n      pop\n        /* \"#utility.yul\":4974:5092   */\n      pop\n        /* \"#utility.yul\":5131:5133   */\n      0x40\n        /* \"#utility.yul\":5157:5210   */\n      tag_261\n        /* \"#utility.yul\":5202:5209   */\n      dup7\n        /* \"#utility.yul\":5193:5199   */\n      dup3\n        /* \"#utility.yul\":5182:5191   */\n      dup8\n        /* \"#utility.yul\":5178:5200   */\n      add\n        /* \"#utility.yul\":5157:5210   */\n      tag_192\n      jump\t// in\n    tag_261:\n        /* \"#utility.yul\":5147:5210   */\n      swap2\n      pop\n        /* \"#utility.yul\":5102:5220   */\n      pop\n        /* \"#utility.yul\":4428:5227   */\n      swap3\n      pop\n      swap3\n      pop\n      swap3\n      jump\t// out\n        /* \"#utility.yul\":5233:5742   */\n    tag_24:\n        /* \"#utility.yul\":5302:5308   */\n      0x00\n        /* \"#utility.yul\":5351:5353   */\n      0x20\n        /* \"#utility.yul\":5339:5348   */\n      dup3\n        /* \"#utility.yul\":5330:5337   */\n      dup5\n        /* \"#utility.yul\":5326:5349   */\n      sub\n        /* \"#utility.yul\":5322:5354   */\n      slt\n        /* \"#utility.yul\":5319:5438   */\n      iszero\n      tag_263\n      jumpi\n        /* \"#utility.yul\":5357:5436   */\n      tag_264\n      tag_173\n      jump\t// in\n    tag_264:\n        /* \"#utility.yul\":5319:5438   */\n    tag_263:\n        /* \"#utility.yul\":5505:5506   */\n      0x00\n        /* \"#utility.yul\":5494:5503   */\n      dup3\n        /* \"#utility.yul\":5490:5507   */\n      add\n        /* \"#utility.yul\":5477:5508   */\n      calldataload\n        /* \"#utility.yul\":5535:5553   */\n      0xffffffffffffffff\n        /* \"#utility.yul\":5527:5533   */\n      dup2\n        /* \"#utility.yul\":5524:5554   */\n      gt\n        /* \"#utility.yul\":5521:5638   */\n      iszero\n      tag_265\n      jumpi\n        /* \"#utility.yul\":5557:5636   */\n      tag_266\n      tag_174\n      jump\t// in\n    tag_266:\n        /* \"#utility.yul\":5521:5638   */\n    tag_265:\n        /* \"#utility.yul\":5662:5725   */\n      tag_267\n        /* \"#utility.yul\":5717:5724   */\n      dup5\n        /* \"#utility.yul\":5708:5714   */\n      dup3\n        /* \"#utility.yul\":5697:5706   */\n      dup6\n        /* \"#utility.yul\":5693:5715   */\n      add\n        /* \"#utility.yul\":5662:5725   */\n      tag_188\n      jump\t// in\n    tag_267:\n        /* \"#utility.yul\":5652:5725   */\n      swap2\n      pop\n        /* \"#utility.yul\":5448:5735   */\n      pop\n        /* \"#utility.yul\":5233:5742   */\n      swap3\n      swap2\n      pop\n      pop\n      jump\t// out\n        /* \"#utility.yul\":5748:5866   */\n    tag_193:\n        /* \"#utility.yul\":5835:5859   */\n      tag_269\n        /* \"#utility.yul\":5853:5858   */\n      dup2\n        /* \"#utility.yul\":5835:5859   */\n      tag_176\n      jump\t// in\n    tag_269:\n        /* \"#utility.yul\":5830:5833   */\n      dup3\n        /* \"#utility.yul\":5823:5860   */\n      mstore\n        /* \"#utility.yul\":5748:5866   */\n      pop\n      pop\n      jump\t// out\n        /* \"#utility.yul\":5872:6314   */\n    tag_35:\n        /* \"#utility.yul\":6021:6025   */\n      0x00\n        /* \"#utility.yul\":6059:6061   */\n      0x60\n        /* \"#utility.yul\":6048:6057   */\n      dup3\n        /* \"#utility.yul\":6044:6062   */\n      add\n        /* \"#utility.yul\":6036:6062   */\n      swap1\n      pop\n        /* \"#utility.yul\":6072:6143   */\n      tag_271\n        /* \"#utility.yul\":6140:6141   */\n      0x00\n        /* \"#utility.yul\":6129:6138   */\n      dup4\n        /* \"#utility.yul\":6125:6142   */\n      add\n        /* \"#utility.yul\":6116:6122   */\n      dup7\n        /* \"#utility.yul\":6072:6143   */\n      tag_193\n      jump\t// in\n    tag_271:\n        /* \"#utility.yul\":6153:6225   */\n      tag_272\n        /* \"#utility.yul\":6221:6223   */\n      0x20\n        /* \"#utility.yul\":6210:6219   */\n      dup4\n        /* \"#utility.yul\":6206:6224   */\n      add\n        /* \"#utility.yul\":6197:6203   */\n      dup6\n        /* \"#utility.yul\":6153:6225   */\n      tag_190\n      jump\t// in\n    tag_272:\n        /* \"#utility.yul\":6235:6307   */\n      tag_273\n        /* \"#utility.yul\":6303:6305   */\n      0x40\n        /* \"#utility.yul\":6292:6301   */\n      dup4\n        /* \"#utility.yul\":6288:6306   */\n      add\n        /* \"#utility.yul\":6279:6285   */\n      dup5\n        /* \"#utility.yul\":6235:6307   */\n      tag_190\n      jump\t// in\n    tag_273:\n        /* \"#utility.yul\":5872:6314   */\n      swap5\n      swap4\n      pop\n      pop\n      pop\n      pop\n      jump\t// out\n        /* \"#utility.yul\":6320:6974   */\n    tag_42:\n        /* \"#utility.yul\":6398:6404   */\n      0x00\n        /* \"#utility.yul\":6406:6412   */\n      dup1\n        /* \"#utility.yul\":6455:6457   */\n      0x40\n        /* \"#utility.yul\":6443:6452   */\n      dup4\n        /* \"#utility.yul\":6434:6441   */\n      dup6\n        /* \"#utility.yul\":6430:6453   */\n      sub\n        /* \"#utility.yul\":6426:6458   */\n      slt\n        /* \"#utility.yul\":6423:6542   */\n      iszero\n      tag_275\n      jumpi\n        /* \"#utility.yul\":6461:6540   */\n      tag_276\n      tag_173\n      jump\t// in\n    tag_276:\n        /* \"#utility.yul\":6423:6542   */\n    tag_275:\n        /* \"#utility.yul\":6609:6610   */\n      0x00\n        /* \"#utility.yul\":6598:6607   */\n      dup4\n        /* \"#utility.yul\":6594:6611   */\n      add\n        /* \"#utility.yul\":6581:6612   */\n      calldataload\n        /* \"#utility.yul\":6639:6657   */\n      0xffffffffffffffff\n        /* \"#utility.yul\":6631:6637   */\n      dup2\n        /* \"#utility.yul\":6628:6658   */\n      gt\n        /* \"#utility.yul\":6625:6742   */\n      iszero\n      tag_277\n      jumpi\n        /* \"#utility.yul\":6661:6740   */\n      tag_278\n      tag_174\n      jump\t// in\n    tag_278:\n        /* \"#utility.yul\":6625:6742   */\n    tag_277:\n        /* \"#utility.yul\":6766:6829   */\n      tag_279\n        /* \"#utility.yul\":6821:6828   */\n      dup6\n        /* \"#utility.yul\":6812:6818   */\n      dup3\n        /* \"#utility.yul\":6801:6810   */\n      dup7\n        /* \"#utility.yul\":6797:6819   */\n      add\n        /* \"#utility.yul\":6766:6829   */\n      tag_188\n      jump\t// in\n    tag_279:\n        /* \"#utility.yul\":6756:6829   */\n      swap3\n      pop\n        /* \"#utility.yul\":6552:6839   */\n      pop\n        /* \"#utility.yul\":6878:6880   */\n      0x20\n        /* \"#utility.yul\":6904:6957   */\n      tag_280\n        /* \"#utility.yul\":6949:6956   */\n      dup6\n        /* \"#utility.yul\":6940:6946   */\n      dup3\n        /* \"#utility.yul\":6929:6938   */\n      dup7\n        /* \"#utility.yul\":6925:6947   */\n      add\n        /* \"#utility.yul\":6904:6957   */\n      tag_192\n      jump\t// in\n    tag_280:\n        /* \"#utility.yul\":6894:6957   */\n      swap2\n      pop\n        /* \"#utility.yul\":6849:6967   */\n      pop\n        /* \"#utility.yul\":6320:6974   */\n      swap3\n      pop\n      swap3\n      swap1\n      pop\n      jump\t// out\n        /* \"#utility.yul\":6980:7079   */\n    tag_194:\n        /* \"#utility.yul\":7032:7038   */\n      0x00\n        /* \"#utility.yul\":7066:7071   */\n      dup2\n        /* \"#utility.yul\":7060:7072   */\n      mload\n        /* \"#utility.yul\":7050:7072   */\n      swap1\n      pop\n        /* \"#utility.yul\":6980:7079   */\n      swap2\n      swap1\n      pop\n      jump\t// out\n        /* \"#utility.yul\":7085:7233   */\n    tag_195:\n        /* \"#utility.yul\":7187:7198   */\n      0x00\n        /* \"#utility.yul\":7224:7227   */\n      dup2\n        /* \"#utility.yul\":7209:7227   */\n      swap1\n      pop\n        /* \"#utility.yul\":7085:7233   */\n      swap3\n      swap2\n      pop\n      pop\n      jump\t// out\n        /* \"#utility.yul\":7239:7485   */\n    tag_196:\n        /* \"#utility.yul\":7320:7321   */\n      0x00\n        /* \"#utility.yul\":7330:7443   */\n    tag_284:\n        /* \"#utility.yul\":7344:7350   */\n      dup4\n        /* \"#utility.yul\":7341:7342   */\n      dup2\n        /* \"#utility.yul\":7338:7351   */\n      lt\n        /* \"#utility.yul\":7330:7443   */\n      iszero\n      tag_286\n      jumpi\n        /* \"#utility.yul\":7429:7430   */\n      dup1\n        /* \"#utility.yul\":7424:7427   */\n      dup3\n        /* \"#utility.yul\":7420:7431   */\n      add\n        /* \"#utility.yul\":7414:7432   */\n      mload\n        /* \"#utility.yul\":7410:7411   */\n      dup2\n        /* \"#utility.yul\":7405:7408   */\n      dup5\n        /* \"#utility.yul\":7401:7412   */\n      add\n        /* \"#utility.yul\":7394:7433   */\n      mstore\n        /* \"#utility.yul\":7366:7368   */\n      0x20\n        /* \"#utility.yul\":7363:7364   */\n      dup2\n        /* \"#utility.yul\":7359:7369   */\n      add\n        /* \"#utility.yul\":7354:7369   */\n      swap1\n      pop\n        /* \"#utility.yul\":7330:7443   */\n      jump(tag_284)\n    tag_286:\n        /* \"#utility.yul\":7477:7478   */\n      0x00\n        /* \"#utility.yul\":7468:7474   */\n      dup5\n        /* \"#utility.yul\":7463:7466   */\n      dup5\n        /* \"#utility.yul\":7459:7475   */\n      add\n        /* \"#utility.yul\":7452:7479   */\n      mstore\n        /* \"#utility.yul\":7301:7485   */\n      pop\n        /* \"#utility.yul\":7239:7485   */\n      pop\n      pop\n      pop\n      jump\t// out\n        /* \"#utility.yul\":7491:7881   */\n    tag_197:\n        /* \"#utility.yul\":7597:7600   */\n      0x00\n        /* \"#utility.yul\":7625:7664   */\n      tag_288\n        /* \"#utility.yul\":7658:7663   */\n      dup3\n        /* \"#utility.yul\":7625:7664   */\n      tag_194\n      jump\t// in\n    tag_288:\n        /* \"#utility.yul\":7680:7769   */\n      tag_289\n        /* \"#utility.yul\":7762:7768   */\n      dup2\n        /* \"#utility.yul\":7757:7760   */\n      dup6\n        /* \"#utility.yul\":7680:7769   */\n      tag_195\n      jump\t// in\n    tag_289:\n        /* \"#utility.yul\":7673:7769   */\n      swap4\n      pop\n        /* \"#utility.yul\":7778:7843   */\n      tag_290\n        /* \"#utility.yul\":7836:7842   */\n      dup2\n        /* \"#utility.yul\":7831:7834   */\n      dup6\n        /* \"#utility.yul\":7824:7828   */\n      0x20\n        /* \"#utility.yul\":7817:7822   */\n      dup7\n        /* \"#utility.yul\":7813:7829   */\n      add\n        /* \"#utility.yul\":7778:7843   */\n      tag_196\n      jump\t// in\n    tag_290:\n        /* \"#utility.yul\":7868:7874   */\n      dup1\n        /* \"#utility.yul\":7863:7866   */\n      dup5\n        /* \"#utility.yul\":7859:7875   */\n      add\n        /* \"#utility.yul\":7852:7875   */\n      swap2\n      pop\n        /* \"#utility.yul\":7601:7881   */\n      pop\n        /* \"#utility.yul\":7491:7881   */\n      swap3\n      swap2\n      pop\n      pop\n      jump\t// out\n        /* \"#utility.yul\":7887:8162   */\n    tag_49:\n        /* \"#utility.yul\":8019:8022   */\n      0x00\n        /* \"#utility.yul\":8041:8136   */\n      tag_292\n        /* \"#utility.yul\":8132:8135   */\n      dup3\n        /* \"#utility.yul\":8123:8129   */\n      dup5\n        /* \"#utility.yul\":8041:8136   */\n      tag_197\n      jump\t// in\n    tag_292:\n        /* \"#utility.yul\":8034:8136   */\n      swap2\n      pop\n        /* \"#utility.yul\":8153:8156   */\n      dup2\n        /* \"#utility.yul\":8146:8156   */\n      swap1\n      pop\n        /* \"#utility.yul\":7887:8162   */\n      swap3\n      swap2\n      pop\n      pop\n      jump\t// out\n        /* \"#utility.yul\":8168:8348   */\n    tag_59:\n        /* \"#utility.yul\":8216:8293   */\n      0x4e487b7100000000000000000000000000000000000000000000000000000000\n        /* \"#utility.yul\":8213:8214   */\n      0x00\n        /* \"#utility.yul\":8206:8294   */\n      mstore\n        /* \"#utility.yul\":8313:8317   */\n      0x32\n        /* \"#utility.yul\":8310:8311   */\n      0x04\n        /* \"#utility.yul\":8303:8318   */\n      mstore\n        /* \"#utility.yul\":8337:8341   */\n      0x24\n        /* \"#utility.yul\":8334:8335   */\n      0x00\n        /* \"#utility.yul\":8327:8342   */\n      revert\n        /* \"#utility.yul\":8354:8534   */\n    tag_198:\n        /* \"#utility.yul\":8402:8479   */\n      0x4e487b7100000000000000000000000000000000000000000000000000000000\n        /* \"#utility.yul\":8399:8400   */\n      0x00\n        /* \"#utility.yul\":8392:8480   */\n      mstore\n        /* \"#utility.yul\":8499:8503   */\n      0x11\n        /* \"#utility.yul\":8496:8497   */\n      0x04\n        /* \"#utility.yul\":8489:8504   */\n      mstore\n        /* \"#utility.yul\":8523:8527   */\n      0x24\n        /* \"#utility.yul\":8520:8521   */\n      0x00\n        /* \"#utility.yul\":8513:8528   */\n      revert\n        /* \"#utility.yul\":8540:8734   */\n    tag_68:\n        /* \"#utility.yul\":8580:8584   */\n      0x00\n        /* \"#utility.yul\":8600:8620   */\n      tag_296\n        /* \"#utility.yul\":8618:8619   */\n      dup3\n        /* \"#utility.yul\":8600:8620   */\n      tag_189\n      jump\t// in\n    tag_296:\n        /* \"#utility.yul\":8595:8620   */\n      swap2\n      pop\n        /* \"#utility.yul\":8634:8654   */\n      tag_297\n        /* \"#utility.yul\":8652:8653   */\n      dup4\n        /* \"#utility.yul\":8634:8654   */\n      tag_189\n      jump\t// in\n    tag_297:\n        /* \"#utility.yul\":8629:8654   */\n      swap3\n      pop\n        /* \"#utility.yul\":8678:8679   */\n      dup3\n        /* \"#utility.yul\":8675:8676   */\n      dup3\n        /* \"#utility.yul\":8671:8680   */\n      sub\n        /* \"#utility.yul\":8663:8680   */\n      swap1\n      pop\n        /* \"#utility.yul\":8702:8703   */\n      dup2\n        /* \"#utility.yul\":8696:8700   */\n      dup2\n        /* \"#utility.yul\":8693:8704   */\n      gt\n        /* \"#utility.yul\":8690:8727   */\n      iszero\n      tag_298\n      jumpi\n        /* \"#utility.yul\":8707:8725   */\n      tag_299\n      tag_198\n      jump\t// in\n    tag_299:\n        /* \"#utility.yul\":8690:8727   */\n    tag_298:\n        /* \"#utility.yul\":8540:8734   */\n      swap3\n      swap2\n      pop\n      pop\n      jump\t// out\n        /* \"#utility.yul\":8740:8931   */\n    tag_82:\n        /* \"#utility.yul\":8780:8783   */\n      0x00\n        /* \"#utility.yul\":8799:8819   */\n      tag_301\n        /* \"#utility.yul\":8817:8818   */\n      dup3\n        /* \"#utility.yul\":8799:8819   */\n      tag_189\n      jump\t// in\n    tag_301:\n        /* \"#utility.yul\":8794:8819   */\n      swap2\n      pop\n        /* \"#utility.yul\":8833:8853   */\n      tag_302\n        /* \"#utility.yul\":8851:8852   */\n      dup4\n        /* \"#utility.yul\":8833:8853   */\n      tag_189\n      jump\t// in\n    tag_302:\n        /* \"#utility.yul\":8828:8853   */\n      swap3\n      pop\n        /* \"#utility.yul\":8876:8877   */\n      dup3\n        /* \"#utility.yul\":8873:8874   */\n      dup3\n        /* \"#utility.yul\":8869:8878   */\n      add\n        /* \"#utility.yul\":8862:8878   */\n      swap1\n      pop\n        /* \"#utility.yul\":8897:8900   */\n      dup1\n        /* \"#utility.yul\":8894:8895   */\n      dup3\n        /* \"#utility.yul\":8891:8901   */\n      gt\n        /* \"#utility.yul\":8888:8924   */\n      iszero\n      tag_303\n      jumpi\n        /* \"#utility.yul\":8904:8922   */\n      tag_304\n      tag_198\n      jump\t// in\n    tag_304:\n        /* \"#utility.yul\":8888:8924   */\n    tag_303:\n        /* \"#utility.yul\":8740:8931   */\n      swap3\n      swap2\n      pop\n      pop\n      jump\t// out\n        /* \"#utility.yul\":8937:9170   */\n    tag_84:\n        /* \"#utility.yul\":8976:8979   */\n      0x00\n        /* \"#utility.yul\":8999:9023   */\n      tag_306\n        /* \"#utility.yul\":9017:9022   */\n      dup3\n        /* \"#utility.yul\":8999:9023   */\n      tag_189\n      jump\t// in\n    tag_306:\n        /* \"#utility.yul\":8990:9023   */\n      swap2\n      pop\n        /* \"#utility.yul\":9045:9111   */\n      0xffffffffffffffffffffffffffffffffffffffffffffffffffffffffffffffff\n        /* \"#utility.yul\":9038:9043   */\n      dup3\n        /* \"#utility.yul\":9035:9112   */\n      sub\n        /* \"#utility.yul\":9032:9135   */\n      tag_307\n      jumpi\n        /* \"#utility.yul\":9115:9133   */\n      tag_308\n      tag_198\n      jump\t// in\n    tag_308:\n        /* \"#utility.yul\":9032:9135   */\n    tag_307:\n        /* \"#utility.yul\":9162:9163   */\n      0x01\n        /* \"#utility.yul\":9155:9160   */\n      dup3\n        /* \"#utility.yul\":9151:9164   */\n      add\n        /* \"#utility.yul\":9144:9164   */\n      swap1\n      pop\n        /* \"#utility.yul\":8937:9170   */\n      swap2\n      swap1\n      pop\n      jump\t// out\n        /* \"#utility.yul\":9176:9356   */\n    tag_168:\n        /* \"#utility.yul\":9224:9301   */\n      0x4e487b7100000000000000000000000000000000000000000000000000000000\n        /* \"#utility.yul\":9221:9222   */\n      0x00\n        /* \"#utility.yul\":9214:9302   */\n      mstore\n        /* \"#utility.yul\":9321:9325   */\n      0x31\n        /* \"#utility.yul\":9318:9319   */\n      0x04\n        /* \"#utility.yul\":9311:9326   */\n      mstore\n        /* \"#utility.yul\":9345:9349   */\n      0x24\n        /* \"#utility.yul\":9342:9343   */\n      0x00\n        /* \"#utility.yul\":9335:9350   */\n      revert\n\n    auxdata: 0xa264697066735822122069c4e05d1f82530a47e49b2956e073fef0fc7a6878b59ce1befe9459a50fab1f64736f6c63430008120033\n}\n",
				"bytecode": {
					"linkReferences": {},
					"object": "608060405234801561001057600080fd5b506116a6806100206000396000f3fe608060405234801561001057600080fd5b50600436106100885760003560e01c80638a2195351161005b5780638a21953514610139578063b446b43e1461016b578063e6d0054c1461019d578063f7c03b80146101b957610088565b806305d01f501461008d578063225c3957146100bd5780632c2e7e5c146100d95780635ac8a1e514610109575b600080fd5b6100a760048036038101906100a29190611295565b6101d5565b6040516100b4919061130a565b60405180910390f35b6100d760048036038101906100d29190611351565b610210565b005b6100f360048036038101906100ee91906113c0565b6107b3565b604051610100919061130a565b60405180910390f35b610123600480360381019061011e91906113c0565b6107e1565b604051610130919061130a565b60405180910390f35b610153600480360381019061014e9190611351565b61080f565b60405161016293929190611418565b60405180910390f35b61018560048036038101906101809190611351565b610899565b60405161019493929190611418565b60405180910390f35b6101b760048036038101906101b2919061144f565b610923565b005b6101d360048036038101906101ce9190611351565b610998565b005b600060205281600052604060002081805160208101820180518482526020830160208501208183528095505050505050600091509150505481565b6000600184604051610222919061151c565b9081526020016040518091039020600084815260200190815260200160002080549050111561065457600081905060005b600185604051610263919061151c565b9081526020016040518091039020600085815260200190815260200160002080549050811080156102945750600082115b15610530576000826001876040516102ac919061151c565b9081526020016040518091039020600087815260200190815260200160002083815481106102dd576102dc611533565b5b90600052602060002090600302016001015411156102fb578261034f565b60018660405161030b919061151c565b90815260200160405180910390206000868152602001908152602001600020828154811061033c5761033b611533565b5b9060005260206000209060030201600101545b9050808361035d9190611591565b925080600187604051610370919061151c565b9081526020016040518091039020600087815260200190815260200160002083815481106103a1576103a0611533565b5b906000526020600020906003020160010160008282546103c19190611591565b92505081905550806000803373ffffffffffffffffffffffffffffffffffffffff1673ffffffffffffffffffffffffffffffffffffffff16815260200190815260200160002087604051610415919061151c565b908152602001604051809103902060008282546104329190611591565b925050819055508060008060018960405161044d919061151c565b90815260200160405180910390206000898152602001908152602001600020858154811061047e5761047d611533565b5b906000526020600020906003020160000160009054906101000a900473ffffffffffffffffffffffffffffffffffffffff1673ffffffffffffffffffffffffffffffffffffffff1673ffffffffffffffffffffffffffffffffffffffff168152602001908152602001600020876040516104f8919061151c565b9081526020016040518091039020600082825461051591906115c5565b92505081905550508080610528906115f9565b915050610253565b50600284604051610541919061151c565b9081526020016040518091039020600084815260200190815260200160002060405180606001604052803373ffffffffffffffffffffffffffffffffffffffff16815260200183815260200142815250908060018154018082558091505060019003906000526020600020906003020160009091909190915060008201518160000160006101000a81548173ffffffffffffffffffffffffffffffffffffffff021916908373ffffffffffffffffffffffffffffffffffffffff1602179055506020820151816001015560408201518160020155505061064e60018560405161062a919061151c565b90815260200160405180910390206000858152602001908152602001600020610f3b565b506107ae565b600283604051610664919061151c565b9081526020016040518091039020600083815260200190815260200160002060405180606001604052803373ffffffffffffffffffffffffffffffffffffffff16815260200183815260200142815250908060018154018082558091505060019003906000526020600020906003020160009091909190915060008201518160000160006101000a81548173ffffffffffffffffffffffffffffffffffffffff021916908373ffffffffffffffffffffffffffffffffffffffff16021790555060208201518160010155604082015181600201555050600060048460405161074c919061151c565b90815260200160405180910390205414806107845750600483604051610772919061151c565b90815260200160405180910390205482105b156107ad578160048460405161079a919061151c565b9081526020016040518091039020819055505b5b505050565b6004818051602081018201805184825260208301602085012081835280955050505050506000915090505481565b6003818051602081018201805184825260208301602085012081835280955050505050506000915090505481565b600183805160208101820180518482526020830160208501208183528095505050505050602052816000526040600020818154811061084d57600080fd5b906000526020600020906003020160009250925050508060000160009054906101000a900473ffffffffffffffffffffffffffffffffffffffff16908060010154908060020154905083565b60028380516020810182018051848252602083016020850120818352809550505050505060205281600052604060002081815481106108d757600080fd5b906000526020600020906003020160009250925050508060000160009054906101000a900473ffffffffffffffffffffffffffffffffffffffff16908060010154908060020154905083565b806000803373ffffffffffffffffffffffffffffffffffffffff1673ffffffffffffffffffffffffffffffffffffffff16815260200190815260200160002083604051610970919061151c565b9081526020016040518091039020600082825461098d91906115c5565b925050819055505050565b60006002846040516109aa919061151c565b90815260200160405180910390206000848152602001908152602001600020805490501115610ddc57600081905060005b6002856040516109eb919061151c565b908152602001604051809103902060008581526020019081526020016000208054905081108015610a1c5750600082115b15610cb857600082600287604051610a34919061151c565b908152602001604051809103902060008781526020019081526020016000208381548110610a6557610a64611533565b5b9060005260206000209060030201600101541115610a835782610ad7565b600286604051610a93919061151c565b908152602001604051809103902060008681526020019081526020016000208281548110610ac457610ac3611533565b5b9060005260206000209060030201600101545b90508083610ae59190611591565b925080600287604051610af8919061151c565b908152602001604051809103902060008781526020019081526020016000208381548110610b2957610b28611533565b5b90600052602060002090600302016001016000828254610b499190611591565b92505081905550806000803373ffffffffffffffffffffffffffffffffffffffff1673ffffffffffffffffffffffffffffffffffffffff16815260200190815260200160002087604051610b9d919061151c565b90815260200160405180910390206000828254610bba91906115c5565b9250508190555080600080600289604051610bd5919061151c565b908152602001604051809103902060008981526020019081526020016000208581548110610c0657610c05611533565b5b906000526020600020906003020160000160009054906101000a900473ffffffffffffffffffffffffffffffffffffffff1673ffffffffffffffffffffffffffffffffffffffff1673ffffffffffffffffffffffffffffffffffffffff16815260200190815260200160002087604051610c80919061151c565b90815260200160405180910390206000828254610c9d9190611591565b92505081905550508080610cb0906115f9565b9150506109db565b50600184604051610cc9919061151c565b9081526020016040518091039020600084815260200190815260200160002060405180606001604052803373ffffffffffffffffffffffffffffffffffffffff16815260200183815260200142815250908060018154018082558091505060019003906000526020600020906003020160009091909190915060008201518160000160006101000a81548173ffffffffffffffffffffffffffffffffffffffff021916908373ffffffffffffffffffffffffffffffffffffffff16021790555060208201518160010155604082015181600201555050610dd6600285604051610db2919061151c565b90815260200160405180910390206000858152602001908152602001600020610f3b565b50610f36565b600183604051610dec919061151c565b9081526020016040518091039020600083815260200190815260200160002060405180606001604052803373ffffffffffffffffffffffffffffffffffffffff16815260200183815260200142815250908060018154018082558091505060019003906000526020600020906003020160009091909190915060008201518160000160006101000a81548173ffffffffffffffffffffffffffffffffffffffff021916908373ffffffffffffffffffffffffffffffffffffffff160217905550602082015181600101556040820151816002015550506000600384604051610ed4919061151c565b9081526020016040518091039020541480610f0c575081600384604051610efb919061151c565b908152602001604051809103902054105b15610f355781600384604051610f22919061151c565b9081526020016040518091039020819055505b5b505050565b60005b81805490508110156110d9576000828281548110610f5f57610f5e611533565b5b906000526020600020906003020160010154036110c55760018280549050610f879190611591565b81101561105f578160018380549050610fa09190611591565b81548110610fb157610fb0611533565b5b9060005260206000209060030201828281548110610fd257610fd1611533565b5b90600052602060002090600302016000820160009054906101000a900473ffffffffffffffffffffffffffffffffffffffff168160000160006101000a81548173ffffffffffffffffffffffffffffffffffffffff021916908373ffffffffffffffffffffffffffffffffffffffff16021790555060018201548160010155600282015481600201559050505b818054806110705761106f611641565b5b6001900381819060005260206000209060030201600080820160006101000a81549073ffffffffffffffffffffffffffffffffffffffff021916905560018201600090556002820160009055505090556110d4565b80806110d0906115f9565b9150505b610f3e565b5050565b6000604051905090565b600080fd5b600080fd5b600073ffffffffffffffffffffffffffffffffffffffff82169050919050565b600061111c826110f1565b9050919050565b61112c81611111565b811461113757600080fd5b50565b60008135905061114981611123565b92915050565b600080fd5b600080fd5b6000601f19601f8301169050919050565b7f4e487b7100000000000000000000000000000000000000000000000000000000600052604160045260246000fd5b6111a282611159565b810181811067ffffffffffffffff821117156111c1576111c061116a565b5b80604052505050565b60006111d46110dd565b90506111e08282611199565b919050565b600067ffffffffffffffff821115611200576111ff61116a565b5b61120982611159565b9050602081019050919050565b82818337600083830152505050565b6000611238611233846111e5565b6111ca565b90508281526020810184848401111561125457611253611154565b5b61125f848285611216565b509392505050565b600082601f83011261127c5761127b61114f565b5b813561128c848260208601611225565b91505092915050565b600080604083850312156112ac576112ab6110e7565b5b60006112ba8582860161113a565b925050602083013567ffffffffffffffff8111156112db576112da6110ec565b5b6112e785828601611267565b9150509250929050565b6000819050919050565b611304816112f1565b82525050565b600060208201905061131f60008301846112fb565b92915050565b61132e816112f1565b811461133957600080fd5b50565b60008135905061134b81611325565b92915050565b60008060006060848603121561136a576113696110e7565b5b600084013567ffffffffffffffff811115611388576113876110ec565b5b61139486828701611267565b93505060206113a58682870161133c565b92505060406113b68682870161133c565b9150509250925092565b6000602082840312156113d6576113d56110e7565b5b600082013567ffffffffffffffff8111156113f4576113f36110ec565b5b61140084828501611267565b91505092915050565b61141281611111565b82525050565b600060608201905061142d6000830186611409565b61143a60208301856112fb565b61144760408301846112fb565b949350505050565b60008060408385031215611466576114656110e7565b5b600083013567ffffffffffffffff811115611484576114836110ec565b5b61149085828601611267565b92505060206114a18582860161133c565b9150509250929050565b600081519050919050565b600081905092915050565b60005b838110156114df5780820151818401526020810190506114c4565b60008484015250505050565b60006114f6826114ab565b61150081856114b6565b93506115108185602086016114c1565b80840191505092915050565b600061152882846114eb565b915081905092915050565b7f4e487b7100000000000000000000000000000000000000000000000000000000600052603260045260246000fd5b7f4e487b7100000000000000000000000000000000000000000000000000000000600052601160045260246000fd5b600061159c826112f1565b91506115a7836112f1565b92508282039050818111156115bf576115be611562565b5b92915050565b60006115d0826112f1565b91506115db836112f1565b92508282019050808211156115f3576115f2611562565b5b92915050565b6000611604826112f1565b91507fffffffffffffffffffffffffffffffffffffffffffffffffffffffffffffffff820361163657611635611562565b5b600182019050919050565b7f4e487b7100000000000000000000000000000000000000000000000000000000600052603160045260246000fdfea264697066735822122069c4e05d1f82530a47e49b2956e073fef0fc7a6878b59ce1befe9459a50fab1f64736f6c63430008120033",
					"opcodes": "PUSH1 0x80 PUSH1 0x40 MSTORE CALLVALUE DUP1 ISZERO PUSH2 0x10 JUMPI PUSH1 0x0 DUP1 REVERT JUMPDEST POP PUSH2 0x16A6 DUP1 PUSH2 0x20 PUSH1 0x0 CODECOPY PUSH1 0x0 RETURN INVALID PUSH1 0x80 PUSH1 0x40 MSTORE CALLVALUE DUP1 ISZERO PUSH2 0x10 JUMPI PUSH1 0x0 DUP1 REVERT JUMPDEST POP PUSH1 0x4 CALLDATASIZE LT PUSH2 0x88 JUMPI PUSH1 0x0 CALLDATALOAD PUSH1 0xE0 SHR DUP1 PUSH4 0x8A219535 GT PUSH2 0x5B JUMPI DUP1 PUSH4 0x8A219535 EQ PUSH2 0x139 JUMPI DUP1 PUSH4 0xB446B43E EQ PUSH2 0x16B JUMPI DUP1 PUSH4 0xE6D0054C EQ PUSH2 0x19D JUMPI DUP1 PUSH4 0xF7C03B80 EQ PUSH2 0x1B9 JUMPI PUSH2 0x88 JUMP JUMPDEST DUP1 PUSH4 0x5D01F50 EQ PUSH2 0x8D JUMPI DUP1 PUSH4 0x225C3957 EQ PUSH2 0xBD JUMPI DUP1 PUSH4 0x2C2E7E5C EQ PUSH2 0xD9 JUMPI DUP1 PUSH4 0x5AC8A1E5 EQ PUSH2 0x109 JUMPI JUMPDEST PUSH1 0x0 DUP1 REVERT JUMPDEST PUSH2 0xA7 PUSH1 0x4 DUP1 CALLDATASIZE SUB DUP2 ADD SWAP1 PUSH2 0xA2 SWAP2 SWAP1 PUSH2 0x1295 JUMP JUMPDEST PUSH2 0x1D5 JUMP JUMPDEST PUSH1 0x40 MLOAD PUSH2 0xB4 SWAP2 SWAP1 PUSH2 0x130A JUMP JUMPDEST PUSH1 0x40 MLOAD DUP1 SWAP2 SUB SWAP1 RETURN JUMPDEST PUSH2 0xD7 PUSH1 0x4 DUP1 CALLDATASIZE SUB DUP2 ADD SWAP1 PUSH2 0xD2 SWAP2 SWAP1 PUSH2 0x1351 JUMP JUMPDEST PUSH2 0x210 JUMP JUMPDEST STOP JUMPDEST PUSH2 0xF3 PUSH1 0x4 DUP1 CALLDATASIZE SUB DUP2 ADD SWAP1 PUSH2 0xEE SWAP2 SWAP1 PUSH2 0x13C0 JUMP JUMPDEST PUSH2 0x7B3 JUMP JUMPDEST PUSH1 0x40 MLOAD PUSH2 0x100 SWAP2 SWAP1 PUSH2 0x130A JUMP JUMPDEST PUSH1 0x40 MLOAD DUP1 SWAP2 SUB SWAP1 RETURN JUMPDEST PUSH2 0x123 PUSH1 0x4 DUP1 CALLDATASIZE SUB DUP2 ADD SWAP1 PUSH2 0x11E SWAP2 SWAP1 PUSH2 0x13C0 JUMP JUMPDEST PUSH2 0x7E1 JUMP JUMPDEST PUSH1 0x40 MLOAD PUSH2 0x130 SWAP2 SWAP1 PUSH2 0x130A JUMP JUMPDEST PUSH1 0x40 MLOAD DUP1 SWAP2 SUB SWAP1 RETURN JUMPDEST PUSH2 0x153 PUSH1 0x4 DUP1 CALLDATASIZE SUB DUP2 ADD SWAP1 PUSH2 0x14E SWAP2 SWAP1 PUSH2 0x1351 JUMP JUMPDEST PUSH2 0x80F JUMP JUMPDEST PUSH1 0x40 MLOAD PUSH2 0x162 SWAP4 SWAP3 SWAP2 SWAP1 PUSH2 0x1418 JUMP JUMPDEST PUSH1 0x40 MLOAD DUP1 SWAP2 SUB SWAP1 RETURN JUMPDEST PUSH2 0x185 PUSH1 0x4 DUP1 CALLDATASIZE SUB DUP2 ADD SWAP1 PUSH2 0x180 SWAP2 SWAP1 PUSH2 0x1351 JUMP JUMPDEST PUSH2 0x899 JUMP JUMPDEST PUSH1 0x40 MLOAD PUSH2 0x194 SWAP4 SWAP3 SWAP2 SWAP1 PUSH2 0x1418 JUMP JUMPDEST PUSH1 0x40 MLOAD DUP1 SWAP2 SUB SWAP1 RETURN JUMPDEST PUSH2 0x1B7 PUSH1 0x4 DUP1 CALLDATASIZE SUB DUP2 ADD SWAP1 PUSH2 0x1B2 SWAP2 SWAP1 PUSH2 0x144F JUMP JUMPDEST PUSH2 0x923 JUMP JUMPDEST STOP JUMPDEST PUSH2 0x1D3 PUSH1 0x4 DUP1 CALLDATASIZE SUB DUP2 ADD SWAP1 PUSH2 0x1CE SWAP2 SWAP1 PUSH2 0x1351 JUMP JUMPDEST PUSH2 0x998 JUMP JUMPDEST STOP JUMPDEST PUSH1 0x0 PUSH1 0x20 MSTORE DUP2 PUSH1 0x0 MSTORE PUSH1 0x40 PUSH1 0x0 KECCAK256 DUP2 DUP1 MLOAD PUSH1 0x20 DUP2 ADD DUP3 ADD DUP1 MLOAD DUP5 DUP3 MSTORE PUSH1 0x20 DUP4 ADD PUSH1 0x20 DUP6 ADD KECCAK256 DUP2 DUP4 MSTORE DUP1 SWAP6 POP POP POP POP POP POP PUSH1 0x0 SWAP2 POP SWAP2 POP POP SLOAD DUP2 JUMP JUMPDEST PUSH1 0x0 PUSH1 0x1 DUP5 PUSH1 0x40 MLOAD PUSH2 0x222 SWAP2 SWAP1 PUSH2 0x151C JUMP JUMPDEST SWAP1 DUP2 MSTORE PUSH1 0x20 ADD PUSH1 0x40 MLOAD DUP1 SWAP2 SUB SWAP1 KECCAK256 PUSH1 0x0 DUP5 DUP2 MSTORE PUSH1 0x20 ADD SWAP1 DUP2 MSTORE PUSH1 0x20 ADD PUSH1 0x0 KECCAK256 DUP1 SLOAD SWAP1 POP GT ISZERO PUSH2 0x654 JUMPI PUSH1 0x0 DUP2 SWAP1 POP PUSH1 0x0 JUMPDEST PUSH1 0x1 DUP6 PUSH1 0x40 MLOAD PUSH2 0x263 SWAP2 SWAP1 PUSH2 0x151C JUMP JUMPDEST SWAP1 DUP2 MSTORE PUSH1 0x20 ADD PUSH1 0x40 MLOAD DUP1 SWAP2 SUB SWAP1 KECCAK256 PUSH1 0x0 DUP6 DUP2 MSTORE PUSH1 0x20 ADD SWAP1 DUP2 MSTORE PUSH1 0x20 ADD PUSH1 0x0 KECCAK256 DUP1 SLOAD SWAP1 POP DUP2 LT DUP1 ISZERO PUSH2 0x294 JUMPI POP PUSH1 0x0 DUP3 GT JUMPDEST ISZERO PUSH2 0x530 JUMPI PUSH1 0x0 DUP3 PUSH1 0x1 DUP8 PUSH1 0x40 MLOAD PUSH2 0x2AC SWAP2 SWAP1 PUSH2 0x151C JUMP JUMPDEST SWAP1 DUP2 MSTORE PUSH1 0x20 ADD PUSH1 0x40 MLOAD DUP1 SWAP2 SUB SWAP1 KECCAK256 PUSH1 0x0 DUP8 DUP2 MSTORE PUSH1 0x20 ADD SWAP1 DUP2 MSTORE PUSH1 0x20 ADD PUSH1 0x0 KECCAK256 DUP4 DUP2 SLOAD DUP2 LT PUSH2 0x2DD JUMPI PUSH2 0x2DC PUSH2 0x1533 JUMP JUMPDEST JUMPDEST SWAP1 PUSH1 0x0 MSTORE PUSH1 0x20 PUSH1 0x0 KECCAK256 SWAP1 PUSH1 0x3 MUL ADD PUSH1 0x1 ADD SLOAD GT ISZERO PUSH2 0x2FB JUMPI DUP3 PUSH2 0x34F JUMP JUMPDEST PUSH1 0x1 DUP7 PUSH1 0x40 MLOAD PUSH2 0x30B SWAP2 SWAP1 PUSH2 0x151C JUMP JUMPDEST SWAP1 DUP2 MSTORE PUSH1 0x20 ADD PUSH1 0x40 MLOAD DUP1 SWAP2 SUB SWAP1 KECCAK256 PUSH1 0x0 DUP7 DUP2 MSTORE PUSH1 0x20 ADD SWAP1 DUP2 MSTORE PUSH1 0x20 ADD PUSH1 0x0 KECCAK256 DUP3 DUP2 SLOAD DUP2 LT PUSH2 0x33C JUMPI PUSH2 0x33B PUSH2 0x1533 JUMP JUMPDEST JUMPDEST SWAP1 PUSH1 0x0 MSTORE PUSH1 0x20 PUSH1 0x0 KECCAK256 SWAP1 PUSH1 0x3 MUL ADD PUSH1 0x1 ADD SLOAD JUMPDEST SWAP1 POP DUP1 DUP4 PUSH2 0x35D SWAP2 SWAP1 PUSH2 0x1591 JUMP JUMPDEST SWAP3 POP DUP1 PUSH1 0x1 DUP8 PUSH1 0x40 MLOAD PUSH2 0x370 SWAP2 SWAP1 PUSH2 0x151C JUMP JUMPDEST SWAP1 DUP2 MSTORE PUSH1 0x20 ADD PUSH1 0x40 MLOAD DUP1 SWAP2 SUB SWAP1 KECCAK256 PUSH1 0x0 DUP8 DUP2 MSTORE PUSH1 0x20 ADD SWAP1 DUP2 MSTORE PUSH1 0x20 ADD PUSH1 0x0 KECCAK256 DUP4 DUP2 SLOAD DUP2 LT PUSH2 0x3A1 JUMPI PUSH2 0x3A0 PUSH2 0x1533 JUMP JUMPDEST JUMPDEST SWAP1 PUSH1 0x0 MSTORE PUSH1 0x20 PUSH1 0x0 KECCAK256 SWAP1 PUSH1 0x3 MUL ADD PUSH1 0x1 ADD PUSH1 0x0 DUP3 DUP3 SLOAD PUSH2 0x3C1 SWAP2 SWAP1 PUSH2 0x1591 JUMP JUMPDEST SWAP3 POP POP DUP2 SWAP1 SSTORE POP DUP1 PUSH1 0x0 DUP1 CALLER PUSH20 0xFFFFFFFFFFFFFFFFFFFFFFFFFFFFFFFFFFFFFFFF AND PUSH20 0xFFFFFFFFFFFFFFFFFFFFFFFFFFFFFFFFFFFFFFFF AND DUP2 MSTORE PUSH1 0x20 ADD SWAP1 DUP2 MSTORE PUSH1 0x20 ADD PUSH1 0x0 KECCAK256 DUP8 PUSH1 0x40 MLOAD PUSH2 0x415 SWAP2 SWAP1 PUSH2 0x151C JUMP JUMPDEST SWAP1 DUP2 MSTORE PUSH1 0x20 ADD PUSH1 0x40 MLOAD DUP1 SWAP2 SUB SWAP1 KECCAK256 PUSH1 0x0 DUP3 DUP3 SLOAD PUSH2 0x432 SWAP2 SWAP1 PUSH2 0x1591 JUMP JUMPDEST SWAP3 POP POP DUP2 SWAP1 SSTORE POP DUP1 PUSH1 0x0 DUP1 PUSH1 0x1 DUP10 PUSH1 0x40 MLOAD PUSH2 0x44D SWAP2 SWAP1 PUSH2 0x151C JUMP JUMPDEST SWAP1 DUP2 MSTORE PUSH1 0x20 ADD PUSH1 0x40 MLOAD DUP1 SWAP2 SUB SWAP1 KECCAK256 PUSH1 0x0 DUP10 DUP2 MSTORE PUSH1 0x20 ADD SWAP1 DUP2 MSTORE PUSH1 0x20 ADD PUSH1 0x0 KECCAK256 DUP6 DUP2 SLOAD DUP2 LT PUSH2 0x47E JUMPI PUSH2 0x47D PUSH2 0x1533 JUMP JUMPDEST JUMPDEST SWAP1 PUSH1 0x0 MSTORE PUSH1 0x20 PUSH1 0x0 KECCAK256 SWAP1 PUSH1 0x3 MUL ADD PUSH1 0x0 ADD PUSH1 0x0 SWAP1 SLOAD SWAP1 PUSH2 0x100 EXP SWAP1 DIV PUSH20 0xFFFFFFFFFFFFFFFFFFFFFFFFFFFFFFFFFFFFFFFF AND PUSH20 0xFFFFFFFFFFFFFFFFFFFFFFFFFFFFFFFFFFFFFFFF AND PUSH20 0xFFFFFFFFFFFFFFFFFFFFFFFFFFFFFFFFFFFFFFFF AND DUP2 MSTORE PUSH1 0x20 ADD SWAP1 DUP2 MSTORE PUSH1 0x20 ADD PUSH1 0x0 KECCAK256 DUP8 PUSH1 0x40 MLOAD PUSH2 0x4F8 SWAP2 SWAP1 PUSH2 0x151C JUMP JUMPDEST SWAP1 DUP2 MSTORE PUSH1 0x20 ADD PUSH1 0x40 MLOAD DUP1 SWAP2 SUB SWAP1 KECCAK256 PUSH1 0x0 DUP3 DUP3 SLOAD PUSH2 0x515 SWAP2 SWAP1 PUSH2 0x15C5 JUMP JUMPDEST SWAP3 POP POP DUP2 SWAP1 SSTORE POP POP DUP1 DUP1 PUSH2 0x528 SWAP1 PUSH2 0x15F9 JUMP JUMPDEST SWAP2 POP POP PUSH2 0x253 JUMP JUMPDEST POP PUSH1 0x2 DUP5 PUSH1 0x40 MLOAD PUSH2 0x541 SWAP2 SWAP1 PUSH2 0x151C JUMP JUMPDEST SWAP1 DUP2 MSTORE PUSH1 0x20 ADD PUSH1 0x40 MLOAD DUP1 SWAP2 SUB SWAP1 KECCAK256 PUSH1 0x0 DUP5 DUP2 MSTORE PUSH1 0x20 ADD SWAP1 DUP2 MSTORE PUSH1 0x20 ADD PUSH1 0x0 KECCAK256 PUSH1 0x40 MLOAD DUP1 PUSH1 0x60 ADD PUSH1 0x40 MSTORE DUP1 CALLER PUSH20 0xFFFFFFFFFFFFFFFFFFFFFFFFFFFFFFFFFFFFFFFF AND DUP2 MSTORE PUSH1 0x20 ADD DUP4 DUP2 MSTORE PUSH1 0x20 ADD TIMESTAMP DUP2 MSTORE POP SWAP1 DUP1 PUSH1 0x1 DUP2 SLOAD ADD DUP1 DUP3 SSTORE DUP1 SWAP2 POP POP PUSH1 0x1 SWAP1 SUB SWAP1 PUSH1 0x0 MSTORE PUSH1 0x20 PUSH1 0x0 KECCAK256 SWAP1 PUSH1 0x3 MUL ADD PUSH1 0x0 SWAP1 SWAP2 SWAP1 SWAP2 SWAP1 SWAP2 POP PUSH1 0x0 DUP3 ADD MLOAD DUP2 PUSH1 0x0 ADD PUSH1 0x0 PUSH2 0x100 EXP DUP2 SLOAD DUP2 PUSH20 0xFFFFFFFFFFFFFFFFFFFFFFFFFFFFFFFFFFFFFFFF MUL NOT AND SWAP1 DUP4 PUSH20 0xFFFFFFFFFFFFFFFFFFFFFFFFFFFFFFFFFFFFFFFF AND MUL OR SWAP1 SSTORE POP PUSH1 0x20 DUP3 ADD MLOAD DUP2 PUSH1 0x1 ADD SSTORE PUSH1 0x40 DUP3 ADD MLOAD DUP2 PUSH1 0x2 ADD SSTORE POP POP PUSH2 0x64E PUSH1 0x1 DUP6 PUSH1 0x40 MLOAD PUSH2 0x62A SWAP2 SWAP1 PUSH2 0x151C JUMP JUMPDEST SWAP1 DUP2 MSTORE PUSH1 0x20 ADD PUSH1 0x40 MLOAD DUP1 SWAP2 SUB SWAP1 KECCAK256 PUSH1 0x0 DUP6 DUP2 MSTORE PUSH1 0x20 ADD SWAP1 DUP2 MSTORE PUSH1 0x20 ADD PUSH1 0x0 KECCAK256 PUSH2 0xF3B JUMP JUMPDEST POP PUSH2 0x7AE JUMP JUMPDEST PUSH1 0x2 DUP4 PUSH1 0x40 MLOAD PUSH2 0x664 SWAP2 SWAP1 PUSH2 0x151C JUMP JUMPDEST SWAP1 DUP2 MSTORE PUSH1 0x20 ADD PUSH1 0x40 MLOAD DUP1 SWAP2 SUB SWAP1 KECCAK256 PUSH1 0x0 DUP4 DUP2 MSTORE PUSH1 0x20 ADD SWAP1 DUP2 MSTORE PUSH1 0x20 ADD PUSH1 0x0 KECCAK256 PUSH1 0x40 MLOAD DUP1 PUSH1 0x60 ADD PUSH1 0x40 MSTORE DUP1 CALLER PUSH20 0xFFFFFFFFFFFFFFFFFFFFFFFFFFFFFFFFFFFFFFFF AND DUP2 MSTORE PUSH1 0x20 ADD DUP4 DUP2 MSTORE PUSH1 0x20 ADD TIMESTAMP DUP2 MSTORE POP SWAP1 DUP1 PUSH1 0x1 DUP2 SLOAD ADD DUP1 DUP3 SSTORE DUP1 SWAP2 POP POP PUSH1 0x1 SWAP1 SUB SWAP1 PUSH1 0x0 MSTORE PUSH1 0x20 PUSH1 0x0 KECCAK256 SWAP1 PUSH1 0x3 MUL ADD PUSH1 0x0 SWAP1 SWAP2 SWAP1 SWAP2 SWAP1 SWAP2 POP PUSH1 0x0 DUP3 ADD MLOAD DUP2 PUSH1 0x0 ADD PUSH1 0x0 PUSH2 0x100 EXP DUP2 SLOAD DUP2 PUSH20 0xFFFFFFFFFFFFFFFFFFFFFFFFFFFFFFFFFFFFFFFF MUL NOT AND SWAP1 DUP4 PUSH20 0xFFFFFFFFFFFFFFFFFFFFFFFFFFFFFFFFFFFFFFFF AND MUL OR SWAP1 SSTORE POP PUSH1 0x20 DUP3 ADD MLOAD DUP2 PUSH1 0x1 ADD SSTORE PUSH1 0x40 DUP3 ADD MLOAD DUP2 PUSH1 0x2 ADD SSTORE POP POP PUSH1 0x0 PUSH1 0x4 DUP5 PUSH1 0x40 MLOAD PUSH2 0x74C SWAP2 SWAP1 PUSH2 0x151C JUMP JUMPDEST SWAP1 DUP2 MSTORE PUSH1 0x20 ADD PUSH1 0x40 MLOAD DUP1 SWAP2 SUB SWAP1 KECCAK256 SLOAD EQ DUP1 PUSH2 0x784 JUMPI POP PUSH1 0x4 DUP4 PUSH1 0x40 MLOAD PUSH2 0x772 SWAP2 SWAP1 PUSH2 0x151C JUMP JUMPDEST SWAP1 DUP2 MSTORE PUSH1 0x20 ADD PUSH1 0x40 MLOAD DUP1 SWAP2 SUB SWAP1 KECCAK256 SLOAD DUP3 LT JUMPDEST ISZERO PUSH2 0x7AD JUMPI DUP2 PUSH1 0x4 DUP5 PUSH1 0x40 MLOAD PUSH2 0x79A SWAP2 SWAP1 PUSH2 0x151C JUMP JUMPDEST SWAP1 DUP2 MSTORE PUSH1 0x20 ADD PUSH1 0x40 MLOAD DUP1 SWAP2 SUB SWAP1 KECCAK256 DUP2 SWAP1 SSTORE POP JUMPDEST JUMPDEST POP POP POP JUMP JUMPDEST PUSH1 0x4 DUP2 DUP1 MLOAD PUSH1 0x20 DUP2 ADD DUP3 ADD DUP1 MLOAD DUP5 DUP3 MSTORE PUSH1 0x20 DUP4 ADD PUSH1 0x20 DUP6 ADD KECCAK256 DUP2 DUP4 MSTORE DUP1 SWAP6 POP POP POP POP POP POP PUSH1 0x0 SWAP2 POP SWAP1 POP SLOAD DUP2 JUMP JUMPDEST PUSH1 0x3 DUP2 DUP1 MLOAD PUSH1 0x20 DUP2 ADD DUP3 ADD DUP1 MLOAD DUP5 DUP3 MSTORE PUSH1 0x20 DUP4 ADD PUSH1 0x20 DUP6 ADD KECCAK256 DUP2 DUP4 MSTORE DUP1 SWAP6 POP POP POP POP POP POP PUSH1 0x0 SWAP2 POP SWAP1 POP SLOAD DUP2 JUMP JUMPDEST PUSH1 0x1 DUP4 DUP1 MLOAD PUSH1 0x20 DUP2 ADD DUP3 ADD DUP1 MLOAD DUP5 DUP3 MSTORE PUSH1 0x20 DUP4 ADD PUSH1 0x20 DUP6 ADD KECCAK256 DUP2 DUP4 MSTORE DUP1 SWAP6 POP POP POP POP POP POP PUSH1 0x20 MSTORE DUP2 PUSH1 0x0 MSTORE PUSH1 0x40 PUSH1 0x0 KECCAK256 DUP2 DUP2 SLOAD DUP2 LT PUSH2 0x84D JUMPI PUSH1 0x0 DUP1 REVERT JUMPDEST SWAP1 PUSH1 0x0 MSTORE PUSH1 0x20 PUSH1 0x0 KECCAK256 SWAP1 PUSH1 0x3 MUL ADD PUSH1 0x0 SWAP3 POP SWAP3 POP POP POP DUP1 PUSH1 0x0 ADD PUSH1 0x0 SWAP1 SLOAD SWAP1 PUSH2 0x100 EXP SWAP1 DIV PUSH20 0xFFFFFFFFFFFFFFFFFFFFFFFFFFFFFFFFFFFFFFFF AND SWAP1 DUP1 PUSH1 0x1 ADD SLOAD SWAP1 DUP1 PUSH1 0x2 ADD SLOAD SWAP1 POP DUP4 JUMP JUMPDEST PUSH1 0x2 DUP4 DUP1 MLOAD PUSH1 0x20 DUP2 ADD DUP3 ADD DUP1 MLOAD DUP5 DUP3 MSTORE PUSH1 0x20 DUP4 ADD PUSH1 0x20 DUP6 ADD KECCAK256 DUP2 DUP4 MSTORE DUP1 SWAP6 POP POP POP POP POP POP PUSH1 0x20 MSTORE DUP2 PUSH1 0x0 MSTORE PUSH1 0x40 PUSH1 0x0 KECCAK256 DUP2 DUP2 SLOAD DUP2 LT PUSH2 0x8D7 JUMPI PUSH1 0x0 DUP1 REVERT JUMPDEST SWAP1 PUSH1 0x0 MSTORE PUSH1 0x20 PUSH1 0x0 KECCAK256 SWAP1 PUSH1 0x3 MUL ADD PUSH1 0x0 SWAP3 POP SWAP3 POP POP POP DUP1 PUSH1 0x0 ADD PUSH1 0x0 SWAP1 SLOAD SWAP1 PUSH2 0x100 EXP SWAP1 DIV PUSH20 0xFFFFFFFFFFFFFFFFFFFFFFFFFFFFFFFFFFFFFFFF AND SWAP1 DUP1 PUSH1 0x1 ADD SLOAD SWAP1 DUP1 PUSH1 0x2 ADD SLOAD SWAP1 POP DUP4 JUMP JUMPDEST DUP1 PUSH1 0x0 DUP1 CALLER PUSH20 0xFFFFFFFFFFFFFFFFFFFFFFFFFFFFFFFFFFFFFFFF AND PUSH20 0xFFFFFFFFFFFFFFFFFFFFFFFFFFFFFFFFFFFFFFFF AND DUP2 MSTORE PUSH1 0x20 ADD SWAP1 DUP2 MSTORE PUSH1 0x20 ADD PUSH1 0x0 KECCAK256 DUP4 PUSH1 0x40 MLOAD PUSH2 0x970 SWAP2 SWAP1 PUSH2 0x151C JUMP JUMPDEST SWAP1 DUP2 MSTORE PUSH1 0x20 ADD PUSH1 0x40 MLOAD DUP1 SWAP2 SUB SWAP1 KECCAK256 PUSH1 0x0 DUP3 DUP3 SLOAD PUSH2 0x98D SWAP2 SWAP1 PUSH2 0x15C5 JUMP JUMPDEST SWAP3 POP POP DUP2 SWAP1 SSTORE POP POP POP JUMP JUMPDEST PUSH1 0x0 PUSH1 0x2 DUP5 PUSH1 0x40 MLOAD PUSH2 0x9AA SWAP2 SWAP1 PUSH2 0x151C JUMP JUMPDEST SWAP1 DUP2 MSTORE PUSH1 0x20 ADD PUSH1 0x40 MLOAD DUP1 SWAP2 SUB SWAP1 KECCAK256 PUSH1 0x0 DUP5 DUP2 MSTORE PUSH1 0x20 ADD SWAP1 DUP2 MSTORE PUSH1 0x20 ADD PUSH1 0x0 KECCAK256 DUP1 SLOAD SWAP1 POP GT ISZERO PUSH2 0xDDC JUMPI PUSH1 0x0 DUP2 SWAP1 POP PUSH1 0x0 JUMPDEST PUSH1 0x2 DUP6 PUSH1 0x40 MLOAD PUSH2 0x9EB SWAP2 SWAP1 PUSH2 0x151C JUMP JUMPDEST SWAP1 DUP2 MSTORE PUSH1 0x20 ADD PUSH1 0x40 MLOAD DUP1 SWAP2 SUB SWAP1 KECCAK256 PUSH1 0x0 DUP6 DUP2 MSTORE PUSH1 0x20 ADD SWAP1 DUP2 MSTORE PUSH1 0x20 ADD PUSH1 0x0 KECCAK256 DUP1 SLOAD SWAP1 POP DUP2 LT DUP1 ISZERO PUSH2 0xA1C JUMPI POP PUSH1 0x0 DUP3 GT JUMPDEST ISZERO PUSH2 0xCB8 JUMPI PUSH1 0x0 DUP3 PUSH1 0x2 DUP8 PUSH1 0x40 MLOAD PUSH2 0xA34 SWAP2 SWAP1 PUSH2 0x151C JUMP JUMPDEST SWAP1 DUP2 MSTORE PUSH1 0x20 ADD PUSH1 0x40 MLOAD DUP1 SWAP2 SUB SWAP1 KECCAK256 PUSH1 0x0 DUP8 DUP2 MSTORE PUSH1 0x20 ADD SWAP1 DUP2 MSTORE PUSH1 0x20 ADD PUSH1 0x0 KECCAK256 DUP4 DUP2 SLOAD DUP2 LT PUSH2 0xA65 JUMPI PUSH2 0xA64 PUSH2 0x1533 JUMP JUMPDEST JUMPDEST SWAP1 PUSH1 0x0 MSTORE PUSH1 0x20 PUSH1 0x0 KECCAK256 SWAP1 PUSH1 0x3 MUL ADD PUSH1 0x1 ADD SLOAD GT ISZERO PUSH2 0xA83 JUMPI DUP3 PUSH2 0xAD7 JUMP JUMPDEST PUSH1 0x2 DUP7 PUSH1 0x40 MLOAD PUSH2 0xA93 SWAP2 SWAP1 PUSH2 0x151C JUMP JUMPDEST SWAP1 DUP2 MSTORE PUSH1 0x20 ADD PUSH1 0x40 MLOAD DUP1 SWAP2 SUB SWAP1 KECCAK256 PUSH1 0x0 DUP7 DUP2 MSTORE PUSH1 0x20 ADD SWAP1 DUP2 MSTORE PUSH1 0x20 ADD PUSH1 0x0 KECCAK256 DUP3 DUP2 SLOAD DUP2 LT PUSH2 0xAC4 JUMPI PUSH2 0xAC3 PUSH2 0x1533 JUMP JUMPDEST JUMPDEST SWAP1 PUSH1 0x0 MSTORE PUSH1 0x20 PUSH1 0x0 KECCAK256 SWAP1 PUSH1 0x3 MUL ADD PUSH1 0x1 ADD SLOAD JUMPDEST SWAP1 POP DUP1 DUP4 PUSH2 0xAE5 SWAP2 SWAP1 PUSH2 0x1591 JUMP JUMPDEST SWAP3 POP DUP1 PUSH1 0x2 DUP8 PUSH1 0x40 MLOAD PUSH2 0xAF8 SWAP2 SWAP1 PUSH2 0x151C JUMP JUMPDEST SWAP1 DUP2 MSTORE PUSH1 0x20 ADD PUSH1 0x40 MLOAD DUP1 SWAP2 SUB SWAP1 KECCAK256 PUSH1 0x0 DUP8 DUP2 MSTORE PUSH1 0x20 ADD SWAP1 DUP2 MSTORE PUSH1 0x20 ADD PUSH1 0x0 KECCAK256 DUP4 DUP2 SLOAD DUP2 LT PUSH2 0xB29 JUMPI PUSH2 0xB28 PUSH2 0x1533 JUMP JUMPDEST JUMPDEST SWAP1 PUSH1 0x0 MSTORE PUSH1 0x20 PUSH1 0x0 KECCAK256 SWAP1 PUSH1 0x3 MUL ADD PUSH1 0x1 ADD PUSH1 0x0 DUP3 DUP3 SLOAD PUSH2 0xB49 SWAP2 SWAP1 PUSH2 0x1591 JUMP JUMPDEST SWAP3 POP POP DUP2 SWAP1 SSTORE POP DUP1 PUSH1 0x0 DUP1 CALLER PUSH20 0xFFFFFFFFFFFFFFFFFFFFFFFFFFFFFFFFFFFFFFFF AND PUSH20 0xFFFFFFFFFFFFFFFFFFFFFFFFFFFFFFFFFFFFFFFF AND DUP2 MSTORE PUSH1 0x20 ADD SWAP1 DUP2 MSTORE PUSH1 0x20 ADD PUSH1 0x0 KECCAK256 DUP8 PUSH1 0x40 MLOAD PUSH2 0xB9D SWAP2 SWAP1 PUSH2 0x151C JUMP JUMPDEST SWAP1 DUP2 MSTORE PUSH1 0x20 ADD PUSH1 0x40 MLOAD DUP1 SWAP2 SUB SWAP1 KECCAK256 PUSH1 0x0 DUP3 DUP3 SLOAD PUSH2 0xBBA SWAP2 SWAP1 PUSH2 0x15C5 JUMP JUMPDEST SWAP3 POP POP DUP2 SWAP1 SSTORE POP DUP1 PUSH1 0x0 DUP1 PUSH1 0x2 DUP10 PUSH1 0x40 MLOAD PUSH2 0xBD5 SWAP2 SWAP1 PUSH2 0x151C JUMP JUMPDEST SWAP1 DUP2 MSTORE PUSH1 0x20 ADD PUSH1 0x40 MLOAD DUP1 SWAP2 SUB SWAP1 KECCAK256 PUSH1 0x0 DUP10 DUP2 MSTORE PUSH1 0x20 ADD SWAP1 DUP2 MSTORE PUSH1 0x20 ADD PUSH1 0x0 KECCAK256 DUP6 DUP2 SLOAD DUP2 LT PUSH2 0xC06 JUMPI PUSH2 0xC05 PUSH2 0x1533 JUMP JUMPDEST JUMPDEST SWAP1 PUSH1 0x0 MSTORE PUSH1 0x20 PUSH1 0x0 KECCAK256 SWAP1 PUSH1 0x3 MUL ADD PUSH1 0x0 ADD PUSH1 0x0 SWAP1 SLOAD SWAP1 PUSH2 0x100 EXP SWAP1 DIV PUSH20 0xFFFFFFFFFFFFFFFFFFFFFFFFFFFFFFFFFFFFFFFF AND PUSH20 0xFFFFFFFFFFFFFFFFFFFFFFFFFFFFFFFFFFFFFFFF AND PUSH20 0xFFFFFFFFFFFFFFFFFFFFFFFFFFFFFFFFFFFFFFFF AND DUP2 MSTORE PUSH1 0x20 ADD SWAP1 DUP2 MSTORE PUSH1 0x20 ADD PUSH1 0x0 KECCAK256 DUP8 PUSH1 0x40 MLOAD PUSH2 0xC80 SWAP2 SWAP1 PUSH2 0x151C JUMP JUMPDEST SWAP1 DUP2 MSTORE PUSH1 0x20 ADD PUSH1 0x40 MLOAD DUP1 SWAP2 SUB SWAP1 KECCAK256 PUSH1 0x0 DUP3 DUP3 SLOAD PUSH2 0xC9D SWAP2 SWAP1 PUSH2 0x1591 JUMP JUMPDEST SWAP3 POP POP DUP2 SWAP1 SSTORE POP POP DUP1 DUP1 PUSH2 0xCB0 SWAP1 PUSH2 0x15F9 JUMP JUMPDEST SWAP2 POP POP PUSH2 0x9DB JUMP JUMPDEST POP PUSH1 0x1 DUP5 PUSH1 0x40 MLOAD PUSH2 0xCC9 SWAP2 SWAP1 PUSH2 0x151C JUMP JUMPDEST SWAP1 DUP2 MSTORE PUSH1 0x20 ADD PUSH1 0x40 MLOAD DUP1 SWAP2 SUB SWAP1 KECCAK256 PUSH1 0x0 DUP5 DUP2 MSTORE PUSH1 0x20 ADD SWAP1 DUP2 MSTORE PUSH1 0x20 ADD PUSH1 0x0 KECCAK256 PUSH1 0x40 MLOAD DUP1 PUSH1 0x60 ADD PUSH1 0x40 MSTORE DUP1 CALLER PUSH20 0xFFFFFFFFFFFFFFFFFFFFFFFFFFFFFFFFFFFFFFFF AND DUP2 MSTORE PUSH1 0x20 ADD DUP4 DUP2 MSTORE PUSH1 0x20 ADD TIMESTAMP DUP2 MSTORE POP SWAP1 DUP1 PUSH1 0x1 DUP2 SLOAD ADD DUP1 DUP3 SSTORE DUP1 SWAP2 POP POP PUSH1 0x1 SWAP1 SUB SWAP1 PUSH1 0x0 MSTORE PUSH1 0x20 PUSH1 0x0 KECCAK256 SWAP1 PUSH1 0x3 MUL ADD PUSH1 0x0 SWAP1 SWAP2 SWAP1 SWAP2 SWAP1 SWAP2 POP PUSH1 0x0 DUP3 ADD MLOAD DUP2 PUSH1 0x0 ADD PUSH1 0x0 PUSH2 0x100 EXP DUP2 SLOAD DUP2 PUSH20 0xFFFFFFFFFFFFFFFFFFFFFFFFFFFFFFFFFFFFFFFF MUL NOT AND SWAP1 DUP4 PUSH20 0xFFFFFFFFFFFFFFFFFFFFFFFFFFFFFFFFFFFFFFFF AND MUL OR SWAP1 SSTORE POP PUSH1 0x20 DUP3 ADD MLOAD DUP2 PUSH1 0x1 ADD SSTORE PUSH1 0x40 DUP3 ADD MLOAD DUP2 PUSH1 0x2 ADD SSTORE POP POP PUSH2 0xDD6 PUSH1 0x2 DUP6 PUSH1 0x40 MLOAD PUSH2 0xDB2 SWAP2 SWAP1 PUSH2 0x151C JUMP JUMPDEST SWAP1 DUP2 MSTORE PUSH1 0x20 ADD PUSH1 0x40 MLOAD DUP1 SWAP2 SUB SWAP1 KECCAK256 PUSH1 0x0 DUP6 DUP2 MSTORE PUSH1 0x20 ADD SWAP1 DUP2 MSTORE PUSH1 0x20 ADD PUSH1 0x0 KECCAK256 PUSH2 0xF3B JUMP JUMPDEST POP PUSH2 0xF36 JUMP JUMPDEST PUSH1 0x1 DUP4 PUSH1 0x40 MLOAD PUSH2 0xDEC SWAP2 SWAP1 PUSH2 0x151C JUMP JUMPDEST SWAP1 DUP2 MSTORE PUSH1 0x20 ADD PUSH1 0x40 MLOAD DUP1 SWAP2 SUB SWAP1 KECCAK256 PUSH1 0x0 DUP4 DUP2 MSTORE PUSH1 0x20 ADD SWAP1 DUP2 MSTORE PUSH1 0x20 ADD PUSH1 0x0 KECCAK256 PUSH1 0x40 MLOAD DUP1 PUSH1 0x60 ADD PUSH1 0x40 MSTORE DUP1 CALLER PUSH20 0xFFFFFFFFFFFFFFFFFFFFFFFFFFFFFFFFFFFFFFFF AND DUP2 MSTORE PUSH1 0x20 ADD DUP4 DUP2 MSTORE PUSH1 0x20 ADD TIMESTAMP DUP2 MSTORE POP SWAP1 DUP1 PUSH1 0x1 DUP2 SLOAD ADD DUP1 DUP3 SSTORE DUP1 SWAP2 POP POP PUSH1 0x1 SWAP1 SUB SWAP1 PUSH1 0x0 MSTORE PUSH1 0x20 PUSH1 0x0 KECCAK256 SWAP1 PUSH1 0x3 MUL ADD PUSH1 0x0 SWAP1 SWAP2 SWAP1 SWAP2 SWAP1 SWAP2 POP PUSH1 0x0 DUP3 ADD MLOAD DUP2 PUSH1 0x0 ADD PUSH1 0x0 PUSH2 0x100 EXP DUP2 SLOAD DUP2 PUSH20 0xFFFFFFFFFFFFFFFFFFFFFFFFFFFFFFFFFFFFFFFF MUL NOT AND SWAP1 DUP4 PUSH20 0xFFFFFFFFFFFFFFFFFFFFFFFFFFFFFFFFFFFFFFFF AND MUL OR SWAP1 SSTORE POP PUSH1 0x20 DUP3 ADD MLOAD DUP2 PUSH1 0x1 ADD SSTORE PUSH1 0x40 DUP3 ADD MLOAD DUP2 PUSH1 0x2 ADD SSTORE POP POP PUSH1 0x0 PUSH1 0x3 DUP5 PUSH1 0x40 MLOAD PUSH2 0xED4 SWAP2 SWAP1 PUSH2 0x151C JUMP JUMPDEST SWAP1 DUP2 MSTORE PUSH1 0x20 ADD PUSH1 0x40 MLOAD DUP1 SWAP2 SUB SWAP1 KECCAK256 SLOAD EQ DUP1 PUSH2 0xF0C JUMPI POP DUP2 PUSH1 0x3 DUP5 PUSH1 0x40 MLOAD PUSH2 0xEFB SWAP2 SWAP1 PUSH2 0x151C JUMP JUMPDEST SWAP1 DUP2 MSTORE PUSH1 0x20 ADD PUSH1 0x40 MLOAD DUP1 SWAP2 SUB SWAP1 KECCAK256 SLOAD LT JUMPDEST ISZERO PUSH2 0xF35 JUMPI DUP2 PUSH1 0x3 DUP5 PUSH1 0x40 MLOAD PUSH2 0xF22 SWAP2 SWAP1 PUSH2 0x151C JUMP JUMPDEST SWAP1 DUP2 MSTORE PUSH1 0x20 ADD PUSH1 0x40 MLOAD DUP1 SWAP2 SUB SWAP1 KECCAK256 DUP2 SWAP1 SSTORE POP JUMPDEST JUMPDEST POP POP POP JUMP JUMPDEST PUSH1 0x0 JUMPDEST DUP2 DUP1 SLOAD SWAP1 POP DUP2 LT ISZERO PUSH2 0x10D9 JUMPI PUSH1 0x0 DUP3 DUP3 DUP2 SLOAD DUP2 LT PUSH2 0xF5F JUMPI PUSH2 0xF5E PUSH2 0x1533 JUMP JUMPDEST JUMPDEST SWAP1 PUSH1 0x0 MSTORE PUSH1 0x20 PUSH1 0x0 KECCAK256 SWAP1 PUSH1 0x3 MUL ADD PUSH1 0x1 ADD SLOAD SUB PUSH2 0x10C5 JUMPI PUSH1 0x1 DUP3 DUP1 SLOAD SWAP1 POP PUSH2 0xF87 SWAP2 SWAP1 PUSH2 0x1591 JUMP JUMPDEST DUP2 LT ISZERO PUSH2 0x105F JUMPI DUP2 PUSH1 0x1 DUP4 DUP1 SLOAD SWAP1 POP PUSH2 0xFA0 SWAP2 SWAP1 PUSH2 0x1591 JUMP JUMPDEST DUP2 SLOAD DUP2 LT PUSH2 0xFB1 JUMPI PUSH2 0xFB0 PUSH2 0x1533 JUMP JUMPDEST JUMPDEST SWAP1 PUSH1 0x0 MSTORE PUSH1 0x20 PUSH1 0x0 KECCAK256 SWAP1 PUSH1 0x3 MUL ADD DUP3 DUP3 DUP2 SLOAD DUP2 LT PUSH2 0xFD2 JUMPI PUSH2 0xFD1 PUSH2 0x1533 JUMP JUMPDEST JUMPDEST SWAP1 PUSH1 0x0 MSTORE PUSH1 0x20 PUSH1 0x0 KECCAK256 SWAP1 PUSH1 0x3 MUL ADD PUSH1 0x0 DUP3 ADD PUSH1 0x0 SWAP1 SLOAD SWAP1 PUSH2 0x100 EXP SWAP1 DIV PUSH20 0xFFFFFFFFFFFFFFFFFFFFFFFFFFFFFFFFFFFFFFFF AND DUP2 PUSH1 0x0 ADD PUSH1 0x0 PUSH2 0x100 EXP DUP2 SLOAD DUP2 PUSH20 0xFFFFFFFFFFFFFFFFFFFFFFFFFFFFFFFFFFFFFFFF MUL NOT AND SWAP1 DUP4 PUSH20 0xFFFFFFFFFFFFFFFFFFFFFFFFFFFFFFFFFFFFFFFF AND MUL OR SWAP1 SSTORE POP PUSH1 0x1 DUP3 ADD SLOAD DUP2 PUSH1 0x1 ADD SSTORE PUSH1 0x2 DUP3 ADD SLOAD DUP2 PUSH1 0x2 ADD SSTORE SWAP1 POP POP JUMPDEST DUP2 DUP1 SLOAD DUP1 PUSH2 0x1070 JUMPI PUSH2 0x106F PUSH2 0x1641 JUMP JUMPDEST JUMPDEST PUSH1 0x1 SWAP1 SUB DUP2 DUP2 SWAP1 PUSH1 0x0 MSTORE PUSH1 0x20 PUSH1 0x0 KECCAK256 SWAP1 PUSH1 0x3 MUL ADD PUSH1 0x0 DUP1 DUP3 ADD PUSH1 0x0 PUSH2 0x100 EXP DUP2 SLOAD SWAP1 PUSH20 0xFFFFFFFFFFFFFFFFFFFFFFFFFFFFFFFFFFFFFFFF MUL NOT AND SWAP1 SSTORE PUSH1 0x1 DUP3 ADD PUSH1 0x0 SWAP1 SSTORE PUSH1 0x2 DUP3 ADD PUSH1 0x0 SWAP1 SSTORE POP POP SWAP1 SSTORE PUSH2 0x10D4 JUMP JUMPDEST DUP1 DUP1 PUSH2 0x10D0 SWAP1 PUSH2 0x15F9 JUMP JUMPDEST SWAP2 POP POP JUMPDEST PUSH2 0xF3E JUMP JUMPDEST POP POP JUMP JUMPDEST PUSH1 0x0 PUSH1 0x40 MLOAD SWAP1 POP SWAP1 JUMP JUMPDEST PUSH1 0x0 DUP1 REVERT JUMPDEST PUSH1 0x0 DUP1 REVERT JUMPDEST PUSH1 0x0 PUSH20 0xFFFFFFFFFFFFFFFFFFFFFFFFFFFFFFFFFFFFFFFF DUP3 AND SWAP1 POP SWAP2 SWAP1 POP JUMP JUMPDEST PUSH1 0x0 PUSH2 0x111C DUP3 PUSH2 0x10F1 JUMP JUMPDEST SWAP1 POP SWAP2 SWAP1 POP JUMP JUMPDEST PUSH2 0x112C DUP2 PUSH2 0x1111 JUMP JUMPDEST DUP2 EQ PUSH2 0x1137 JUMPI PUSH1 0x0 DUP1 REVERT JUMPDEST POP JUMP JUMPDEST PUSH1 0x0 DUP2 CALLDATALOAD SWAP1 POP PUSH2 0x1149 DUP2 PUSH2 0x1123 JUMP JUMPDEST SWAP3 SWAP2 POP POP JUMP JUMPDEST PUSH1 0x0 DUP1 REVERT JUMPDEST PUSH1 0x0 DUP1 REVERT JUMPDEST PUSH1 0x0 PUSH1 0x1F NOT PUSH1 0x1F DUP4 ADD AND SWAP1 POP SWAP2 SWAP1 POP JUMP JUMPDEST PUSH32 0x4E487B7100000000000000000000000000000000000000000000000000000000 PUSH1 0x0 MSTORE PUSH1 0x41 PUSH1 0x4 MSTORE PUSH1 0x24 PUSH1 0x0 REVERT JUMPDEST PUSH2 0x11A2 DUP3 PUSH2 0x1159 JUMP JUMPDEST DUP2 ADD DUP2 DUP2 LT PUSH8 0xFFFFFFFFFFFFFFFF DUP3 GT OR ISZERO PUSH2 0x11C1 JUMPI PUSH2 0x11C0 PUSH2 0x116A JUMP JUMPDEST JUMPDEST DUP1 PUSH1 0x40 MSTORE POP POP POP JUMP JUMPDEST PUSH1 0x0 PUSH2 0x11D4 PUSH2 0x10DD JUMP JUMPDEST SWAP1 POP PUSH2 0x11E0 DUP3 DUP3 PUSH2 0x1199 JUMP JUMPDEST SWAP2 SWAP1 POP JUMP JUMPDEST PUSH1 0x0 PUSH8 0xFFFFFFFFFFFFFFFF DUP3 GT ISZERO PUSH2 0x1200 JUMPI PUSH2 0x11FF PUSH2 0x116A JUMP JUMPDEST JUMPDEST PUSH2 0x1209 DUP3 PUSH2 0x1159 JUMP JUMPDEST SWAP1 POP PUSH1 0x20 DUP2 ADD SWAP1 POP SWAP2 SWAP1 POP JUMP JUMPDEST DUP3 DUP2 DUP4 CALLDATACOPY PUSH1 0x0 DUP4 DUP4 ADD MSTORE POP POP POP JUMP JUMPDEST PUSH1 0x0 PUSH2 0x1238 PUSH2 0x1233 DUP5 PUSH2 0x11E5 JUMP JUMPDEST PUSH2 0x11CA JUMP JUMPDEST SWAP1 POP DUP3 DUP2 MSTORE PUSH1 0x20 DUP2 ADD DUP5 DUP5 DUP5 ADD GT ISZERO PUSH2 0x1254 JUMPI PUSH2 0x1253 PUSH2 0x1154 JUMP JUMPDEST JUMPDEST PUSH2 0x125F DUP5 DUP3 DUP6 PUSH2 0x1216 JUMP JUMPDEST POP SWAP4 SWAP3 POP POP POP JUMP JUMPDEST PUSH1 0x0 DUP3 PUSH1 0x1F DUP4 ADD SLT PUSH2 0x127C JUMPI PUSH2 0x127B PUSH2 0x114F JUMP JUMPDEST JUMPDEST DUP2 CALLDATALOAD PUSH2 0x128C DUP5 DUP3 PUSH1 0x20 DUP7 ADD PUSH2 0x1225 JUMP JUMPDEST SWAP2 POP POP SWAP3 SWAP2 POP POP JUMP JUMPDEST PUSH1 0x0 DUP1 PUSH1 0x40 DUP4 DUP6 SUB SLT ISZERO PUSH2 0x12AC JUMPI PUSH2 0x12AB PUSH2 0x10E7 JUMP JUMPDEST JUMPDEST PUSH1 0x0 PUSH2 0x12BA DUP6 DUP3 DUP7 ADD PUSH2 0x113A JUMP JUMPDEST SWAP3 POP POP PUSH1 0x20 DUP4 ADD CALLDATALOAD PUSH8 0xFFFFFFFFFFFFFFFF DUP2 GT ISZERO PUSH2 0x12DB JUMPI PUSH2 0x12DA PUSH2 0x10EC JUMP JUMPDEST JUMPDEST PUSH2 0x12E7 DUP6 DUP3 DUP7 ADD PUSH2 0x1267 JUMP JUMPDEST SWAP2 POP POP SWAP3 POP SWAP3 SWAP1 POP JUMP JUMPDEST PUSH1 0x0 DUP2 SWAP1 POP SWAP2 SWAP1 POP JUMP JUMPDEST PUSH2 0x1304 DUP2 PUSH2 0x12F1 JUMP JUMPDEST DUP3 MSTORE POP POP JUMP JUMPDEST PUSH1 0x0 PUSH1 0x20 DUP3 ADD SWAP1 POP PUSH2 0x131F PUSH1 0x0 DUP4 ADD DUP5 PUSH2 0x12FB JUMP JUMPDEST SWAP3 SWAP2 POP POP JUMP JUMPDEST PUSH2 0x132E DUP2 PUSH2 0x12F1 JUMP JUMPDEST DUP2 EQ PUSH2 0x1339 JUMPI PUSH1 0x0 DUP1 REVERT JUMPDEST POP JUMP JUMPDEST PUSH1 0x0 DUP2 CALLDATALOAD SWAP1 POP PUSH2 0x134B DUP2 PUSH2 0x1325 JUMP JUMPDEST SWAP3 SWAP2 POP POP JUMP JUMPDEST PUSH1 0x0 DUP1 PUSH1 0x0 PUSH1 0x60 DUP5 DUP7 SUB SLT ISZERO PUSH2 0x136A JUMPI PUSH2 0x1369 PUSH2 0x10E7 JUMP JUMPDEST JUMPDEST PUSH1 0x0 DUP5 ADD CALLDATALOAD PUSH8 0xFFFFFFFFFFFFFFFF DUP2 GT ISZERO PUSH2 0x1388 JUMPI PUSH2 0x1387 PUSH2 0x10EC JUMP JUMPDEST JUMPDEST PUSH2 0x1394 DUP7 DUP3 DUP8 ADD PUSH2 0x1267 JUMP JUMPDEST SWAP4 POP POP PUSH1 0x20 PUSH2 0x13A5 DUP7 DUP3 DUP8 ADD PUSH2 0x133C JUMP JUMPDEST SWAP3 POP POP PUSH1 0x40 PUSH2 0x13B6 DUP7 DUP3 DUP8 ADD PUSH2 0x133C JUMP JUMPDEST SWAP2 POP POP SWAP3 POP SWAP3 POP SWAP3 JUMP JUMPDEST PUSH1 0x0 PUSH1 0x20 DUP3 DUP5 SUB SLT ISZERO PUSH2 0x13D6 JUMPI PUSH2 0x13D5 PUSH2 0x10E7 JUMP JUMPDEST JUMPDEST PUSH1 0x0 DUP3 ADD CALLDATALOAD PUSH8 0xFFFFFFFFFFFFFFFF DUP2 GT ISZERO PUSH2 0x13F4 JUMPI PUSH2 0x13F3 PUSH2 0x10EC JUMP JUMPDEST JUMPDEST PUSH2 0x1400 DUP5 DUP3 DUP6 ADD PUSH2 0x1267 JUMP JUMPDEST SWAP2 POP POP SWAP3 SWAP2 POP POP JUMP JUMPDEST PUSH2 0x1412 DUP2 PUSH2 0x1111 JUMP JUMPDEST DUP3 MSTORE POP POP JUMP JUMPDEST PUSH1 0x0 PUSH1 0x60 DUP3 ADD SWAP1 POP PUSH2 0x142D PUSH1 0x0 DUP4 ADD DUP7 PUSH2 0x1409 JUMP JUMPDEST PUSH2 0x143A PUSH1 0x20 DUP4 ADD DUP6 PUSH2 0x12FB JUMP JUMPDEST PUSH2 0x1447 PUSH1 0x40 DUP4 ADD DUP5 PUSH2 0x12FB JUMP JUMPDEST SWAP5 SWAP4 POP POP POP POP JUMP JUMPDEST PUSH1 0x0 DUP1 PUSH1 0x40 DUP4 DUP6 SUB SLT ISZERO PUSH2 0x1466 JUMPI PUSH2 0x1465 PUSH2 0x10E7 JUMP JUMPDEST JUMPDEST PUSH1 0x0 DUP4 ADD CALLDATALOAD PUSH8 0xFFFFFFFFFFFFFFFF DUP2 GT ISZERO PUSH2 0x1484 JUMPI PUSH2 0x1483 PUSH2 0x10EC JUMP JUMPDEST JUMPDEST PUSH2 0x1490 DUP6 DUP3 DUP7 ADD PUSH2 0x1267 JUMP JUMPDEST SWAP3 POP POP PUSH1 0x20 PUSH2 0x14A1 DUP6 DUP3 DUP7 ADD PUSH2 0x133C JUMP JUMPDEST SWAP2 POP POP SWAP3 POP SWAP3 SWAP1 POP JUMP JUMPDEST PUSH1 0x0 DUP2 MLOAD SWAP1 POP SWAP2 SWAP1 POP JUMP JUMPDEST PUSH1 0x0 DUP2 SWAP1 POP SWAP3 SWAP2 POP POP JUMP JUMPDEST PUSH1 0x0 JUMPDEST DUP4 DUP2 LT ISZERO PUSH2 0x14DF JUMPI DUP1 DUP3 ADD MLOAD DUP2 DUP5 ADD MSTORE PUSH1 0x20 DUP2 ADD SWAP1 POP PUSH2 0x14C4 JUMP JUMPDEST PUSH1 0x0 DUP5 DUP5 ADD MSTORE POP POP POP POP JUMP JUMPDEST PUSH1 0x0 PUSH2 0x14F6 DUP3 PUSH2 0x14AB JUMP JUMPDEST PUSH2 0x1500 DUP2 DUP6 PUSH2 0x14B6 JUMP JUMPDEST SWAP4 POP PUSH2 0x1510 DUP2 DUP6 PUSH1 0x20 DUP7 ADD PUSH2 0x14C1 JUMP JUMPDEST DUP1 DUP5 ADD SWAP2 POP POP SWAP3 SWAP2 POP POP JUMP JUMPDEST PUSH1 0x0 PUSH2 0x1528 DUP3 DUP5 PUSH2 0x14EB JUMP JUMPDEST SWAP2 POP DUP2 SWAP1 POP SWAP3 SWAP2 POP POP JUMP JUMPDEST PUSH32 0x4E487B7100000000000000000000000000000000000000000000000000000000 PUSH1 0x0 MSTORE PUSH1 0x32 PUSH1 0x4 MSTORE PUSH1 0x24 PUSH1 0x0 REVERT JUMPDEST PUSH32 0x4E487B7100000000000000000000000000000000000000000000000000000000 PUSH1 0x0 MSTORE PUSH1 0x11 PUSH1 0x4 MSTORE PUSH1 0x24 PUSH1 0x0 REVERT JUMPDEST PUSH1 0x0 PUSH2 0x159C DUP3 PUSH2 0x12F1 JUMP JUMPDEST SWAP2 POP PUSH2 0x15A7 DUP4 PUSH2 0x12F1 JUMP JUMPDEST SWAP3 POP DUP3 DUP3 SUB SWAP1 POP DUP2 DUP2 GT ISZERO PUSH2 0x15BF JUMPI PUSH2 0x15BE PUSH2 0x1562 JUMP JUMPDEST JUMPDEST SWAP3 SWAP2 POP POP JUMP JUMPDEST PUSH1 0x0 PUSH2 0x15D0 DUP3 PUSH2 0x12F1 JUMP JUMPDEST SWAP2 POP PUSH2 0x15DB DUP4 PUSH2 0x12F1 JUMP JUMPDEST SWAP3 POP DUP3 DUP3 ADD SWAP1 POP DUP1 DUP3 GT ISZERO PUSH2 0x15F3 JUMPI PUSH2 0x15F2 PUSH2 0x1562 JUMP JUMPDEST JUMPDEST SWAP3 SWAP2 POP POP JUMP JUMPDEST PUSH1 0x0 PUSH2 0x1604 DUP3 PUSH2 0x12F1 JUMP JUMPDEST SWAP2 POP PUSH32 0xFFFFFFFFFFFFFFFFFFFFFFFFFFFFFFFFFFFFFFFFFFFFFFFFFFFFFFFFFFFFFFFF DUP3 SUB PUSH2 0x1636 JUMPI PUSH2 0x1635 PUSH2 0x1562 JUMP JUMPDEST JUMPDEST PUSH1 0x1 DUP3 ADD SWAP1 POP SWAP2 SWAP1 POP JUMP JUMPDEST PUSH32 0x4E487B7100000000000000000000000000000000000000000000000000000000 PUSH1 0x0 MSTORE PUSH1 0x31 PUSH1 0x4 MSTORE PUSH1 0x24 PUSH1 0x0 REVERT INVALID LOG2 PUSH5 0x6970667358 0x22 SLT KECCAK256 PUSH10 0xC4E05D1F82530A47E49B 0x29 JUMP 0xE0 PUSH20 0xFEF0FC7A6878B59CE1BEFE9459A50FAB1F64736F PUSH13 0x63430008120033000000000000 "
				},
				"gasEstimates": {
					"creation": {
						"codeDepositCost": "1159600",
						"executionCost": "1207",
						"totalCost": "1160807"
					},
					"external": {
						"addStock(string,uint256)": "infinite",
						"balances(address,string)": "infinite",
						"buyOrders(string,uint256,uint256)": "infinite",
						"highestBuyPrice(string)": "infinite",
						"lowestSellPrice(string)": "infinite",
						"placeBuyOrder(string,uint256,uint256)": "infinite",
						"placeSellOrder(string,uint256,uint256)": "infinite",
						"sellOrders(string,uint256,uint256)": "infinite"
					},
					"internal": {
						"removeOrders(struct OrderBook.Order storage ref[] storage pointer)": "infinite"
					}
				},
				"methodIdentifiers": {
					"addStock(string,uint256)": "e6d0054c",
					"balances(address,string)": "05d01f50",
					"buyOrders(string,uint256,uint256)": "8a219535",
					"highestBuyPrice(string)": "5ac8a1e5",
					"lowestSellPrice(string)": "2c2e7e5c",
					"placeBuyOrder(string,uint256,uint256)": "f7c03b80",
					"placeSellOrder(string,uint256,uint256)": "225c3957",
					"sellOrders(string,uint256,uint256)": "b446b43e"
				}
			},
			"storageLayout": {
				"storage": [
					{
						"astId": 14,
						"contract": "testStock.sol:OrderBook",
						"label": "balances",
						"offset": 0,
						"slot": "0",
						"type": "t_mapping(t_address,t_mapping(t_string_memory_ptr,t_uint256))"
					},
					{
						"astId": 22,
						"contract": "testStock.sol:OrderBook",
						"label": "buyOrders",
						"offset": 0,
						"slot": "1",
						"type": "t_mapping(t_string_memory_ptr,t_mapping(t_uint256,t_array(t_struct(Order)8_storage)dyn_storage))"
					},
					{
						"astId": 30,
						"contract": "testStock.sol:OrderBook",
						"label": "sellOrders",
						"offset": 0,
						"slot": "2",
						"type": "t_mapping(t_string_memory_ptr,t_mapping(t_uint256,t_array(t_struct(Order)8_storage)dyn_storage))"
					},
					{
						"astId": 34,
						"contract": "testStock.sol:OrderBook",
						"label": "highestBuyPrice",
						"offset": 0,
						"slot": "3",
						"type": "t_mapping(t_string_memory_ptr,t_uint256)"
					},
					{
						"astId": 38,
						"contract": "testStock.sol:OrderBook",
						"label": "lowestSellPrice",
						"offset": 0,
						"slot": "4",
						"type": "t_mapping(t_string_memory_ptr,t_uint256)"
					}
				],
				"types": {
					"t_address": {
						"encoding": "inplace",
						"label": "address",
						"numberOfBytes": "20"
					},
					"t_array(t_struct(Order)8_storage)dyn_storage": {
						"base": "t_struct(Order)8_storage",
						"encoding": "dynamic_array",
						"label": "struct OrderBook.Order[]",
						"numberOfBytes": "32"
					},
					"t_mapping(t_address,t_mapping(t_string_memory_ptr,t_uint256))": {
						"encoding": "mapping",
						"key": "t_address",
						"label": "mapping(address => mapping(string => uint256))",
						"numberOfBytes": "32",
						"value": "t_mapping(t_string_memory_ptr,t_uint256)"
					},
					"t_mapping(t_string_memory_ptr,t_mapping(t_uint256,t_array(t_struct(Order)8_storage)dyn_storage))": {
						"encoding": "mapping",
						"key": "t_string_memory_ptr",
						"label": "mapping(string => mapping(uint256 => struct OrderBook.Order[]))",
						"numberOfBytes": "32",
						"value": "t_mapping(t_uint256,t_array(t_struct(Order)8_storage)dyn_storage)"
					},
					"t_mapping(t_string_memory_ptr,t_uint256)": {
						"encoding": "mapping",
						"key": "t_string_memory_ptr",
						"label": "mapping(string => uint256)",
						"numberOfBytes": "32",
						"value": "t_uint256"
					},
					"t_mapping(t_uint256,t_array(t_struct(Order)8_storage)dyn_storage)": {
						"encoding": "mapping",
						"key": "t_uint256",
						"label": "mapping(uint256 => struct OrderBook.Order[])",
						"numberOfBytes": "32",
						"value": "t_array(t_struct(Order)8_storage)dyn_storage"
					},
					"t_string_memory_ptr": {
						"encoding": "bytes",
						"label": "string",
						"numberOfBytes": "32"
					},
					"t_struct(Order)8_storage": {
						"encoding": "inplace",
						"label": "struct OrderBook.Order",
						"members": [
							{
								"astId": 3,
								"contract": "testStock.sol:OrderBook",
								"label": "trader",
								"offset": 0,
								"slot": "0",
								"type": "t_address"
							},
							{
								"astId": 5,
								"contract": "testStock.sol:OrderBook",
								"label": "quantity",
								"offset": 0,
								"slot": "1",
								"type": "t_uint256"
							},
							{
								"astId": 7,
								"contract": "testStock.sol:OrderBook",
								"label": "timeStamp",
								"offset": 0,
								"slot": "2",
								"type": "t_uint256"
							}
						],
						"numberOfBytes": "96"
					},
					"t_uint256": {
						"encoding": "inplace",
						"label": "uint256",
						"numberOfBytes": "32"
					}
				}
			},
			"userdoc": {
				"kind": "user",
				"methods": {},
				"version": 1
			}
		}
	}
}