{
	"StockTrading.sol": {
		"StockTrading": {
			"abi": [
				{
					"inputs": [
						{
							"internalType": "string",
							"name": "stockName",
							"type": "string"
						},
						{
							"internalType": "uint256",
							"name": "price",
							"type": "uint256"
						},
						{
							"internalType": "uint256",
							"name": "quantity",
							"type": "uint256"
						}
					],
					"name": "addStock",
					"outputs": [],
					"stateMutability": "nonpayable",
					"type": "function"
				},
				{
					"inputs": [
						{
							"internalType": "address",
							"name": "",
							"type": "address"
						},
						{
							"internalType": "string",
							"name": "",
							"type": "string"
						}
					],
					"name": "balances",
					"outputs": [
						{
							"internalType": "uint256",
							"name": "",
							"type": "uint256"
						}
					],
					"stateMutability": "view",
					"type": "function"
				},
				{
					"inputs": [
						{
							"internalType": "string",
							"name": "",
							"type": "string"
						},
						{
							"internalType": "uint256",
							"name": "",
							"type": "uint256"
						}
					],
					"name": "buyOrderBook",
					"outputs": [
						{
							"internalType": "address",
							"name": "trader",
							"type": "address"
						},
						{
							"internalType": "uint256",
							"name": "price",
							"type": "uint256"
						},
						{
							"internalType": "uint256",
							"name": "quantity",
							"type": "uint256"
						}
					],
					"stateMutability": "view",
					"type": "function"
				},
				{
					"inputs": [
						{
							"internalType": "string",
							"name": "stockName",
							"type": "string"
						},
						{
							"internalType": "uint256",
							"name": "price",
							"type": "uint256"
						},
						{
							"internalType": "uint256",
							"name": "quantity",
							"type": "uint256"
						}
					],
					"name": "placeBuyOrder",
					"outputs": [],
					"stateMutability": "payable",
					"type": "function"
				},
				{
					"inputs": [
						{
							"internalType": "string",
							"name": "stockName",
							"type": "string"
						},
						{
							"internalType": "uint256",
							"name": "price",
							"type": "uint256"
						},
						{
							"internalType": "uint256",
							"name": "quantity",
							"type": "uint256"
						}
					],
					"name": "placeSellOrder",
					"outputs": [],
					"stateMutability": "payable",
					"type": "function"
				},
				{
					"inputs": [
						{
							"internalType": "string",
							"name": "",
							"type": "string"
						},
						{
							"internalType": "uint256",
							"name": "",
							"type": "uint256"
						}
					],
					"name": "sellOrderBook",
					"outputs": [
						{
							"internalType": "address",
							"name": "trader",
							"type": "address"
						},
						{
							"internalType": "uint256",
							"name": "price",
							"type": "uint256"
						},
						{
							"internalType": "uint256",
							"name": "quantity",
							"type": "uint256"
						}
					],
					"stateMutability": "view",
					"type": "function"
				},
				{
					"inputs": [
						{
							"internalType": "string",
							"name": "",
							"type": "string"
						}
					],
					"name": "stocks",
					"outputs": [
						{
							"internalType": "uint256",
							"name": "price",
							"type": "uint256"
						},
						{
							"internalType": "uint256",
							"name": "quantity",
							"type": "uint256"
						}
					],
					"stateMutability": "view",
					"type": "function"
				},
				{
					"inputs": [
						{
							"internalType": "string",
							"name": "stockName",
							"type": "string"
						},
						{
							"internalType": "uint256",
							"name": "price",
							"type": "uint256"
						}
					],
					"name": "updateStockPrice",
					"outputs": [],
					"stateMutability": "nonpayable",
					"type": "function"
				}
			],
			"devdoc": {
				"kind": "dev",
				"methods": {},
				"version": 1
			},
			"evm": {
				"assembly": "    /* \"StockTrading.sol\":61:4418  contract StockTrading {... */\n  mstore(0x40, 0x80)\n  callvalue\n  dup1\n  iszero\n  tag_1\n  jumpi\n  0x00\n  dup1\n  revert\ntag_1:\n  pop\n  dataSize(sub_0)\n  dup1\n  dataOffset(sub_0)\n  0x00\n  codecopy\n  0x00\n  return\nstop\n\nsub_0: assembly {\n        /* \"StockTrading.sol\":61:4418  contract StockTrading {... */\n      mstore(0x40, 0x80)\n      jumpi(tag_1, lt(calldatasize, 0x04))\n      shr(0xe0, calldataload(0x00))\n      dup1\n      0xa96620e1\n      gt\n      tag_10\n      jumpi\n      dup1\n      0xa96620e1\n      eq\n      tag_6\n      jumpi\n      dup1\n      0xcf1f9be4\n      eq\n      tag_7\n      jumpi\n      dup1\n      0xda52c6ff\n      eq\n      tag_8\n      jumpi\n      dup1\n      0xf7c03b80\n      eq\n      tag_9\n      jumpi\n      jump(tag_1)\n    tag_10:\n      dup1\n      0x05d01f50\n      eq\n      tag_2\n      jumpi\n      dup1\n      0x225c3957\n      eq\n      tag_3\n      jumpi\n      dup1\n      0x2efae33e\n      eq\n      tag_4\n      jumpi\n      dup1\n      0x47f32e5d\n      eq\n      tag_5\n      jumpi\n    tag_1:\n      0x00\n      dup1\n      revert\n        /* \"StockTrading.sol\":321:379  mapping(address=>mapping(string=>uint256)) public balances */\n    tag_2:\n      callvalue\n      dup1\n      iszero\n      tag_11\n      jumpi\n      0x00\n      dup1\n      revert\n    tag_11:\n      pop\n      tag_12\n      0x04\n      dup1\n      calldatasize\n      sub\n      dup2\n      add\n      swap1\n      tag_13\n      swap2\n      swap1\n      tag_14\n      jump\t// in\n    tag_13:\n      tag_15\n      jump\t// in\n    tag_12:\n      mload(0x40)\n      tag_16\n      swap2\n      swap1\n      tag_17\n      jump\t// in\n    tag_16:\n      mload(0x40)\n      dup1\n      swap2\n      sub\n      swap1\n      return\n        /* \"StockTrading.sol\":1864:3650  function placeSellOrder(string memory stockName, uint256 price, uint256 quantity) public payable{... */\n    tag_3:\n      tag_18\n      0x04\n      dup1\n      calldatasize\n      sub\n      dup2\n      add\n      swap1\n      tag_19\n      swap2\n      swap1\n      tag_20\n      jump\t// in\n    tag_19:\n      tag_21\n      jump\t// in\n    tag_18:\n      stop\n        /* \"StockTrading.sol\":278:314  mapping(string=>Stock) public stocks */\n    tag_4:\n      callvalue\n      dup1\n      iszero\n      tag_22\n      jumpi\n      0x00\n      dup1\n      revert\n    tag_22:\n      pop\n      tag_23\n      0x04\n      dup1\n      calldatasize\n      sub\n      dup2\n      add\n      swap1\n      tag_24\n      swap2\n      swap1\n      tag_25\n      jump\t// in\n    tag_24:\n      tag_26\n      jump\t// in\n    tag_23:\n      mload(0x40)\n      tag_27\n      swap3\n      swap2\n      swap1\n      tag_28\n      jump\t// in\n    tag_27:\n      mload(0x40)\n      dup1\n      swap2\n      sub\n      swap1\n      return\n        /* \"StockTrading.sol\":4224:4415  function updateStockPrice(string memory stockName, uint256 price) public {... */\n    tag_5:\n      callvalue\n      dup1\n      iszero\n      tag_29\n      jumpi\n      0x00\n      dup1\n      revert\n    tag_29:\n      pop\n      tag_30\n      0x04\n      dup1\n      calldatasize\n      sub\n      dup2\n      add\n      swap1\n      tag_31\n      swap2\n      swap1\n      tag_32\n      jump\t// in\n    tag_31:\n      tag_33\n      jump\t// in\n    tag_30:\n      stop\n        /* \"StockTrading.sol\":441:488  mapping(string => Order[]) public sellOrderBook */\n    tag_6:\n      callvalue\n      dup1\n      iszero\n      tag_34\n      jumpi\n      0x00\n      dup1\n      revert\n    tag_34:\n      pop\n      tag_35\n      0x04\n      dup1\n      calldatasize\n      sub\n      dup2\n      add\n      swap1\n      tag_36\n      swap2\n      swap1\n      tag_32\n      jump\t// in\n    tag_36:\n      tag_37\n      jump\t// in\n    tag_35:\n      mload(0x40)\n      tag_38\n      swap4\n      swap3\n      swap2\n      swap1\n      tag_39\n      jump\t// in\n    tag_38:\n      mload(0x40)\n      dup1\n      swap2\n      sub\n      swap1\n      return\n        /* \"StockTrading.sol\":388:434  mapping(string => Order[]) public buyOrderBook */\n    tag_7:\n      callvalue\n      dup1\n      iszero\n      tag_40\n      jumpi\n      0x00\n      dup1\n      revert\n    tag_40:\n      pop\n      tag_41\n      0x04\n      dup1\n      calldatasize\n      sub\n      dup2\n      add\n      swap1\n      tag_42\n      swap2\n      swap1\n      tag_32\n      jump\t// in\n    tag_42:\n      tag_43\n      jump\t// in\n    tag_41:\n      mload(0x40)\n      tag_44\n      swap4\n      swap3\n      swap2\n      swap1\n      tag_39\n      jump\t// in\n    tag_44:\n      mload(0x40)\n      dup1\n      swap2\n      sub\n      swap1\n      return\n        /* \"StockTrading.sol\":3875:4216  function addStock(string memory stockName, uint256 price, uint256 quantity) public {... */\n    tag_8:\n      callvalue\n      dup1\n      iszero\n      tag_45\n      jumpi\n      0x00\n      dup1\n      revert\n    tag_45:\n      pop\n      tag_46\n      0x04\n      dup1\n      calldatasize\n      sub\n      dup2\n      add\n      swap1\n      tag_47\n      swap2\n      swap1\n      tag_20\n      jump\t// in\n    tag_47:\n      tag_48\n      jump\t// in\n    tag_46:\n      stop\n        /* \"StockTrading.sol\":499:1856  function placeBuyOrder(string memory stockName, uint256 price, uint256 quantity) public payable{... */\n    tag_9:\n      tag_49\n      0x04\n      dup1\n      calldatasize\n      sub\n      dup2\n      add\n      swap1\n      tag_50\n      swap2\n      swap1\n      tag_20\n      jump\t// in\n    tag_50:\n      tag_51\n      jump\t// in\n    tag_49:\n      stop\n        /* \"StockTrading.sol\":321:379  mapping(address=>mapping(string=>uint256)) public balances */\n    tag_15:\n      mstore(0x20, 0x01)\n      dup2\n      0x00\n      mstore\n      keccak256(0x00, 0x40)\n      dup2\n      dup1\n      mload\n      0x20\n      dup2\n      add\n      dup3\n      add\n      dup1\n      mload\n      dup5\n      dup3\n      mstore\n      0x20\n      dup4\n      add\n      0x20\n      dup6\n      add\n      keccak256\n      dup2\n      dup4\n      mstore\n      dup1\n      swap6\n      pop\n      pop\n      pop\n      pop\n      pop\n      pop\n      0x00\n      swap2\n      pop\n      swap2\n      pop\n      pop\n      sload\n      dup2\n      jump\t// out\n        /* \"StockTrading.sol\":1864:3650  function placeSellOrder(string memory stockName, uint256 price, uint256 quantity) public payable{... */\n    tag_21:\n        /* \"StockTrading.sol\":1973:1998  Order[] storage buyOrders */\n      0x00\n        /* \"StockTrading.sol\":2001:2013  buyOrderBook */\n      0x02\n        /* \"StockTrading.sol\":2014:2023  stockName */\n      dup5\n        /* \"StockTrading.sol\":2001:2024  buyOrderBook[stockName] */\n      mload(0x40)\n      tag_53\n      swap2\n      swap1\n      tag_54\n      jump\t// in\n    tag_53:\n      swap1\n      dup2\n      mstore\n      0x20\n      add\n      mload(0x40)\n      dup1\n      swap2\n      sub\n      swap1\n      keccak256\n        /* \"StockTrading.sol\":1973:2024  Order[] storage buyOrders = buyOrderBook[stockName] */\n      swap1\n      pop\n        /* \"StockTrading.sol\":2037:2062  uint256 remainingQuantity */\n      0x00\n        /* \"StockTrading.sol\":2065:2073  quantity */\n      dup3\n        /* \"StockTrading.sol\":2037:2073  uint256 remainingQuantity = quantity */\n      swap1\n      pop\n        /* \"StockTrading.sol\":2089:2098  uint256 i */\n      0x00\n        /* \"StockTrading.sol\":2084:3372  for (uint256 i = 0; i < buyOrders.length && remainingQuantity > 0; i++) {... */\n    tag_55:\n        /* \"StockTrading.sol\":2108:2117  buyOrders */\n      dup3\n        /* \"StockTrading.sol\":2108:2124  buyOrders.length */\n      dup1\n      sload\n      swap1\n      pop\n        /* \"StockTrading.sol\":2104:2105  i */\n      dup2\n        /* \"StockTrading.sol\":2104:2124  i < buyOrders.length */\n      lt\n        /* \"StockTrading.sol\":2104:2149  i < buyOrders.length && remainingQuantity > 0 */\n      dup1\n      iszero\n      tag_58\n      jumpi\n      pop\n        /* \"StockTrading.sol\":2148:2149  0 */\n      0x00\n        /* \"StockTrading.sol\":2128:2145  remainingQuantity */\n      dup3\n        /* \"StockTrading.sol\":2128:2149  remainingQuantity > 0 */\n      gt\n        /* \"StockTrading.sol\":2104:2149  i < buyOrders.length && remainingQuantity > 0 */\n    tag_58:\n        /* \"StockTrading.sol\":2084:3372  for (uint256 i = 0; i < buyOrders.length && remainingQuantity > 0; i++) {... */\n      iszero\n      tag_56\n      jumpi\n        /* \"StockTrading.sol\":2171:2193  Order storage buyOrder */\n      0x00\n        /* \"StockTrading.sol\":2196:2205  buyOrders */\n      dup4\n        /* \"StockTrading.sol\":2206:2207  i */\n      dup3\n        /* \"StockTrading.sol\":2196:2208  buyOrders[i] */\n      dup2\n      sload\n      dup2\n      lt\n      tag_59\n      jumpi\n      tag_60\n      tag_61\n      jump\t// in\n    tag_60:\n    tag_59:\n      swap1\n      0x00\n      mstore\n      keccak256(0x00, 0x20)\n      swap1\n      0x03\n      mul\n      add\n        /* \"StockTrading.sol\":2171:2208  Order storage buyOrder = buyOrders[i] */\n      swap1\n      pop\n        /* \"StockTrading.sol\":2245:2250  price */\n      dup6\n        /* \"StockTrading.sol\":2227:2235  buyOrder */\n      dup2\n        /* \"StockTrading.sol\":2227:2241  buyOrder.price */\n      0x01\n      add\n      sload\n        /* \"StockTrading.sol\":2227:2250  buyOrder.price >= price */\n      lt\n        /* \"StockTrading.sol\":2223:3361  if (buyOrder.price >= price) {... */\n      tag_63\n      jumpi\n        /* \"StockTrading.sol\":2349:2371  uint256 quantityToSell */\n      0x00\n        /* \"StockTrading.sol\":2394:2411  remainingQuantity */\n      dup4\n        /* \"StockTrading.sol\":2374:2382  buyOrder */\n      dup3\n        /* \"StockTrading.sol\":2374:2391  buyOrder.quantity */\n      0x02\n      add\n      sload\n        /* \"StockTrading.sol\":2374:2411  buyOrder.quantity < remainingQuantity */\n      lt\n        /* \"StockTrading.sol\":2374:2451  buyOrder.quantity < remainingQuantity ? buyOrder.quantity : remainingQuantity */\n      tag_64\n      jumpi\n        /* \"StockTrading.sol\":2434:2451  remainingQuantity */\n      dup4\n        /* \"StockTrading.sol\":2374:2451  buyOrder.quantity < remainingQuantity ? buyOrder.quantity : remainingQuantity */\n      jump(tag_65)\n    tag_64:\n        /* \"StockTrading.sol\":2414:2422  buyOrder */\n      dup2\n        /* \"StockTrading.sol\":2414:2431  buyOrder.quantity */\n      0x02\n      add\n      sload\n        /* \"StockTrading.sol\":2374:2451  buyOrder.quantity < remainingQuantity ? buyOrder.quantity : remainingQuantity */\n    tag_65:\n        /* \"StockTrading.sol\":2349:2451  uint256 quantityToSell = buyOrder.quantity < remainingQuantity ? buyOrder.quantity : remainingQuantity */\n      swap1\n      pop\n        /* \"StockTrading.sol\":2728:2742  quantityToSell */\n      dup1\n        /* \"StockTrading.sol\":2707:2742  remainingQuantity -= quantityToSell */\n      dup5\n      tag_66\n      swap2\n      swap1\n      tag_67\n      jump\t// in\n    tag_66:\n      swap4\n      pop\n        /* \"StockTrading.sol\":2782:2796  quantityToSell */\n      dup1\n        /* \"StockTrading.sol\":2761:2769  buyOrder */\n      dup3\n        /* \"StockTrading.sol\":2761:2778  buyOrder.quantity */\n      0x02\n      add\n      0x00\n        /* \"StockTrading.sol\":2761:2796  buyOrder.quantity -= quantityToSell */\n      dup3\n      dup3\n      sload\n      tag_68\n      swap2\n      swap1\n      tag_67\n      jump\t// in\n    tag_68:\n      swap3\n      pop\n      pop\n      dup2\n      swap1\n      sstore\n      pop\n        /* \"StockTrading.sol\":2852:2866  quantityToSell */\n      dup1\n        /* \"StockTrading.sol\":2817:2825  balances */\n      0x01\n        /* \"StockTrading.sol\":2817:2837  balances[msg.sender] */\n      0x00\n        /* \"StockTrading.sol\":2826:2836  msg.sender */\n      caller\n        /* \"StockTrading.sol\":2817:2837  balances[msg.sender] */\n      0xffffffffffffffffffffffffffffffffffffffff\n      and\n      0xffffffffffffffffffffffffffffffffffffffff\n      and\n      dup2\n      mstore\n      0x20\n      add\n      swap1\n      dup2\n      mstore\n      0x20\n      add\n      0x00\n      keccak256\n        /* \"StockTrading.sol\":2838:2847  stockName */\n      dup10\n        /* \"StockTrading.sol\":2817:2848  balances[msg.sender][stockName] */\n      mload(0x40)\n      tag_69\n      swap2\n      swap1\n      tag_54\n      jump\t// in\n    tag_69:\n      swap1\n      dup2\n      mstore\n      0x20\n      add\n      mload(0x40)\n      dup1\n      swap2\n      sub\n      swap1\n      keccak256\n      0x00\n        /* \"StockTrading.sol\":2817:2866  balances[msg.sender][stockName] -= quantityToSell */\n      dup3\n      dup3\n      sload\n      tag_70\n      swap2\n      swap1\n      tag_67\n      jump\t// in\n    tag_70:\n      swap3\n      pop\n      pop\n      dup2\n      swap1\n      sstore\n      pop\n        /* \"StockTrading.sol\":2925:2939  quantityToSell */\n      dup1\n        /* \"StockTrading.sol\":2885:2893  balances */\n      0x01\n        /* \"StockTrading.sol\":2885:2910  balances[buyOrder.trader] */\n      0x00\n        /* \"StockTrading.sol\":2894:2902  buyOrder */\n      dup5\n        /* \"StockTrading.sol\":2894:2909  buyOrder.trader */\n      0x00\n      add\n      0x00\n      swap1\n      sload\n      swap1\n      0x0100\n      exp\n      swap1\n      div\n      0xffffffffffffffffffffffffffffffffffffffff\n      and\n        /* \"StockTrading.sol\":2885:2910  balances[buyOrder.trader] */\n      0xffffffffffffffffffffffffffffffffffffffff\n      and\n      0xffffffffffffffffffffffffffffffffffffffff\n      and\n      dup2\n      mstore\n      0x20\n      add\n      swap1\n      dup2\n      mstore\n      0x20\n      add\n      0x00\n      keccak256\n        /* \"StockTrading.sol\":2911:2920  stockName */\n      dup10\n        /* \"StockTrading.sol\":2885:2921  balances[buyOrder.trader][stockName] */\n      mload(0x40)\n      tag_71\n      swap2\n      swap1\n      tag_54\n      jump\t// in\n    tag_71:\n      swap1\n      dup2\n      mstore\n      0x20\n      add\n      mload(0x40)\n      dup1\n      swap2\n      sub\n      swap1\n      keccak256\n      0x00\n        /* \"StockTrading.sol\":2885:2939  balances[buyOrder.trader][stockName] -= quantityToSell */\n      dup3\n      dup3\n      sload\n      tag_72\n      swap2\n      swap1\n      tag_67\n      jump\t// in\n    tag_72:\n      swap3\n      pop\n      pop\n      dup2\n      swap1\n      sstore\n      pop\n        /* \"StockTrading.sol\":3062:3063  0 */\n      0x00\n        /* \"StockTrading.sol\":3041:3049  buyOrder */\n      dup3\n        /* \"StockTrading.sol\":3041:3058  buyOrder.quantity */\n      0x02\n      add\n      sload\n        /* \"StockTrading.sol\":3041:3063  buyOrder.quantity == 0 */\n      sub\n        /* \"StockTrading.sol\":3037:3346  if (buyOrder.quantity == 0) {... */\n      tag_73\n      jumpi\n        /* \"StockTrading.sol\":3199:3223  removeOrder(buyOrders,i) */\n      tag_74\n        /* \"StockTrading.sol\":3211:3220  buyOrders */\n      dup6\n        /* \"StockTrading.sol\":3221:3222  i */\n      dup5\n        /* \"StockTrading.sol\":3199:3210  removeOrder */\n      tag_75\n        /* \"StockTrading.sol\":3199:3223  removeOrder(buyOrders,i) */\n      jump\t// in\n    tag_74:\n        /* \"StockTrading.sol\":3246:3249  i-- */\n      dup3\n      dup1\n      tag_76\n      swap1\n      tag_77\n      jump\t// in\n    tag_76:\n      swap4\n      pop\n      pop\n        /* \"StockTrading.sol\":3037:3346  if (buyOrder.quantity == 0) {... */\n    tag_73:\n        /* \"StockTrading.sol\":2252:3361  {... */\n      pop\n        /* \"StockTrading.sol\":2223:3361  if (buyOrder.price >= price) {... */\n    tag_63:\n        /* \"StockTrading.sol\":2156:3372  {... */\n      pop\n        /* \"StockTrading.sol\":2151:2154  i++ */\n      dup1\n      dup1\n      tag_78\n      swap1\n      tag_79\n      jump\t// in\n    tag_78:\n      swap2\n      pop\n      pop\n        /* \"StockTrading.sol\":2084:3372  for (uint256 i = 0; i < buyOrders.length && remainingQuantity > 0; i++) {... */\n      jump(tag_55)\n    tag_56:\n      pop\n        /* \"StockTrading.sol\":3482:3483  0 */\n      0x00\n        /* \"StockTrading.sol\":3462:3479  remainingQuantity */\n      dup2\n        /* \"StockTrading.sol\":3462:3483  remainingQuantity > 0 */\n      gt\n        /* \"StockTrading.sol\":3458:3641  if (remainingQuantity > 0) {... */\n      iszero\n      tag_80\n      jumpi\n        /* \"StockTrading.sol\":3500:3525  Order memory newSellOrder */\n      0x00\n        /* \"StockTrading.sol\":3528:3571  Order(msg.sender, price, remainingQuantity) */\n      mload(0x40)\n      dup1\n      0x60\n      add\n      0x40\n      mstore\n      dup1\n        /* \"StockTrading.sol\":3534:3544  msg.sender */\n      caller\n        /* \"StockTrading.sol\":3528:3571  Order(msg.sender, price, remainingQuantity) */\n      0xffffffffffffffffffffffffffffffffffffffff\n      and\n      dup2\n      mstore\n      0x20\n      add\n        /* \"StockTrading.sol\":3546:3551  price */\n      dup7\n        /* \"StockTrading.sol\":3528:3571  Order(msg.sender, price, remainingQuantity) */\n      dup2\n      mstore\n      0x20\n      add\n        /* \"StockTrading.sol\":3553:3570  remainingQuantity */\n      dup4\n        /* \"StockTrading.sol\":3528:3571  Order(msg.sender, price, remainingQuantity) */\n      dup2\n      mstore\n      pop\n        /* \"StockTrading.sol\":3500:3571  Order memory newSellOrder = Order(msg.sender, price, remainingQuantity) */\n      swap1\n      pop\n        /* \"StockTrading.sol\":3586:3599  sellOrderBook */\n      0x03\n        /* \"StockTrading.sol\":3600:3609  stockName */\n      dup7\n        /* \"StockTrading.sol\":3586:3610  sellOrderBook[stockName] */\n      mload(0x40)\n      tag_81\n      swap2\n      swap1\n      tag_54\n      jump\t// in\n    tag_81:\n      swap1\n      dup2\n      mstore\n      0x20\n      add\n      mload(0x40)\n      dup1\n      swap2\n      sub\n      swap1\n      keccak256\n        /* \"StockTrading.sol\":3616:3628  newSellOrder */\n      dup2\n        /* \"StockTrading.sol\":3586:3629  sellOrderBook[stockName].push(newSellOrder) */\n      swap1\n      dup1\n      0x01\n      dup2\n      sload\n      add\n      dup1\n      dup3\n      sstore\n      dup1\n      swap2\n      pop\n      pop\n      0x01\n      swap1\n      sub\n      swap1\n      0x00\n      mstore\n      keccak256(0x00, 0x20)\n      swap1\n      0x03\n      mul\n      add\n      0x00\n      swap1\n      swap2\n      swap1\n      swap2\n      swap1\n      swap2\n      pop\n      0x00\n      dup3\n      add\n      mload\n      dup2\n      0x00\n      add\n      exp(0x0100, 0x00)\n      dup2\n      sload\n      dup2\n      0xffffffffffffffffffffffffffffffffffffffff\n      mul\n      not\n      and\n      swap1\n      dup4\n      0xffffffffffffffffffffffffffffffffffffffff\n      and\n      mul\n      or\n      swap1\n      sstore\n      pop\n      0x20\n      dup3\n      add\n      mload\n      dup2\n      0x01\n      add\n      sstore\n      0x40\n      dup3\n      add\n      mload\n      dup2\n      0x02\n      add\n      sstore\n      pop\n      pop\n        /* \"StockTrading.sol\":3485:3641  {... */\n      pop\n        /* \"StockTrading.sol\":3458:3641  if (remainingQuantity > 0) {... */\n    tag_80:\n        /* \"StockTrading.sol\":1960:3650  {... */\n      pop\n      pop\n        /* \"StockTrading.sol\":1864:3650  function placeSellOrder(string memory stockName, uint256 price, uint256 quantity) public payable{... */\n      pop\n      pop\n      pop\n      jump\t// out\n        /* \"StockTrading.sol\":278:314  mapping(string=>Stock) public stocks */\n    tag_26:\n      0x00\n      dup2\n      dup1\n      mload\n      0x20\n      dup2\n      add\n      dup3\n      add\n      dup1\n      mload\n      dup5\n      dup3\n      mstore\n      0x20\n      dup4\n      add\n      0x20\n      dup6\n      add\n      keccak256\n      dup2\n      dup4\n      mstore\n      dup1\n      swap6\n      pop\n      pop\n      pop\n      pop\n      pop\n      pop\n      0x00\n      swap2\n      pop\n      swap1\n      pop\n      dup1\n      0x00\n      add\n      sload\n      swap1\n      dup1\n      0x01\n      add\n      sload\n      swap1\n      pop\n      dup3\n      jump\t// out\n        /* \"StockTrading.sol\":4224:4415  function updateStockPrice(string memory stockName, uint256 price) public {... */\n    tag_33:\n        /* \"StockTrading.sol\":4342:4343  0 */\n      0x00\n        /* \"StockTrading.sol\":4316:4322  stocks */\n      dup1\n        /* \"StockTrading.sol\":4323:4332  stockName */\n      dup4\n        /* \"StockTrading.sol\":4316:4333  stocks[stockName] */\n      mload(0x40)\n      tag_84\n      swap2\n      swap1\n      tag_54\n      jump\t// in\n    tag_84:\n      swap1\n      dup2\n      mstore\n      0x20\n      add\n      mload(0x40)\n      dup1\n      swap2\n      sub\n      swap1\n      keccak256\n        /* \"StockTrading.sol\":4316:4339  stocks[stockName].price */\n      0x00\n      add\n      sload\n        /* \"StockTrading.sol\":4316:4343  stocks[stockName].price > 0 */\n      gt\n        /* \"StockTrading.sol\":4308:4363  require(stocks[stockName].price > 0, \"Stock not dound\") */\n      tag_85\n      jumpi\n      mload(0x40)\n      0x08c379a000000000000000000000000000000000000000000000000000000000\n      dup2\n      mstore\n      0x04\n      add\n      tag_86\n      swap1\n      tag_87\n      jump\t// in\n    tag_86:\n      mload(0x40)\n      dup1\n      swap2\n      sub\n      swap1\n      revert\n    tag_85:\n        /* \"StockTrading.sol\":4402:4407  price */\n      dup1\n        /* \"StockTrading.sol\":4376:4382  stocks */\n      0x00\n        /* \"StockTrading.sol\":4383:4392  stockName */\n      dup4\n        /* \"StockTrading.sol\":4376:4393  stocks[stockName] */\n      mload(0x40)\n      tag_88\n      swap2\n      swap1\n      tag_54\n      jump\t// in\n    tag_88:\n      swap1\n      dup2\n      mstore\n      0x20\n      add\n      mload(0x40)\n      dup1\n      swap2\n      sub\n      swap1\n      keccak256\n        /* \"StockTrading.sol\":4376:4399  stocks[stockName].price */\n      0x00\n      add\n        /* \"StockTrading.sol\":4376:4407  stocks[stockName].price = price */\n      dup2\n      swap1\n      sstore\n      pop\n        /* \"StockTrading.sol\":4224:4415  function updateStockPrice(string memory stockName, uint256 price) public {... */\n      pop\n      pop\n      jump\t// out\n        /* \"StockTrading.sol\":441:488  mapping(string => Order[]) public sellOrderBook */\n    tag_37:\n      0x03\n      dup3\n      dup1\n      mload\n      0x20\n      dup2\n      add\n      dup3\n      add\n      dup1\n      mload\n      dup5\n      dup3\n      mstore\n      0x20\n      dup4\n      add\n      0x20\n      dup6\n      add\n      keccak256\n      dup2\n      dup4\n      mstore\n      dup1\n      swap6\n      pop\n      pop\n      pop\n      pop\n      pop\n      pop\n      dup2\n      dup2\n      sload\n      dup2\n      lt\n      tag_89\n      jumpi\n      0x00\n      dup1\n      revert\n    tag_89:\n      swap1\n      0x00\n      mstore\n      keccak256(0x00, 0x20)\n      swap1\n      0x03\n      mul\n      add\n      0x00\n      swap2\n      pop\n      swap2\n      pop\n      pop\n      dup1\n      0x00\n      add\n      0x00\n      swap1\n      sload\n      swap1\n      0x0100\n      exp\n      swap1\n      div\n      0xffffffffffffffffffffffffffffffffffffffff\n      and\n      swap1\n      dup1\n      0x01\n      add\n      sload\n      swap1\n      dup1\n      0x02\n      add\n      sload\n      swap1\n      pop\n      dup4\n      jump\t// out\n        /* \"StockTrading.sol\":388:434  mapping(string => Order[]) public buyOrderBook */\n    tag_43:\n      0x02\n      dup3\n      dup1\n      mload\n      0x20\n      dup2\n      add\n      dup3\n      add\n      dup1\n      mload\n      dup5\n      dup3\n      mstore\n      0x20\n      dup4\n      add\n      0x20\n      dup6\n      add\n      keccak256\n      dup2\n      dup4\n      mstore\n      dup1\n      swap6\n      pop\n      pop\n      pop\n      pop\n      pop\n      pop\n      dup2\n      dup2\n      sload\n      dup2\n      lt\n      tag_91\n      jumpi\n      0x00\n      dup1\n      revert\n    tag_91:\n      swap1\n      0x00\n      mstore\n      keccak256(0x00, 0x20)\n      swap1\n      0x03\n      mul\n      add\n      0x00\n      swap2\n      pop\n      swap2\n      pop\n      pop\n      dup1\n      0x00\n      add\n      0x00\n      swap1\n      sload\n      swap1\n      0x0100\n      exp\n      swap1\n      div\n      0xffffffffffffffffffffffffffffffffffffffff\n      and\n      swap1\n      dup1\n      0x01\n      add\n      sload\n      swap1\n      dup1\n      0x02\n      add\n      sload\n      swap1\n      pop\n      dup4\n      jump\t// out\n        /* \"StockTrading.sol\":3875:4216  function addStock(string memory stockName, uint256 price, uint256 quantity) public {... */\n    tag_48:\n        /* \"StockTrading.sol\":4004:4005  0 */\n      0x00\n        /* \"StockTrading.sol\":3977:3983  stocks */\n      dup1\n        /* \"StockTrading.sol\":3984:3993  stockName */\n      dup5\n        /* \"StockTrading.sol\":3977:3994  stocks[stockName] */\n      mload(0x40)\n      tag_94\n      swap2\n      swap1\n      tag_54\n      jump\t// in\n    tag_94:\n      swap1\n      dup2\n      mstore\n      0x20\n      add\n      mload(0x40)\n      dup1\n      swap2\n      sub\n      swap1\n      keccak256\n        /* \"StockTrading.sol\":3977:4000  stocks[stockName].price */\n      0x00\n      add\n      sload\n        /* \"StockTrading.sol\":3977:4005  stocks[stockName].price == 0 */\n      eq\n        /* \"StockTrading.sol\":3969:4030  require(stocks[stockName].price == 0, \"Stock already exists\") */\n      tag_95\n      jumpi\n      mload(0x40)\n      0x08c379a000000000000000000000000000000000000000000000000000000000\n      dup2\n      mstore\n      0x04\n      add\n      tag_96\n      swap1\n      tag_97\n      jump\t// in\n    tag_96:\n      mload(0x40)\n      dup1\n      swap2\n      sub\n      swap1\n      revert\n    tag_95:\n        /* \"StockTrading.sol\":4063:4085  Stock(price, quantity) */\n      mload(0x40)\n      dup1\n      0x40\n      add\n      0x40\n      mstore\n      dup1\n        /* \"StockTrading.sol\":4069:4074  price */\n      dup4\n        /* \"StockTrading.sol\":4063:4085  Stock(price, quantity) */\n      dup2\n      mstore\n      0x20\n      add\n        /* \"StockTrading.sol\":4076:4084  quantity */\n      dup3\n        /* \"StockTrading.sol\":4063:4085  Stock(price, quantity) */\n      dup2\n      mstore\n      pop\n        /* \"StockTrading.sol\":4043:4049  stocks */\n      0x00\n        /* \"StockTrading.sol\":4050:4059  stockName */\n      dup5\n        /* \"StockTrading.sol\":4043:4060  stocks[stockName] */\n      mload(0x40)\n      tag_98\n      swap2\n      swap1\n      tag_54\n      jump\t// in\n    tag_98:\n      swap1\n      dup2\n      mstore\n      0x20\n      add\n      mload(0x40)\n      dup1\n      swap2\n      sub\n      swap1\n      keccak256\n        /* \"StockTrading.sol\":4043:4085  stocks[stockName] = Stock(price, quantity) */\n      0x00\n      dup3\n      add\n      mload\n      dup2\n      0x00\n      add\n      sstore\n      0x20\n      dup3\n      add\n      mload\n      dup2\n      0x01\n      add\n      sstore\n      swap1\n      pop\n      pop\n        /* \"StockTrading.sol\":4098:4120  Order memory sellOrder */\n      0x00\n        /* \"StockTrading.sol\":4123:4157  Order(msg.sender, price, quantity) */\n      mload(0x40)\n      dup1\n      0x60\n      add\n      0x40\n      mstore\n      dup1\n        /* \"StockTrading.sol\":4129:4139  msg.sender */\n      caller\n        /* \"StockTrading.sol\":4123:4157  Order(msg.sender, price, quantity) */\n      0xffffffffffffffffffffffffffffffffffffffff\n      and\n      dup2\n      mstore\n      0x20\n      add\n        /* \"StockTrading.sol\":4141:4146  price */\n      dup5\n        /* \"StockTrading.sol\":4123:4157  Order(msg.sender, price, quantity) */\n      dup2\n      mstore\n      0x20\n      add\n        /* \"StockTrading.sol\":4148:4156  quantity */\n      dup4\n        /* \"StockTrading.sol\":4123:4157  Order(msg.sender, price, quantity) */\n      dup2\n      mstore\n      pop\n        /* \"StockTrading.sol\":4098:4157  Order memory sellOrder = Order(msg.sender, price, quantity) */\n      swap1\n      pop\n        /* \"StockTrading.sol\":4168:4181  sellOrderBook */\n      0x03\n        /* \"StockTrading.sol\":4182:4191  stockName */\n      dup5\n        /* \"StockTrading.sol\":4168:4192  sellOrderBook[stockName] */\n      mload(0x40)\n      tag_99\n      swap2\n      swap1\n      tag_54\n      jump\t// in\n    tag_99:\n      swap1\n      dup2\n      mstore\n      0x20\n      add\n      mload(0x40)\n      dup1\n      swap2\n      sub\n      swap1\n      keccak256\n        /* \"StockTrading.sol\":4198:4207  sellOrder */\n      dup2\n        /* \"StockTrading.sol\":4168:4208  sellOrderBook[stockName].push(sellOrder) */\n      swap1\n      dup1\n      0x01\n      dup2\n      sload\n      add\n      dup1\n      dup3\n      sstore\n      dup1\n      swap2\n      pop\n      pop\n      0x01\n      swap1\n      sub\n      swap1\n      0x00\n      mstore\n      keccak256(0x00, 0x20)\n      swap1\n      0x03\n      mul\n      add\n      0x00\n      swap1\n      swap2\n      swap1\n      swap2\n      swap1\n      swap2\n      pop\n      0x00\n      dup3\n      add\n      mload\n      dup2\n      0x00\n      add\n      exp(0x0100, 0x00)\n      dup2\n      sload\n      dup2\n      0xffffffffffffffffffffffffffffffffffffffff\n      mul\n      not\n      and\n      swap1\n      dup4\n      0xffffffffffffffffffffffffffffffffffffffff\n      and\n      mul\n      or\n      swap1\n      sstore\n      pop\n      0x20\n      dup3\n      add\n      mload\n      dup2\n      0x01\n      add\n      sstore\n      0x40\n      dup3\n      add\n      mload\n      dup2\n      0x02\n      add\n      sstore\n      pop\n      pop\n        /* \"StockTrading.sol\":3958:4216  {... */\n      pop\n        /* \"StockTrading.sol\":3875:4216  function addStock(string memory stockName, uint256 price, uint256 quantity) public {... */\n      pop\n      pop\n      pop\n      jump\t// out\n        /* \"StockTrading.sol\":499:1856  function placeBuyOrder(string memory stockName, uint256 price, uint256 quantity) public payable{... */\n    tag_51:\n        /* \"StockTrading.sol\":607:633  Order[] storage sellOrders */\n      0x00\n        /* \"StockTrading.sol\":636:649  sellOrderBook */\n      0x03\n        /* \"StockTrading.sol\":650:659  stockName */\n      dup5\n        /* \"StockTrading.sol\":636:660  sellOrderBook[stockName] */\n      mload(0x40)\n      tag_102\n      swap2\n      swap1\n      tag_54\n      jump\t// in\n    tag_102:\n      swap1\n      dup2\n      mstore\n      0x20\n      add\n      mload(0x40)\n      dup1\n      swap2\n      sub\n      swap1\n      keccak256\n        /* \"StockTrading.sol\":607:660  Order[] storage sellOrders = sellOrderBook[stockName] */\n      swap1\n      pop\n        /* \"StockTrading.sol\":673:698  uint256 remainingQuantity */\n      0x00\n        /* \"StockTrading.sol\":701:709  quantity */\n      dup3\n        /* \"StockTrading.sol\":673:709  uint256 remainingQuantity = quantity */\n      swap1\n      pop\n        /* \"StockTrading.sol\":724:733  uint256 i */\n      0x00\n        /* \"StockTrading.sol\":720:1656  for(uint256 i = 0; i < sellOrders.length && remainingQuantity > 0; i++) {... */\n    tag_103:\n        /* \"StockTrading.sol\":743:753  sellOrders */\n      dup3\n        /* \"StockTrading.sol\":743:760  sellOrders.length */\n      dup1\n      sload\n      swap1\n      pop\n        /* \"StockTrading.sol\":739:740  i */\n      dup2\n        /* \"StockTrading.sol\":739:760  i < sellOrders.length */\n      lt\n        /* \"StockTrading.sol\":739:785  i < sellOrders.length && remainingQuantity > 0 */\n      dup1\n      iszero\n      tag_106\n      jumpi\n      pop\n        /* \"StockTrading.sol\":784:785  0 */\n      0x00\n        /* \"StockTrading.sol\":764:781  remainingQuantity */\n      dup3\n        /* \"StockTrading.sol\":764:785  remainingQuantity > 0 */\n      gt\n        /* \"StockTrading.sol\":739:785  i < sellOrders.length && remainingQuantity > 0 */\n    tag_106:\n        /* \"StockTrading.sol\":720:1656  for(uint256 i = 0; i < sellOrders.length && remainingQuantity > 0; i++) {... */\n      iszero\n      tag_104\n      jumpi\n        /* \"StockTrading.sol\":807:830  Order storage sellOrder */\n      0x00\n        /* \"StockTrading.sol\":833:843  sellOrders */\n      dup4\n        /* \"StockTrading.sol\":844:845  i */\n      dup3\n        /* \"StockTrading.sol\":833:846  sellOrders[i] */\n      dup2\n      sload\n      dup2\n      lt\n      tag_107\n      jumpi\n      tag_108\n      tag_61\n      jump\t// in\n    tag_108:\n    tag_107:\n      swap1\n      0x00\n      mstore\n      keccak256(0x00, 0x20)\n      swap1\n      0x03\n      mul\n      add\n        /* \"StockTrading.sol\":807:846  Order storage sellOrder = sellOrders[i] */\n      swap1\n      pop\n        /* \"StockTrading.sol\":883:888  price */\n      dup6\n        /* \"StockTrading.sol\":864:873  sellOrder */\n      dup2\n        /* \"StockTrading.sol\":864:879  sellOrder.price */\n      0x01\n      add\n      sload\n        /* \"StockTrading.sol\":864:888  sellOrder.price <= price */\n      gt\n        /* \"StockTrading.sol\":861:1645  if(sellOrder.price <= price) {... */\n      tag_110\n      jumpi\n        /* \"StockTrading.sol\":909:930  uint256 quantityToBuy */\n      0x00\n        /* \"StockTrading.sol\":954:971  remainingQuantity */\n      dup4\n        /* \"StockTrading.sol\":933:942  sellOrder */\n      dup3\n        /* \"StockTrading.sol\":933:951  sellOrder.quantity */\n      0x02\n      add\n      sload\n        /* \"StockTrading.sol\":933:971  sellOrder.quantity < remainingQuantity */\n      lt\n        /* \"StockTrading.sol\":933:1012  sellOrder.quantity < remainingQuantity ? sellOrder.quantity : remainingQuantity */\n      tag_111\n      jumpi\n        /* \"StockTrading.sol\":995:1012  remainingQuantity */\n      dup4\n        /* \"StockTrading.sol\":933:1012  sellOrder.quantity < remainingQuantity ? sellOrder.quantity : remainingQuantity */\n      jump(tag_112)\n    tag_111:\n        /* \"StockTrading.sol\":974:983  sellOrder */\n      dup2\n        /* \"StockTrading.sol\":974:992  sellOrder.quantity */\n      0x02\n      add\n      sload\n        /* \"StockTrading.sol\":933:1012  sellOrder.quantity < remainingQuantity ? sellOrder.quantity : remainingQuantity */\n    tag_112:\n        /* \"StockTrading.sol\":909:1012  uint256 quantityToBuy = sellOrder.quantity < remainingQuantity ? sellOrder.quantity : remainingQuantity */\n      swap1\n      pop\n        /* \"StockTrading.sol\":1054:1067  quantityToBuy */\n      dup1\n        /* \"StockTrading.sol\":1033:1067  remainingQuantity -= quantityToBuy */\n      dup5\n      tag_113\n      swap2\n      swap1\n      tag_67\n      jump\t// in\n    tag_113:\n      swap4\n      pop\n        /* \"StockTrading.sol\":1108:1121  quantityToBuy */\n      dup1\n        /* \"StockTrading.sol\":1086:1095  sellOrder */\n      dup3\n        /* \"StockTrading.sol\":1086:1104  sellOrder.quantity */\n      0x02\n      add\n      0x00\n        /* \"StockTrading.sol\":1086:1121  sellOrder.quantity -= quantityToBuy */\n      dup3\n      dup3\n      sload\n      tag_114\n      swap2\n      swap1\n      tag_67\n      jump\t// in\n    tag_114:\n      swap3\n      pop\n      pop\n      dup2\n      swap1\n      sstore\n      pop\n        /* \"StockTrading.sol\":1195:1208  quantityToBuy */\n      dup1\n        /* \"StockTrading.sol\":1160:1168  balances */\n      0x01\n        /* \"StockTrading.sol\":1160:1180  balances[msg.sender] */\n      0x00\n        /* \"StockTrading.sol\":1169:1179  msg.sender */\n      caller\n        /* \"StockTrading.sol\":1160:1180  balances[msg.sender] */\n      0xffffffffffffffffffffffffffffffffffffffff\n      and\n      0xffffffffffffffffffffffffffffffffffffffff\n      and\n      dup2\n      mstore\n      0x20\n      add\n      swap1\n      dup2\n      mstore\n      0x20\n      add\n      0x00\n      keccak256\n        /* \"StockTrading.sol\":1181:1190  stockName */\n      dup10\n        /* \"StockTrading.sol\":1160:1191  balances[msg.sender][stockName] */\n      mload(0x40)\n      tag_115\n      swap2\n      swap1\n      tag_54\n      jump\t// in\n    tag_115:\n      swap1\n      dup2\n      mstore\n      0x20\n      add\n      mload(0x40)\n      dup1\n      swap2\n      sub\n      swap1\n      keccak256\n      0x00\n        /* \"StockTrading.sol\":1160:1208  balances[msg.sender][stockName] += quantityToBuy */\n      dup3\n      dup3\n      sload\n      tag_116\n      swap2\n      swap1\n      tag_117\n      jump\t// in\n    tag_116:\n      swap3\n      pop\n      pop\n      dup2\n      swap1\n      sstore\n      pop\n        /* \"StockTrading.sol\":1268:1281  quantityToBuy */\n      dup1\n        /* \"StockTrading.sol\":1227:1235  balances */\n      0x01\n        /* \"StockTrading.sol\":1227:1253  balances[sellOrder.trader] */\n      0x00\n        /* \"StockTrading.sol\":1236:1245  sellOrder */\n      dup5\n        /* \"StockTrading.sol\":1236:1252  sellOrder.trader */\n      0x00\n      add\n      0x00\n      swap1\n      sload\n      swap1\n      0x0100\n      exp\n      swap1\n      div\n      0xffffffffffffffffffffffffffffffffffffffff\n      and\n        /* \"StockTrading.sol\":1227:1253  balances[sellOrder.trader] */\n      0xffffffffffffffffffffffffffffffffffffffff\n      and\n      0xffffffffffffffffffffffffffffffffffffffff\n      and\n      dup2\n      mstore\n      0x20\n      add\n      swap1\n      dup2\n      mstore\n      0x20\n      add\n      0x00\n      keccak256\n        /* \"StockTrading.sol\":1254:1263  stockName */\n      dup10\n        /* \"StockTrading.sol\":1227:1264  balances[sellOrder.trader][stockName] */\n      mload(0x40)\n      tag_118\n      swap2\n      swap1\n      tag_54\n      jump\t// in\n    tag_118:\n      swap1\n      dup2\n      mstore\n      0x20\n      add\n      mload(0x40)\n      dup1\n      swap2\n      sub\n      swap1\n      keccak256\n      0x00\n        /* \"StockTrading.sol\":1227:1281  balances[sellOrder.trader][stockName] -= quantityToBuy */\n      dup3\n      dup3\n      sload\n      tag_119\n      swap2\n      swap1\n      tag_67\n      jump\t// in\n    tag_119:\n      swap3\n      pop\n      pop\n      dup2\n      swap1\n      sstore\n      pop\n        /* \"StockTrading.sol\":1327:1328  0 */\n      0x00\n        /* \"StockTrading.sol\":1305:1314  sellOrder */\n      dup3\n        /* \"StockTrading.sol\":1305:1323  sellOrder.quantity */\n      0x02\n      add\n      sload\n        /* \"StockTrading.sol\":1305:1328  sellOrder.quantity == 0 */\n      sub\n        /* \"StockTrading.sol\":1302:1630  if(sellOrder.quantity == 0) {... */\n      tag_120\n      jumpi\n        /* \"StockTrading.sol\":1520:1545  removeOrder(sellOrders,i) */\n      tag_121\n        /* \"StockTrading.sol\":1532:1542  sellOrders */\n      dup6\n        /* \"StockTrading.sol\":1543:1544  i */\n      dup5\n        /* \"StockTrading.sol\":1520:1531  removeOrder */\n      tag_75\n        /* \"StockTrading.sol\":1520:1545  removeOrder(sellOrders,i) */\n      jump\t// in\n    tag_121:\n        /* \"StockTrading.sol\":1568:1578  sellOrders */\n      dup5\n        /* \"StockTrading.sol\":1568:1584  sellOrders.pop() */\n      dup1\n      sload\n      dup1\n      tag_122\n      jumpi\n      tag_123\n      tag_124\n      jump\t// in\n    tag_123:\n    tag_122:\n      0x01\n      swap1\n      sub\n      dup2\n      dup2\n      swap1\n      0x00\n      mstore\n      keccak256(0x00, 0x20)\n      swap1\n      0x03\n      mul\n      add\n      0x00\n      dup1\n      dup3\n      add\n      exp(0x0100, 0x00)\n      dup2\n      sload\n      swap1\n      0xffffffffffffffffffffffffffffffffffffffff\n      mul\n      not\n      and\n      swap1\n      sstore\n      0x01\n      dup3\n      add\n      0x00\n      swap1\n      sstore\n      0x02\n      dup3\n      add\n      0x00\n      swap1\n      sstore\n      pop\n      pop\n      swap1\n      sstore\n        /* \"StockTrading.sol\":1607:1610  i-- */\n      dup3\n      dup1\n      tag_126\n      swap1\n      tag_77\n      jump\t// in\n    tag_126:\n      swap4\n      pop\n      pop\n        /* \"StockTrading.sol\":1302:1630  if(sellOrder.quantity == 0) {... */\n    tag_120:\n        /* \"StockTrading.sol\":890:1645  {... */\n      pop\n        /* \"StockTrading.sol\":861:1645  if(sellOrder.price <= price) {... */\n    tag_110:\n        /* \"StockTrading.sol\":792:1656  {... */\n      pop\n        /* \"StockTrading.sol\":787:790  i++ */\n      dup1\n      dup1\n      tag_127\n      swap1\n      tag_79\n      jump\t// in\n    tag_127:\n      swap2\n      pop\n      pop\n        /* \"StockTrading.sol\":720:1656  for(uint256 i = 0; i < sellOrders.length && remainingQuantity > 0; i++) {... */\n      jump(tag_103)\n    tag_104:\n      pop\n        /* \"StockTrading.sol\":1691:1692  0 */\n      0x00\n        /* \"StockTrading.sol\":1671:1688  remainingQuantity */\n      dup2\n        /* \"StockTrading.sol\":1671:1692  remainingQuantity > 0 */\n      gt\n        /* \"StockTrading.sol\":1668:1847  if(remainingQuantity > 0) {... */\n      iszero\n      tag_128\n      jumpi\n        /* \"StockTrading.sol\":1709:1733  Order memory newBuyOrder */\n      0x00\n        /* \"StockTrading.sol\":1736:1779  Order(msg.sender, price, remainingQuantity) */\n      mload(0x40)\n      dup1\n      0x60\n      add\n      0x40\n      mstore\n      dup1\n        /* \"StockTrading.sol\":1742:1752  msg.sender */\n      caller\n        /* \"StockTrading.sol\":1736:1779  Order(msg.sender, price, remainingQuantity) */\n      0xffffffffffffffffffffffffffffffffffffffff\n      and\n      dup2\n      mstore\n      0x20\n      add\n        /* \"StockTrading.sol\":1754:1759  price */\n      dup7\n        /* \"StockTrading.sol\":1736:1779  Order(msg.sender, price, remainingQuantity) */\n      dup2\n      mstore\n      0x20\n      add\n        /* \"StockTrading.sol\":1761:1778  remainingQuantity */\n      dup4\n        /* \"StockTrading.sol\":1736:1779  Order(msg.sender, price, remainingQuantity) */\n      dup2\n      mstore\n      pop\n        /* \"StockTrading.sol\":1709:1779  Order memory newBuyOrder = Order(msg.sender, price, remainingQuantity) */\n      swap1\n      pop\n        /* \"StockTrading.sol\":1794:1806  buyOrderBook */\n      0x02\n        /* \"StockTrading.sol\":1807:1816  stockName */\n      dup7\n        /* \"StockTrading.sol\":1794:1817  buyOrderBook[stockName] */\n      mload(0x40)\n      tag_129\n      swap2\n      swap1\n      tag_54\n      jump\t// in\n    tag_129:\n      swap1\n      dup2\n      mstore\n      0x20\n      add\n      mload(0x40)\n      dup1\n      swap2\n      sub\n      swap1\n      keccak256\n        /* \"StockTrading.sol\":1823:1834  newBuyOrder */\n      dup2\n        /* \"StockTrading.sol\":1794:1835  buyOrderBook[stockName].push(newBuyOrder) */\n      swap1\n      dup1\n      0x01\n      dup2\n      sload\n      add\n      dup1\n      dup3\n      sstore\n      dup1\n      swap2\n      pop\n      pop\n      0x01\n      swap1\n      sub\n      swap1\n      0x00\n      mstore\n      keccak256(0x00, 0x20)\n      swap1\n      0x03\n      mul\n      add\n      0x00\n      swap1\n      swap2\n      swap1\n      swap2\n      swap1\n      swap2\n      pop\n      0x00\n      dup3\n      add\n      mload\n      dup2\n      0x00\n      add\n      exp(0x0100, 0x00)\n      dup2\n      sload\n      dup2\n      0xffffffffffffffffffffffffffffffffffffffff\n      mul\n      not\n      and\n      swap1\n      dup4\n      0xffffffffffffffffffffffffffffffffffffffff\n      and\n      mul\n      or\n      swap1\n      sstore\n      pop\n      0x20\n      dup3\n      add\n      mload\n      dup2\n      0x01\n      add\n      sstore\n      0x40\n      dup3\n      add\n      mload\n      dup2\n      0x02\n      add\n      sstore\n      pop\n      pop\n        /* \"StockTrading.sol\":1694:1847  {... */\n      pop\n        /* \"StockTrading.sol\":1668:1847  if(remainingQuantity > 0) {... */\n    tag_128:\n        /* \"StockTrading.sol\":594:1856  {... */\n      pop\n      pop\n        /* \"StockTrading.sol\":499:1856  function placeBuyOrder(string memory stockName, uint256 price, uint256 quantity) public payable{... */\n      pop\n      pop\n      pop\n      jump\t// out\n        /* \"StockTrading.sol\":3658:3867  function removeOrder(Order[] storage orders, uint256 index) internal {... */\n    tag_75:\n        /* \"StockTrading.sol\":3766:3767  1 */\n      0x01\n        /* \"StockTrading.sol\":3750:3756  orders */\n      dup3\n        /* \"StockTrading.sol\":3750:3763  orders.length */\n      dup1\n      sload\n      swap1\n      pop\n        /* \"StockTrading.sol\":3750:3767  orders.length - 1 */\n      tag_132\n      swap2\n      swap1\n      tag_67\n      jump\t// in\n    tag_132:\n        /* \"StockTrading.sol\":3742:3747  index */\n      dup2\n        /* \"StockTrading.sol\":3742:3767  index < orders.length - 1 */\n      lt\n        /* \"StockTrading.sol\":3738:3837  if (index < orders.length - 1) {... */\n      iszero\n      tag_133\n      jumpi\n        /* \"StockTrading.sol\":3800:3806  orders */\n      dup2\n        /* \"StockTrading.sol\":3823:3824  1 */\n      0x01\n        /* \"StockTrading.sol\":3807:3813  orders */\n      dup4\n        /* \"StockTrading.sol\":3807:3820  orders.length */\n      dup1\n      sload\n      swap1\n      pop\n        /* \"StockTrading.sol\":3807:3824  orders.length - 1 */\n      tag_134\n      swap2\n      swap1\n      tag_67\n      jump\t// in\n    tag_134:\n        /* \"StockTrading.sol\":3800:3825  orders[orders.length - 1] */\n      dup2\n      sload\n      dup2\n      lt\n      tag_135\n      jumpi\n      tag_136\n      tag_61\n      jump\t// in\n    tag_136:\n    tag_135:\n      swap1\n      0x00\n      mstore\n      keccak256(0x00, 0x20)\n      swap1\n      0x03\n      mul\n      add\n        /* \"StockTrading.sol\":3784:3790  orders */\n      dup3\n        /* \"StockTrading.sol\":3791:3796  index */\n      dup3\n        /* \"StockTrading.sol\":3784:3797  orders[index] */\n      dup2\n      sload\n      dup2\n      lt\n      tag_138\n      jumpi\n      tag_139\n      tag_61\n      jump\t// in\n    tag_139:\n    tag_138:\n      swap1\n      0x00\n      mstore\n      keccak256(0x00, 0x20)\n      swap1\n      0x03\n      mul\n      add\n        /* \"StockTrading.sol\":3784:3825  orders[index] = orders[orders.length - 1] */\n      0x00\n      dup3\n      add\n      0x00\n      swap1\n      sload\n      swap1\n      0x0100\n      exp\n      swap1\n      div\n      0xffffffffffffffffffffffffffffffffffffffff\n      and\n      dup2\n      0x00\n      add\n      exp(0x0100, 0x00)\n      dup2\n      sload\n      dup2\n      0xffffffffffffffffffffffffffffffffffffffff\n      mul\n      not\n      and\n      swap1\n      dup4\n      0xffffffffffffffffffffffffffffffffffffffff\n      and\n      mul\n      or\n      swap1\n      sstore\n      pop\n      0x01\n      dup3\n      add\n      sload\n      dup2\n      0x01\n      add\n      sstore\n      0x02\n      dup3\n      add\n      sload\n      dup2\n      0x02\n      add\n      sstore\n      swap1\n      pop\n      pop\n        /* \"StockTrading.sol\":3738:3837  if (index < orders.length - 1) {... */\n    tag_133:\n        /* \"StockTrading.sol\":3847:3853  orders */\n      dup2\n        /* \"StockTrading.sol\":3847:3859  orders.pop() */\n      dup1\n      sload\n      dup1\n      tag_141\n      jumpi\n      tag_142\n      tag_124\n      jump\t// in\n    tag_142:\n    tag_141:\n      0x01\n      swap1\n      sub\n      dup2\n      dup2\n      swap1\n      0x00\n      mstore\n      keccak256(0x00, 0x20)\n      swap1\n      0x03\n      mul\n      add\n      0x00\n      dup1\n      dup3\n      add\n      exp(0x0100, 0x00)\n      dup2\n      sload\n      swap1\n      0xffffffffffffffffffffffffffffffffffffffff\n      mul\n      not\n      and\n      swap1\n      sstore\n      0x01\n      dup3\n      add\n      0x00\n      swap1\n      sstore\n      0x02\n      dup3\n      add\n      0x00\n      swap1\n      sstore\n      pop\n      pop\n      swap1\n      sstore\n        /* \"StockTrading.sol\":3658:3867  function removeOrder(Order[] storage orders, uint256 index) internal {... */\n      pop\n      pop\n      jump\t// out\n        /* \"#utility.yul\":7:82   */\n    tag_144:\n        /* \"#utility.yul\":40:46   */\n      0x00\n        /* \"#utility.yul\":73:75   */\n      0x40\n        /* \"#utility.yul\":67:76   */\n      mload\n        /* \"#utility.yul\":57:76   */\n      swap1\n      pop\n        /* \"#utility.yul\":7:82   */\n      swap1\n      jump\t// out\n        /* \"#utility.yul\":88:205   */\n    tag_145:\n        /* \"#utility.yul\":197:198   */\n      0x00\n        /* \"#utility.yul\":194:195   */\n      dup1\n        /* \"#utility.yul\":187:199   */\n      revert\n        /* \"#utility.yul\":211:328   */\n    tag_146:\n        /* \"#utility.yul\":320:321   */\n      0x00\n        /* \"#utility.yul\":317:318   */\n      dup1\n        /* \"#utility.yul\":310:322   */\n      revert\n        /* \"#utility.yul\":334:460   */\n    tag_147:\n        /* \"#utility.yul\":371:378   */\n      0x00\n        /* \"#utility.yul\":411:453   */\n      0xffffffffffffffffffffffffffffffffffffffff\n        /* \"#utility.yul\":404:409   */\n      dup3\n        /* \"#utility.yul\":400:454   */\n      and\n        /* \"#utility.yul\":389:454   */\n      swap1\n      pop\n        /* \"#utility.yul\":334:460   */\n      swap2\n      swap1\n      pop\n      jump\t// out\n        /* \"#utility.yul\":466:562   */\n    tag_148:\n        /* \"#utility.yul\":503:510   */\n      0x00\n        /* \"#utility.yul\":532:556   */\n      tag_182\n        /* \"#utility.yul\":550:555   */\n      dup3\n        /* \"#utility.yul\":532:556   */\n      tag_147\n      jump\t// in\n    tag_182:\n        /* \"#utility.yul\":521:556   */\n      swap1\n      pop\n        /* \"#utility.yul\":466:562   */\n      swap2\n      swap1\n      pop\n      jump\t// out\n        /* \"#utility.yul\":568:690   */\n    tag_149:\n        /* \"#utility.yul\":641:665   */\n      tag_184\n        /* \"#utility.yul\":659:664   */\n      dup2\n        /* \"#utility.yul\":641:665   */\n      tag_148\n      jump\t// in\n    tag_184:\n        /* \"#utility.yul\":634:639   */\n      dup2\n        /* \"#utility.yul\":631:666   */\n      eq\n        /* \"#utility.yul\":621:684   */\n      tag_185\n      jumpi\n        /* \"#utility.yul\":680:681   */\n      0x00\n        /* \"#utility.yul\":677:678   */\n      dup1\n        /* \"#utility.yul\":670:682   */\n      revert\n        /* \"#utility.yul\":621:684   */\n    tag_185:\n        /* \"#utility.yul\":568:690   */\n      pop\n      jump\t// out\n        /* \"#utility.yul\":696:835   */\n    tag_150:\n        /* \"#utility.yul\":742:747   */\n      0x00\n        /* \"#utility.yul\":780:786   */\n      dup2\n        /* \"#utility.yul\":767:787   */\n      calldataload\n        /* \"#utility.yul\":758:787   */\n      swap1\n      pop\n        /* \"#utility.yul\":796:829   */\n      tag_187\n        /* \"#utility.yul\":823:828   */\n      dup2\n        /* \"#utility.yul\":796:829   */\n      tag_149\n      jump\t// in\n    tag_187:\n        /* \"#utility.yul\":696:835   */\n      swap3\n      swap2\n      pop\n      pop\n      jump\t// out\n        /* \"#utility.yul\":841:958   */\n    tag_151:\n        /* \"#utility.yul\":950:951   */\n      0x00\n        /* \"#utility.yul\":947:948   */\n      dup1\n        /* \"#utility.yul\":940:952   */\n      revert\n        /* \"#utility.yul\":964:1081   */\n    tag_152:\n        /* \"#utility.yul\":1073:1074   */\n      0x00\n        /* \"#utility.yul\":1070:1071   */\n      dup1\n        /* \"#utility.yul\":1063:1075   */\n      revert\n        /* \"#utility.yul\":1087:1189   */\n    tag_153:\n        /* \"#utility.yul\":1128:1134   */\n      0x00\n        /* \"#utility.yul\":1179:1181   */\n      0x1f\n        /* \"#utility.yul\":1175:1182   */\n      not\n        /* \"#utility.yul\":1170:1172   */\n      0x1f\n        /* \"#utility.yul\":1163:1168   */\n      dup4\n        /* \"#utility.yul\":1159:1173   */\n      add\n        /* \"#utility.yul\":1155:1183   */\n      and\n        /* \"#utility.yul\":1145:1183   */\n      swap1\n      pop\n        /* \"#utility.yul\":1087:1189   */\n      swap2\n      swap1\n      pop\n      jump\t// out\n        /* \"#utility.yul\":1195:1375   */\n    tag_154:\n        /* \"#utility.yul\":1243:1320   */\n      0x4e487b7100000000000000000000000000000000000000000000000000000000\n        /* \"#utility.yul\":1240:1241   */\n      0x00\n        /* \"#utility.yul\":1233:1321   */\n      mstore\n        /* \"#utility.yul\":1340:1344   */\n      0x41\n        /* \"#utility.yul\":1337:1338   */\n      0x04\n        /* \"#utility.yul\":1330:1345   */\n      mstore\n        /* \"#utility.yul\":1364:1368   */\n      0x24\n        /* \"#utility.yul\":1361:1362   */\n      0x00\n        /* \"#utility.yul\":1354:1369   */\n      revert\n        /* \"#utility.yul\":1381:1662   */\n    tag_155:\n        /* \"#utility.yul\":1464:1491   */\n      tag_193\n        /* \"#utility.yul\":1486:1490   */\n      dup3\n        /* \"#utility.yul\":1464:1491   */\n      tag_153\n      jump\t// in\n    tag_193:\n        /* \"#utility.yul\":1456:1462   */\n      dup2\n        /* \"#utility.yul\":1452:1492   */\n      add\n        /* \"#utility.yul\":1594:1600   */\n      dup2\n        /* \"#utility.yul\":1582:1592   */\n      dup2\n        /* \"#utility.yul\":1579:1601   */\n      lt\n        /* \"#utility.yul\":1558:1576   */\n      0xffffffffffffffff\n        /* \"#utility.yul\":1546:1556   */\n      dup3\n        /* \"#utility.yul\":1543:1577   */\n      gt\n        /* \"#utility.yul\":1540:1602   */\n      or\n        /* \"#utility.yul\":1537:1625   */\n      iszero\n      tag_194\n      jumpi\n        /* \"#utility.yul\":1605:1623   */\n      tag_195\n      tag_154\n      jump\t// in\n    tag_195:\n        /* \"#utility.yul\":1537:1625   */\n    tag_194:\n        /* \"#utility.yul\":1645:1655   */\n      dup1\n        /* \"#utility.yul\":1641:1643   */\n      0x40\n        /* \"#utility.yul\":1634:1656   */\n      mstore\n        /* \"#utility.yul\":1424:1662   */\n      pop\n        /* \"#utility.yul\":1381:1662   */\n      pop\n      pop\n      jump\t// out\n        /* \"#utility.yul\":1668:1797   */\n    tag_156:\n        /* \"#utility.yul\":1702:1708   */\n      0x00\n        /* \"#utility.yul\":1729:1749   */\n      tag_197\n      tag_144\n      jump\t// in\n    tag_197:\n        /* \"#utility.yul\":1719:1749   */\n      swap1\n      pop\n        /* \"#utility.yul\":1758:1791   */\n      tag_198\n        /* \"#utility.yul\":1786:1790   */\n      dup3\n        /* \"#utility.yul\":1778:1784   */\n      dup3\n        /* \"#utility.yul\":1758:1791   */\n      tag_155\n      jump\t// in\n    tag_198:\n        /* \"#utility.yul\":1668:1797   */\n      swap2\n      swap1\n      pop\n      jump\t// out\n        /* \"#utility.yul\":1803:2111   */\n    tag_157:\n        /* \"#utility.yul\":1865:1869   */\n      0x00\n        /* \"#utility.yul\":1955:1973   */\n      0xffffffffffffffff\n        /* \"#utility.yul\":1947:1953   */\n      dup3\n        /* \"#utility.yul\":1944:1974   */\n      gt\n        /* \"#utility.yul\":1941:1997   */\n      iszero\n      tag_200\n      jumpi\n        /* \"#utility.yul\":1977:1995   */\n      tag_201\n      tag_154\n      jump\t// in\n    tag_201:\n        /* \"#utility.yul\":1941:1997   */\n    tag_200:\n        /* \"#utility.yul\":2015:2044   */\n      tag_202\n        /* \"#utility.yul\":2037:2043   */\n      dup3\n        /* \"#utility.yul\":2015:2044   */\n      tag_153\n      jump\t// in\n    tag_202:\n        /* \"#utility.yul\":2007:2044   */\n      swap1\n      pop\n        /* \"#utility.yul\":2099:2103   */\n      0x20\n        /* \"#utility.yul\":2093:2097   */\n      dup2\n        /* \"#utility.yul\":2089:2104   */\n      add\n        /* \"#utility.yul\":2081:2104   */\n      swap1\n      pop\n        /* \"#utility.yul\":1803:2111   */\n      swap2\n      swap1\n      pop\n      jump\t// out\n        /* \"#utility.yul\":2117:2263   */\n    tag_158:\n        /* \"#utility.yul\":2214:2220   */\n      dup3\n        /* \"#utility.yul\":2209:2212   */\n      dup2\n        /* \"#utility.yul\":2204:2207   */\n      dup4\n        /* \"#utility.yul\":2191:2221   */\n      calldatacopy\n        /* \"#utility.yul\":2255:2256   */\n      0x00\n        /* \"#utility.yul\":2246:2252   */\n      dup4\n        /* \"#utility.yul\":2241:2244   */\n      dup4\n        /* \"#utility.yul\":2237:2253   */\n      add\n        /* \"#utility.yul\":2230:2257   */\n      mstore\n        /* \"#utility.yul\":2117:2263   */\n      pop\n      pop\n      pop\n      jump\t// out\n        /* \"#utility.yul\":2269:2694   */\n    tag_159:\n        /* \"#utility.yul\":2347:2352   */\n      0x00\n        /* \"#utility.yul\":2372:2438   */\n      tag_205\n        /* \"#utility.yul\":2388:2437   */\n      tag_206\n        /* \"#utility.yul\":2430:2436   */\n      dup5\n        /* \"#utility.yul\":2388:2437   */\n      tag_157\n      jump\t// in\n    tag_206:\n        /* \"#utility.yul\":2372:2438   */\n      tag_156\n      jump\t// in\n    tag_205:\n        /* \"#utility.yul\":2363:2438   */\n      swap1\n      pop\n        /* \"#utility.yul\":2461:2467   */\n      dup3\n        /* \"#utility.yul\":2454:2459   */\n      dup2\n        /* \"#utility.yul\":2447:2468   */\n      mstore\n        /* \"#utility.yul\":2499:2503   */\n      0x20\n        /* \"#utility.yul\":2492:2497   */\n      dup2\n        /* \"#utility.yul\":2488:2504   */\n      add\n        /* \"#utility.yul\":2537:2540   */\n      dup5\n        /* \"#utility.yul\":2528:2534   */\n      dup5\n        /* \"#utility.yul\":2523:2526   */\n      dup5\n        /* \"#utility.yul\":2519:2535   */\n      add\n        /* \"#utility.yul\":2516:2541   */\n      gt\n        /* \"#utility.yul\":2513:2625   */\n      iszero\n      tag_207\n      jumpi\n        /* \"#utility.yul\":2544:2623   */\n      tag_208\n      tag_152\n      jump\t// in\n    tag_208:\n        /* \"#utility.yul\":2513:2625   */\n    tag_207:\n        /* \"#utility.yul\":2634:2688   */\n      tag_209\n        /* \"#utility.yul\":2681:2687   */\n      dup5\n        /* \"#utility.yul\":2676:2679   */\n      dup3\n        /* \"#utility.yul\":2671:2674   */\n      dup6\n        /* \"#utility.yul\":2634:2688   */\n      tag_158\n      jump\t// in\n    tag_209:\n        /* \"#utility.yul\":2353:2694   */\n      pop\n        /* \"#utility.yul\":2269:2694   */\n      swap4\n      swap3\n      pop\n      pop\n      pop\n      jump\t// out\n        /* \"#utility.yul\":2714:3054   */\n    tag_160:\n        /* \"#utility.yul\":2770:2775   */\n      0x00\n        /* \"#utility.yul\":2819:2822   */\n      dup3\n        /* \"#utility.yul\":2812:2816   */\n      0x1f\n        /* \"#utility.yul\":2804:2810   */\n      dup4\n        /* \"#utility.yul\":2800:2817   */\n      add\n        /* \"#utility.yul\":2796:2823   */\n      slt\n        /* \"#utility.yul\":2786:2908   */\n      tag_211\n      jumpi\n        /* \"#utility.yul\":2827:2906   */\n      tag_212\n      tag_151\n      jump\t// in\n    tag_212:\n        /* \"#utility.yul\":2786:2908   */\n    tag_211:\n        /* \"#utility.yul\":2944:2950   */\n      dup2\n        /* \"#utility.yul\":2931:2951   */\n      calldataload\n        /* \"#utility.yul\":2969:3048   */\n      tag_213\n        /* \"#utility.yul\":3044:3047   */\n      dup5\n        /* \"#utility.yul\":3036:3042   */\n      dup3\n        /* \"#utility.yul\":3029:3033   */\n      0x20\n        /* \"#utility.yul\":3021:3027   */\n      dup7\n        /* \"#utility.yul\":3017:3034   */\n      add\n        /* \"#utility.yul\":2969:3048   */\n      tag_159\n      jump\t// in\n    tag_213:\n        /* \"#utility.yul\":2960:3048   */\n      swap2\n      pop\n        /* \"#utility.yul\":2776:3054   */\n      pop\n        /* \"#utility.yul\":2714:3054   */\n      swap3\n      swap2\n      pop\n      pop\n      jump\t// out\n        /* \"#utility.yul\":3060:3714   */\n    tag_14:\n        /* \"#utility.yul\":3138:3144   */\n      0x00\n        /* \"#utility.yul\":3146:3152   */\n      dup1\n        /* \"#utility.yul\":3195:3197   */\n      0x40\n        /* \"#utility.yul\":3183:3192   */\n      dup4\n        /* \"#utility.yul\":3174:3181   */\n      dup6\n        /* \"#utility.yul\":3170:3193   */\n      sub\n        /* \"#utility.yul\":3166:3198   */\n      slt\n        /* \"#utility.yul\":3163:3282   */\n      iszero\n      tag_215\n      jumpi\n        /* \"#utility.yul\":3201:3280   */\n      tag_216\n      tag_145\n      jump\t// in\n    tag_216:\n        /* \"#utility.yul\":3163:3282   */\n    tag_215:\n        /* \"#utility.yul\":3321:3322   */\n      0x00\n        /* \"#utility.yul\":3346:3399   */\n      tag_217\n        /* \"#utility.yul\":3391:3398   */\n      dup6\n        /* \"#utility.yul\":3382:3388   */\n      dup3\n        /* \"#utility.yul\":3371:3380   */\n      dup7\n        /* \"#utility.yul\":3367:3389   */\n      add\n        /* \"#utility.yul\":3346:3399   */\n      tag_150\n      jump\t// in\n    tag_217:\n        /* \"#utility.yul\":3336:3399   */\n      swap3\n      pop\n        /* \"#utility.yul\":3292:3409   */\n      pop\n        /* \"#utility.yul\":3476:3478   */\n      0x20\n        /* \"#utility.yul\":3465:3474   */\n      dup4\n        /* \"#utility.yul\":3461:3479   */\n      add\n        /* \"#utility.yul\":3448:3480   */\n      calldataload\n        /* \"#utility.yul\":3507:3525   */\n      0xffffffffffffffff\n        /* \"#utility.yul\":3499:3505   */\n      dup2\n        /* \"#utility.yul\":3496:3526   */\n      gt\n        /* \"#utility.yul\":3493:3610   */\n      iszero\n      tag_218\n      jumpi\n        /* \"#utility.yul\":3529:3608   */\n      tag_219\n      tag_146\n      jump\t// in\n    tag_219:\n        /* \"#utility.yul\":3493:3610   */\n    tag_218:\n        /* \"#utility.yul\":3634:3697   */\n      tag_220\n        /* \"#utility.yul\":3689:3696   */\n      dup6\n        /* \"#utility.yul\":3680:3686   */\n      dup3\n        /* \"#utility.yul\":3669:3678   */\n      dup7\n        /* \"#utility.yul\":3665:3687   */\n      add\n        /* \"#utility.yul\":3634:3697   */\n      tag_160\n      jump\t// in\n    tag_220:\n        /* \"#utility.yul\":3624:3697   */\n      swap2\n      pop\n        /* \"#utility.yul\":3419:3707   */\n      pop\n        /* \"#utility.yul\":3060:3714   */\n      swap3\n      pop\n      swap3\n      swap1\n      pop\n      jump\t// out\n        /* \"#utility.yul\":3720:3797   */\n    tag_161:\n        /* \"#utility.yul\":3757:3764   */\n      0x00\n        /* \"#utility.yul\":3786:3791   */\n      dup2\n        /* \"#utility.yul\":3775:3791   */\n      swap1\n      pop\n        /* \"#utility.yul\":3720:3797   */\n      swap2\n      swap1\n      pop\n      jump\t// out\n        /* \"#utility.yul\":3803:3921   */\n    tag_162:\n        /* \"#utility.yul\":3890:3914   */\n      tag_223\n        /* \"#utility.yul\":3908:3913   */\n      dup2\n        /* \"#utility.yul\":3890:3914   */\n      tag_161\n      jump\t// in\n    tag_223:\n        /* \"#utility.yul\":3885:3888   */\n      dup3\n        /* \"#utility.yul\":3878:3915   */\n      mstore\n        /* \"#utility.yul\":3803:3921   */\n      pop\n      pop\n      jump\t// out\n        /* \"#utility.yul\":3927:4149   */\n    tag_17:\n        /* \"#utility.yul\":4020:4024   */\n      0x00\n        /* \"#utility.yul\":4058:4060   */\n      0x20\n        /* \"#utility.yul\":4047:4056   */\n      dup3\n        /* \"#utility.yul\":4043:4061   */\n      add\n        /* \"#utility.yul\":4035:4061   */\n      swap1\n      pop\n        /* \"#utility.yul\":4071:4142   */\n      tag_225\n        /* \"#utility.yul\":4139:4140   */\n      0x00\n        /* \"#utility.yul\":4128:4137   */\n      dup4\n        /* \"#utility.yul\":4124:4141   */\n      add\n        /* \"#utility.yul\":4115:4121   */\n      dup5\n        /* \"#utility.yul\":4071:4142   */\n      tag_162\n      jump\t// in\n    tag_225:\n        /* \"#utility.yul\":3927:4149   */\n      swap3\n      swap2\n      pop\n      pop\n      jump\t// out\n        /* \"#utility.yul\":4155:4277   */\n    tag_163:\n        /* \"#utility.yul\":4228:4252   */\n      tag_227\n        /* \"#utility.yul\":4246:4251   */\n      dup2\n        /* \"#utility.yul\":4228:4252   */\n      tag_161\n      jump\t// in\n    tag_227:\n        /* \"#utility.yul\":4221:4226   */\n      dup2\n        /* \"#utility.yul\":4218:4253   */\n      eq\n        /* \"#utility.yul\":4208:4271   */\n      tag_228\n      jumpi\n        /* \"#utility.yul\":4267:4268   */\n      0x00\n        /* \"#utility.yul\":4264:4265   */\n      dup1\n        /* \"#utility.yul\":4257:4269   */\n      revert\n        /* \"#utility.yul\":4208:4271   */\n    tag_228:\n        /* \"#utility.yul\":4155:4277   */\n      pop\n      jump\t// out\n        /* \"#utility.yul\":4283:4422   */\n    tag_164:\n        /* \"#utility.yul\":4329:4334   */\n      0x00\n        /* \"#utility.yul\":4367:4373   */\n      dup2\n        /* \"#utility.yul\":4354:4374   */\n      calldataload\n        /* \"#utility.yul\":4345:4374   */\n      swap1\n      pop\n        /* \"#utility.yul\":4383:4416   */\n      tag_230\n        /* \"#utility.yul\":4410:4415   */\n      dup2\n        /* \"#utility.yul\":4383:4416   */\n      tag_163\n      jump\t// in\n    tag_230:\n        /* \"#utility.yul\":4283:4422   */\n      swap3\n      swap2\n      pop\n      pop\n      jump\t// out\n        /* \"#utility.yul\":4428:5227   */\n    tag_20:\n        /* \"#utility.yul\":4515:4521   */\n      0x00\n        /* \"#utility.yul\":4523:4529   */\n      dup1\n        /* \"#utility.yul\":4531:4537   */\n      0x00\n        /* \"#utility.yul\":4580:4582   */\n      0x60\n        /* \"#utility.yul\":4568:4577   */\n      dup5\n        /* \"#utility.yul\":4559:4566   */\n      dup7\n        /* \"#utility.yul\":4555:4578   */\n      sub\n        /* \"#utility.yul\":4551:4583   */\n      slt\n        /* \"#utility.yul\":4548:4667   */\n      iszero\n      tag_232\n      jumpi\n        /* \"#utility.yul\":4586:4665   */\n      tag_233\n      tag_145\n      jump\t// in\n    tag_233:\n        /* \"#utility.yul\":4548:4667   */\n    tag_232:\n        /* \"#utility.yul\":4734:4735   */\n      0x00\n        /* \"#utility.yul\":4723:4732   */\n      dup5\n        /* \"#utility.yul\":4719:4736   */\n      add\n        /* \"#utility.yul\":4706:4737   */\n      calldataload\n        /* \"#utility.yul\":4764:4782   */\n      0xffffffffffffffff\n        /* \"#utility.yul\":4756:4762   */\n      dup2\n        /* \"#utility.yul\":4753:4783   */\n      gt\n        /* \"#utility.yul\":4750:4867   */\n      iszero\n      tag_234\n      jumpi\n        /* \"#utility.yul\":4786:4865   */\n      tag_235\n      tag_146\n      jump\t// in\n    tag_235:\n        /* \"#utility.yul\":4750:4867   */\n    tag_234:\n        /* \"#utility.yul\":4891:4954   */\n      tag_236\n        /* \"#utility.yul\":4946:4953   */\n      dup7\n        /* \"#utility.yul\":4937:4943   */\n      dup3\n        /* \"#utility.yul\":4926:4935   */\n      dup8\n        /* \"#utility.yul\":4922:4944   */\n      add\n        /* \"#utility.yul\":4891:4954   */\n      tag_160\n      jump\t// in\n    tag_236:\n        /* \"#utility.yul\":4881:4954   */\n      swap4\n      pop\n        /* \"#utility.yul\":4677:4964   */\n      pop\n        /* \"#utility.yul\":5003:5005   */\n      0x20\n        /* \"#utility.yul\":5029:5082   */\n      tag_237\n        /* \"#utility.yul\":5074:5081   */\n      dup7\n        /* \"#utility.yul\":5065:5071   */\n      dup3\n        /* \"#utility.yul\":5054:5063   */\n      dup8\n        /* \"#utility.yul\":5050:5072   */\n      add\n        /* \"#utility.yul\":5029:5082   */\n      tag_164\n      jump\t// in\n    tag_237:\n        /* \"#utility.yul\":5019:5082   */\n      swap3\n      pop\n        /* \"#utility.yul\":4974:5092   */\n      pop\n        /* \"#utility.yul\":5131:5133   */\n      0x40\n        /* \"#utility.yul\":5157:5210   */\n      tag_238\n        /* \"#utility.yul\":5202:5209   */\n      dup7\n        /* \"#utility.yul\":5193:5199   */\n      dup3\n        /* \"#utility.yul\":5182:5191   */\n      dup8\n        /* \"#utility.yul\":5178:5200   */\n      add\n        /* \"#utility.yul\":5157:5210   */\n      tag_164\n      jump\t// in\n    tag_238:\n        /* \"#utility.yul\":5147:5210   */\n      swap2\n      pop\n        /* \"#utility.yul\":5102:5220   */\n      pop\n        /* \"#utility.yul\":4428:5227   */\n      swap3\n      pop\n      swap3\n      pop\n      swap3\n      jump\t// out\n        /* \"#utility.yul\":5233:5742   */\n    tag_25:\n        /* \"#utility.yul\":5302:5308   */\n      0x00\n        /* \"#utility.yul\":5351:5353   */\n      0x20\n        /* \"#utility.yul\":5339:5348   */\n      dup3\n        /* \"#utility.yul\":5330:5337   */\n      dup5\n        /* \"#utility.yul\":5326:5349   */\n      sub\n        /* \"#utility.yul\":5322:5354   */\n      slt\n        /* \"#utility.yul\":5319:5438   */\n      iszero\n      tag_240\n      jumpi\n        /* \"#utility.yul\":5357:5436   */\n      tag_241\n      tag_145\n      jump\t// in\n    tag_241:\n        /* \"#utility.yul\":5319:5438   */\n    tag_240:\n        /* \"#utility.yul\":5505:5506   */\n      0x00\n        /* \"#utility.yul\":5494:5503   */\n      dup3\n        /* \"#utility.yul\":5490:5507   */\n      add\n        /* \"#utility.yul\":5477:5508   */\n      calldataload\n        /* \"#utility.yul\":5535:5553   */\n      0xffffffffffffffff\n        /* \"#utility.yul\":5527:5533   */\n      dup2\n        /* \"#utility.yul\":5524:5554   */\n      gt\n        /* \"#utility.yul\":5521:5638   */\n      iszero\n      tag_242\n      jumpi\n        /* \"#utility.yul\":5557:5636   */\n      tag_243\n      tag_146\n      jump\t// in\n    tag_243:\n        /* \"#utility.yul\":5521:5638   */\n    tag_242:\n        /* \"#utility.yul\":5662:5725   */\n      tag_244\n        /* \"#utility.yul\":5717:5724   */\n      dup5\n        /* \"#utility.yul\":5708:5714   */\n      dup3\n        /* \"#utility.yul\":5697:5706   */\n      dup6\n        /* \"#utility.yul\":5693:5715   */\n      add\n        /* \"#utility.yul\":5662:5725   */\n      tag_160\n      jump\t// in\n    tag_244:\n        /* \"#utility.yul\":5652:5725   */\n      swap2\n      pop\n        /* \"#utility.yul\":5448:5735   */\n      pop\n        /* \"#utility.yul\":5233:5742   */\n      swap3\n      swap2\n      pop\n      pop\n      jump\t// out\n        /* \"#utility.yul\":5748:6080   */\n    tag_28:\n        /* \"#utility.yul\":5869:5873   */\n      0x00\n        /* \"#utility.yul\":5907:5909   */\n      0x40\n        /* \"#utility.yul\":5896:5905   */\n      dup3\n        /* \"#utility.yul\":5892:5910   */\n      add\n        /* \"#utility.yul\":5884:5910   */\n      swap1\n      pop\n        /* \"#utility.yul\":5920:5991   */\n      tag_246\n        /* \"#utility.yul\":5988:5989   */\n      0x00\n        /* \"#utility.yul\":5977:5986   */\n      dup4\n        /* \"#utility.yul\":5973:5990   */\n      add\n        /* \"#utility.yul\":5964:5970   */\n      dup6\n        /* \"#utility.yul\":5920:5991   */\n      tag_162\n      jump\t// in\n    tag_246:\n        /* \"#utility.yul\":6001:6073   */\n      tag_247\n        /* \"#utility.yul\":6069:6071   */\n      0x20\n        /* \"#utility.yul\":6058:6067   */\n      dup4\n        /* \"#utility.yul\":6054:6072   */\n      add\n        /* \"#utility.yul\":6045:6051   */\n      dup5\n        /* \"#utility.yul\":6001:6073   */\n      tag_162\n      jump\t// in\n    tag_247:\n        /* \"#utility.yul\":5748:6080   */\n      swap4\n      swap3\n      pop\n      pop\n      pop\n      jump\t// out\n        /* \"#utility.yul\":6086:6740   */\n    tag_32:\n        /* \"#utility.yul\":6164:6170   */\n      0x00\n        /* \"#utility.yul\":6172:6178   */\n      dup1\n        /* \"#utility.yul\":6221:6223   */\n      0x40\n        /* \"#utility.yul\":6209:6218   */\n      dup4\n        /* \"#utility.yul\":6200:6207   */\n      dup6\n        /* \"#utility.yul\":6196:6219   */\n      sub\n        /* \"#utility.yul\":6192:6224   */\n      slt\n        /* \"#utility.yul\":6189:6308   */\n      iszero\n      tag_249\n      jumpi\n        /* \"#utility.yul\":6227:6306   */\n      tag_250\n      tag_145\n      jump\t// in\n    tag_250:\n        /* \"#utility.yul\":6189:6308   */\n    tag_249:\n        /* \"#utility.yul\":6375:6376   */\n      0x00\n        /* \"#utility.yul\":6364:6373   */\n      dup4\n        /* \"#utility.yul\":6360:6377   */\n      add\n        /* \"#utility.yul\":6347:6378   */\n      calldataload\n        /* \"#utility.yul\":6405:6423   */\n      0xffffffffffffffff\n        /* \"#utility.yul\":6397:6403   */\n      dup2\n        /* \"#utility.yul\":6394:6424   */\n      gt\n        /* \"#utility.yul\":6391:6508   */\n      iszero\n      tag_251\n      jumpi\n        /* \"#utility.yul\":6427:6506   */\n      tag_252\n      tag_146\n      jump\t// in\n    tag_252:\n        /* \"#utility.yul\":6391:6508   */\n    tag_251:\n        /* \"#utility.yul\":6532:6595   */\n      tag_253\n        /* \"#utility.yul\":6587:6594   */\n      dup6\n        /* \"#utility.yul\":6578:6584   */\n      dup3\n        /* \"#utility.yul\":6567:6576   */\n      dup7\n        /* \"#utility.yul\":6563:6585   */\n      add\n        /* \"#utility.yul\":6532:6595   */\n      tag_160\n      jump\t// in\n    tag_253:\n        /* \"#utility.yul\":6522:6595   */\n      swap3\n      pop\n        /* \"#utility.yul\":6318:6605   */\n      pop\n        /* \"#utility.yul\":6644:6646   */\n      0x20\n        /* \"#utility.yul\":6670:6723   */\n      tag_254\n        /* \"#utility.yul\":6715:6722   */\n      dup6\n        /* \"#utility.yul\":6706:6712   */\n      dup3\n        /* \"#utility.yul\":6695:6704   */\n      dup7\n        /* \"#utility.yul\":6691:6713   */\n      add\n        /* \"#utility.yul\":6670:6723   */\n      tag_164\n      jump\t// in\n    tag_254:\n        /* \"#utility.yul\":6660:6723   */\n      swap2\n      pop\n        /* \"#utility.yul\":6615:6733   */\n      pop\n        /* \"#utility.yul\":6086:6740   */\n      swap3\n      pop\n      swap3\n      swap1\n      pop\n      jump\t// out\n        /* \"#utility.yul\":6746:6864   */\n    tag_165:\n        /* \"#utility.yul\":6833:6857   */\n      tag_256\n        /* \"#utility.yul\":6851:6856   */\n      dup2\n        /* \"#utility.yul\":6833:6857   */\n      tag_148\n      jump\t// in\n    tag_256:\n        /* \"#utility.yul\":6828:6831   */\n      dup3\n        /* \"#utility.yul\":6821:6858   */\n      mstore\n        /* \"#utility.yul\":6746:6864   */\n      pop\n      pop\n      jump\t// out\n        /* \"#utility.yul\":6870:7312   */\n    tag_39:\n        /* \"#utility.yul\":7019:7023   */\n      0x00\n        /* \"#utility.yul\":7057:7059   */\n      0x60\n        /* \"#utility.yul\":7046:7055   */\n      dup3\n        /* \"#utility.yul\":7042:7060   */\n      add\n        /* \"#utility.yul\":7034:7060   */\n      swap1\n      pop\n        /* \"#utility.yul\":7070:7141   */\n      tag_258\n        /* \"#utility.yul\":7138:7139   */\n      0x00\n        /* \"#utility.yul\":7127:7136   */\n      dup4\n        /* \"#utility.yul\":7123:7140   */\n      add\n        /* \"#utility.yul\":7114:7120   */\n      dup7\n        /* \"#utility.yul\":7070:7141   */\n      tag_165\n      jump\t// in\n    tag_258:\n        /* \"#utility.yul\":7151:7223   */\n      tag_259\n        /* \"#utility.yul\":7219:7221   */\n      0x20\n        /* \"#utility.yul\":7208:7217   */\n      dup4\n        /* \"#utility.yul\":7204:7222   */\n      add\n        /* \"#utility.yul\":7195:7201   */\n      dup6\n        /* \"#utility.yul\":7151:7223   */\n      tag_162\n      jump\t// in\n    tag_259:\n        /* \"#utility.yul\":7233:7305   */\n      tag_260\n        /* \"#utility.yul\":7301:7303   */\n      0x40\n        /* \"#utility.yul\":7290:7299   */\n      dup4\n        /* \"#utility.yul\":7286:7304   */\n      add\n        /* \"#utility.yul\":7277:7283   */\n      dup5\n        /* \"#utility.yul\":7233:7305   */\n      tag_162\n      jump\t// in\n    tag_260:\n        /* \"#utility.yul\":6870:7312   */\n      swap5\n      swap4\n      pop\n      pop\n      pop\n      pop\n      jump\t// out\n        /* \"#utility.yul\":7318:7417   */\n    tag_166:\n        /* \"#utility.yul\":7370:7376   */\n      0x00\n        /* \"#utility.yul\":7404:7409   */\n      dup2\n        /* \"#utility.yul\":7398:7410   */\n      mload\n        /* \"#utility.yul\":7388:7410   */\n      swap1\n      pop\n        /* \"#utility.yul\":7318:7417   */\n      swap2\n      swap1\n      pop\n      jump\t// out\n        /* \"#utility.yul\":7423:7571   */\n    tag_167:\n        /* \"#utility.yul\":7525:7536   */\n      0x00\n        /* \"#utility.yul\":7562:7565   */\n      dup2\n        /* \"#utility.yul\":7547:7565   */\n      swap1\n      pop\n        /* \"#utility.yul\":7423:7571   */\n      swap3\n      swap2\n      pop\n      pop\n      jump\t// out\n        /* \"#utility.yul\":7577:7823   */\n    tag_168:\n        /* \"#utility.yul\":7658:7659   */\n      0x00\n        /* \"#utility.yul\":7668:7781   */\n    tag_264:\n        /* \"#utility.yul\":7682:7688   */\n      dup4\n        /* \"#utility.yul\":7679:7680   */\n      dup2\n        /* \"#utility.yul\":7676:7689   */\n      lt\n        /* \"#utility.yul\":7668:7781   */\n      iszero\n      tag_266\n      jumpi\n        /* \"#utility.yul\":7767:7768   */\n      dup1\n        /* \"#utility.yul\":7762:7765   */\n      dup3\n        /* \"#utility.yul\":7758:7769   */\n      add\n        /* \"#utility.yul\":7752:7770   */\n      mload\n        /* \"#utility.yul\":7748:7749   */\n      dup2\n        /* \"#utility.yul\":7743:7746   */\n      dup5\n        /* \"#utility.yul\":7739:7750   */\n      add\n        /* \"#utility.yul\":7732:7771   */\n      mstore\n        /* \"#utility.yul\":7704:7706   */\n      0x20\n        /* \"#utility.yul\":7701:7702   */\n      dup2\n        /* \"#utility.yul\":7697:7707   */\n      add\n        /* \"#utility.yul\":7692:7707   */\n      swap1\n      pop\n        /* \"#utility.yul\":7668:7781   */\n      jump(tag_264)\n    tag_266:\n        /* \"#utility.yul\":7815:7816   */\n      0x00\n        /* \"#utility.yul\":7806:7812   */\n      dup5\n        /* \"#utility.yul\":7801:7804   */\n      dup5\n        /* \"#utility.yul\":7797:7813   */\n      add\n        /* \"#utility.yul\":7790:7817   */\n      mstore\n        /* \"#utility.yul\":7639:7823   */\n      pop\n        /* \"#utility.yul\":7577:7823   */\n      pop\n      pop\n      pop\n      jump\t// out\n        /* \"#utility.yul\":7829:8219   */\n    tag_169:\n        /* \"#utility.yul\":7935:7938   */\n      0x00\n        /* \"#utility.yul\":7963:8002   */\n      tag_268\n        /* \"#utility.yul\":7996:8001   */\n      dup3\n        /* \"#utility.yul\":7963:8002   */\n      tag_166\n      jump\t// in\n    tag_268:\n        /* \"#utility.yul\":8018:8107   */\n      tag_269\n        /* \"#utility.yul\":8100:8106   */\n      dup2\n        /* \"#utility.yul\":8095:8098   */\n      dup6\n        /* \"#utility.yul\":8018:8107   */\n      tag_167\n      jump\t// in\n    tag_269:\n        /* \"#utility.yul\":8011:8107   */\n      swap4\n      pop\n        /* \"#utility.yul\":8116:8181   */\n      tag_270\n        /* \"#utility.yul\":8174:8180   */\n      dup2\n        /* \"#utility.yul\":8169:8172   */\n      dup6\n        /* \"#utility.yul\":8162:8166   */\n      0x20\n        /* \"#utility.yul\":8155:8160   */\n      dup7\n        /* \"#utility.yul\":8151:8167   */\n      add\n        /* \"#utility.yul\":8116:8181   */\n      tag_168\n      jump\t// in\n    tag_270:\n        /* \"#utility.yul\":8206:8212   */\n      dup1\n        /* \"#utility.yul\":8201:8204   */\n      dup5\n        /* \"#utility.yul\":8197:8213   */\n      add\n        /* \"#utility.yul\":8190:8213   */\n      swap2\n      pop\n        /* \"#utility.yul\":7939:8219   */\n      pop\n        /* \"#utility.yul\":7829:8219   */\n      swap3\n      swap2\n      pop\n      pop\n      jump\t// out\n        /* \"#utility.yul\":8225:8500   */\n    tag_54:\n        /* \"#utility.yul\":8357:8360   */\n      0x00\n        /* \"#utility.yul\":8379:8474   */\n      tag_272\n        /* \"#utility.yul\":8470:8473   */\n      dup3\n        /* \"#utility.yul\":8461:8467   */\n      dup5\n        /* \"#utility.yul\":8379:8474   */\n      tag_169\n      jump\t// in\n    tag_272:\n        /* \"#utility.yul\":8372:8474   */\n      swap2\n      pop\n        /* \"#utility.yul\":8491:8494   */\n      dup2\n        /* \"#utility.yul\":8484:8494   */\n      swap1\n      pop\n        /* \"#utility.yul\":8225:8500   */\n      swap3\n      swap2\n      pop\n      pop\n      jump\t// out\n        /* \"#utility.yul\":8506:8686   */\n    tag_61:\n        /* \"#utility.yul\":8554:8631   */\n      0x4e487b7100000000000000000000000000000000000000000000000000000000\n        /* \"#utility.yul\":8551:8552   */\n      0x00\n        /* \"#utility.yul\":8544:8632   */\n      mstore\n        /* \"#utility.yul\":8651:8655   */\n      0x32\n        /* \"#utility.yul\":8648:8649   */\n      0x04\n        /* \"#utility.yul\":8641:8656   */\n      mstore\n        /* \"#utility.yul\":8675:8679   */\n      0x24\n        /* \"#utility.yul\":8672:8673   */\n      0x00\n        /* \"#utility.yul\":8665:8680   */\n      revert\n        /* \"#utility.yul\":8692:8872   */\n    tag_170:\n        /* \"#utility.yul\":8740:8817   */\n      0x4e487b7100000000000000000000000000000000000000000000000000000000\n        /* \"#utility.yul\":8737:8738   */\n      0x00\n        /* \"#utility.yul\":8730:8818   */\n      mstore\n        /* \"#utility.yul\":8837:8841   */\n      0x11\n        /* \"#utility.yul\":8834:8835   */\n      0x04\n        /* \"#utility.yul\":8827:8842   */\n      mstore\n        /* \"#utility.yul\":8861:8865   */\n      0x24\n        /* \"#utility.yul\":8858:8859   */\n      0x00\n        /* \"#utility.yul\":8851:8866   */\n      revert\n        /* \"#utility.yul\":8878:9072   */\n    tag_67:\n        /* \"#utility.yul\":8918:8922   */\n      0x00\n        /* \"#utility.yul\":8938:8958   */\n      tag_276\n        /* \"#utility.yul\":8956:8957   */\n      dup3\n        /* \"#utility.yul\":8938:8958   */\n      tag_161\n      jump\t// in\n    tag_276:\n        /* \"#utility.yul\":8933:8958   */\n      swap2\n      pop\n        /* \"#utility.yul\":8972:8992   */\n      tag_277\n        /* \"#utility.yul\":8990:8991   */\n      dup4\n        /* \"#utility.yul\":8972:8992   */\n      tag_161\n      jump\t// in\n    tag_277:\n        /* \"#utility.yul\":8967:8992   */\n      swap3\n      pop\n        /* \"#utility.yul\":9016:9017   */\n      dup3\n        /* \"#utility.yul\":9013:9014   */\n      dup3\n        /* \"#utility.yul\":9009:9018   */\n      sub\n        /* \"#utility.yul\":9001:9018   */\n      swap1\n      pop\n        /* \"#utility.yul\":9040:9041   */\n      dup2\n        /* \"#utility.yul\":9034:9038   */\n      dup2\n        /* \"#utility.yul\":9031:9042   */\n      gt\n        /* \"#utility.yul\":9028:9065   */\n      iszero\n      tag_278\n      jumpi\n        /* \"#utility.yul\":9045:9063   */\n      tag_279\n      tag_170\n      jump\t// in\n    tag_279:\n        /* \"#utility.yul\":9028:9065   */\n    tag_278:\n        /* \"#utility.yul\":8878:9072   */\n      swap3\n      swap2\n      pop\n      pop\n      jump\t// out\n        /* \"#utility.yul\":9078:9249   */\n    tag_77:\n        /* \"#utility.yul\":9117:9120   */\n      0x00\n        /* \"#utility.yul\":9140:9164   */\n      tag_281\n        /* \"#utility.yul\":9158:9163   */\n      dup3\n        /* \"#utility.yul\":9140:9164   */\n      tag_161\n      jump\t// in\n    tag_281:\n        /* \"#utility.yul\":9131:9164   */\n      swap2\n      pop\n        /* \"#utility.yul\":9186:9190   */\n      0x00\n        /* \"#utility.yul\":9179:9184   */\n      dup3\n        /* \"#utility.yul\":9176:9191   */\n      sub\n        /* \"#utility.yul\":9173:9214   */\n      tag_282\n      jumpi\n        /* \"#utility.yul\":9194:9212   */\n      tag_283\n      tag_170\n      jump\t// in\n    tag_283:\n        /* \"#utility.yul\":9173:9214   */\n    tag_282:\n        /* \"#utility.yul\":9241:9242   */\n      0x01\n        /* \"#utility.yul\":9234:9239   */\n      dup3\n        /* \"#utility.yul\":9230:9243   */\n      sub\n        /* \"#utility.yul\":9223:9243   */\n      swap1\n      pop\n        /* \"#utility.yul\":9078:9249   */\n      swap2\n      swap1\n      pop\n      jump\t// out\n        /* \"#utility.yul\":9255:9488   */\n    tag_79:\n        /* \"#utility.yul\":9294:9297   */\n      0x00\n        /* \"#utility.yul\":9317:9341   */\n      tag_285\n        /* \"#utility.yul\":9335:9340   */\n      dup3\n        /* \"#utility.yul\":9317:9341   */\n      tag_161\n      jump\t// in\n    tag_285:\n        /* \"#utility.yul\":9308:9341   */\n      swap2\n      pop\n        /* \"#utility.yul\":9363:9429   */\n      0xffffffffffffffffffffffffffffffffffffffffffffffffffffffffffffffff\n        /* \"#utility.yul\":9356:9361   */\n      dup3\n        /* \"#utility.yul\":9353:9430   */\n      sub\n        /* \"#utility.yul\":9350:9453   */\n      tag_286\n      jumpi\n        /* \"#utility.yul\":9433:9451   */\n      tag_287\n      tag_170\n      jump\t// in\n    tag_287:\n        /* \"#utility.yul\":9350:9453   */\n    tag_286:\n        /* \"#utility.yul\":9480:9481   */\n      0x01\n        /* \"#utility.yul\":9473:9478   */\n      dup3\n        /* \"#utility.yul\":9469:9482   */\n      add\n        /* \"#utility.yul\":9462:9482   */\n      swap1\n      pop\n        /* \"#utility.yul\":9255:9488   */\n      swap2\n      swap1\n      pop\n      jump\t// out\n        /* \"#utility.yul\":9494:9663   */\n    tag_171:\n        /* \"#utility.yul\":9578:9589   */\n      0x00\n        /* \"#utility.yul\":9612:9618   */\n      dup3\n        /* \"#utility.yul\":9607:9610   */\n      dup3\n        /* \"#utility.yul\":9600:9619   */\n      mstore\n        /* \"#utility.yul\":9652:9656   */\n      0x20\n        /* \"#utility.yul\":9647:9650   */\n      dup3\n        /* \"#utility.yul\":9643:9657   */\n      add\n        /* \"#utility.yul\":9628:9657   */\n      swap1\n      pop\n        /* \"#utility.yul\":9494:9663   */\n      swap3\n      swap2\n      pop\n      pop\n      jump\t// out\n        /* \"#utility.yul\":9669:9834   */\n    tag_172:\n        /* \"#utility.yul\":9809:9826   */\n      0x53746f636b206e6f7420646f756e640000000000000000000000000000000000\n        /* \"#utility.yul\":9805:9806   */\n      0x00\n        /* \"#utility.yul\":9797:9803   */\n      dup3\n        /* \"#utility.yul\":9793:9807   */\n      add\n        /* \"#utility.yul\":9786:9827   */\n      mstore\n        /* \"#utility.yul\":9669:9834   */\n      pop\n      jump\t// out\n        /* \"#utility.yul\":9840:10206   */\n    tag_173:\n        /* \"#utility.yul\":9982:9985   */\n      0x00\n        /* \"#utility.yul\":10003:10070   */\n      tag_291\n        /* \"#utility.yul\":10067:10069   */\n      0x0f\n        /* \"#utility.yul\":10062:10065   */\n      dup4\n        /* \"#utility.yul\":10003:10070   */\n      tag_171\n      jump\t// in\n    tag_291:\n        /* \"#utility.yul\":9996:10070   */\n      swap2\n      pop\n        /* \"#utility.yul\":10079:10172   */\n      tag_292\n        /* \"#utility.yul\":10168:10171   */\n      dup3\n        /* \"#utility.yul\":10079:10172   */\n      tag_172\n      jump\t// in\n    tag_292:\n        /* \"#utility.yul\":10197:10199   */\n      0x20\n        /* \"#utility.yul\":10192:10195   */\n      dup3\n        /* \"#utility.yul\":10188:10200   */\n      add\n        /* \"#utility.yul\":10181:10200   */\n      swap1\n      pop\n        /* \"#utility.yul\":9840:10206   */\n      swap2\n      swap1\n      pop\n      jump\t// out\n        /* \"#utility.yul\":10212:10631   */\n    tag_87:\n        /* \"#utility.yul\":10378:10382   */\n      0x00\n        /* \"#utility.yul\":10416:10418   */\n      0x20\n        /* \"#utility.yul\":10405:10414   */\n      dup3\n        /* \"#utility.yul\":10401:10419   */\n      add\n        /* \"#utility.yul\":10393:10419   */\n      swap1\n      pop\n        /* \"#utility.yul\":10465:10474   */\n      dup2\n        /* \"#utility.yul\":10459:10463   */\n      dup2\n        /* \"#utility.yul\":10455:10475   */\n      sub\n        /* \"#utility.yul\":10451:10452   */\n      0x00\n        /* \"#utility.yul\":10440:10449   */\n      dup4\n        /* \"#utility.yul\":10436:10453   */\n      add\n        /* \"#utility.yul\":10429:10476   */\n      mstore\n        /* \"#utility.yul\":10493:10624   */\n      tag_294\n        /* \"#utility.yul\":10619:10623   */\n      dup2\n        /* \"#utility.yul\":10493:10624   */\n      tag_173\n      jump\t// in\n    tag_294:\n        /* \"#utility.yul\":10485:10624   */\n      swap1\n      pop\n        /* \"#utility.yul\":10212:10631   */\n      swap2\n      swap1\n      pop\n      jump\t// out\n        /* \"#utility.yul\":10637:10807   */\n    tag_174:\n        /* \"#utility.yul\":10777:10799   */\n      0x53746f636b20616c726561647920657869737473000000000000000000000000\n        /* \"#utility.yul\":10773:10774   */\n      0x00\n        /* \"#utility.yul\":10765:10771   */\n      dup3\n        /* \"#utility.yul\":10761:10775   */\n      add\n        /* \"#utility.yul\":10754:10800   */\n      mstore\n        /* \"#utility.yul\":10637:10807   */\n      pop\n      jump\t// out\n        /* \"#utility.yul\":10813:11179   */\n    tag_175:\n        /* \"#utility.yul\":10955:10958   */\n      0x00\n        /* \"#utility.yul\":10976:11043   */\n      tag_297\n        /* \"#utility.yul\":11040:11042   */\n      0x14\n        /* \"#utility.yul\":11035:11038   */\n      dup4\n        /* \"#utility.yul\":10976:11043   */\n      tag_171\n      jump\t// in\n    tag_297:\n        /* \"#utility.yul\":10969:11043   */\n      swap2\n      pop\n        /* \"#utility.yul\":11052:11145   */\n      tag_298\n        /* \"#utility.yul\":11141:11144   */\n      dup3\n        /* \"#utility.yul\":11052:11145   */\n      tag_174\n      jump\t// in\n    tag_298:\n        /* \"#utility.yul\":11170:11172   */\n      0x20\n        /* \"#utility.yul\":11165:11168   */\n      dup3\n        /* \"#utility.yul\":11161:11173   */\n      add\n        /* \"#utility.yul\":11154:11173   */\n      swap1\n      pop\n        /* \"#utility.yul\":10813:11179   */\n      swap2\n      swap1\n      pop\n      jump\t// out\n        /* \"#utility.yul\":11185:11604   */\n    tag_97:\n        /* \"#utility.yul\":11351:11355   */\n      0x00\n        /* \"#utility.yul\":11389:11391   */\n      0x20\n        /* \"#utility.yul\":11378:11387   */\n      dup3\n        /* \"#utility.yul\":11374:11392   */\n      add\n        /* \"#utility.yul\":11366:11392   */\n      swap1\n      pop\n        /* \"#utility.yul\":11438:11447   */\n      dup2\n        /* \"#utility.yul\":11432:11436   */\n      dup2\n        /* \"#utility.yul\":11428:11448   */\n      sub\n        /* \"#utility.yul\":11424:11425   */\n      0x00\n        /* \"#utility.yul\":11413:11422   */\n      dup4\n        /* \"#utility.yul\":11409:11426   */\n      add\n        /* \"#utility.yul\":11402:11449   */\n      mstore\n        /* \"#utility.yul\":11466:11597   */\n      tag_300\n        /* \"#utility.yul\":11592:11596   */\n      dup2\n        /* \"#utility.yul\":11466:11597   */\n      tag_175\n      jump\t// in\n    tag_300:\n        /* \"#utility.yul\":11458:11597   */\n      swap1\n      pop\n        /* \"#utility.yul\":11185:11604   */\n      swap2\n      swap1\n      pop\n      jump\t// out\n        /* \"#utility.yul\":11610:11801   */\n    tag_117:\n        /* \"#utility.yul\":11650:11653   */\n      0x00\n        /* \"#utility.yul\":11669:11689   */\n      tag_302\n        /* \"#utility.yul\":11687:11688   */\n      dup3\n        /* \"#utility.yul\":11669:11689   */\n      tag_161\n      jump\t// in\n    tag_302:\n        /* \"#utility.yul\":11664:11689   */\n      swap2\n      pop\n        /* \"#utility.yul\":11703:11723   */\n      tag_303\n        /* \"#utility.yul\":11721:11722   */\n      dup4\n        /* \"#utility.yul\":11703:11723   */\n      tag_161\n      jump\t// in\n    tag_303:\n        /* \"#utility.yul\":11698:11723   */\n      swap3\n      pop\n        /* \"#utility.yul\":11746:11747   */\n      dup3\n        /* \"#utility.yul\":11743:11744   */\n      dup3\n        /* \"#utility.yul\":11739:11748   */\n      add\n        /* \"#utility.yul\":11732:11748   */\n      swap1\n      pop\n        /* \"#utility.yul\":11767:11770   */\n      dup1\n        /* \"#utility.yul\":11764:11765   */\n      dup3\n        /* \"#utility.yul\":11761:11771   */\n      gt\n        /* \"#utility.yul\":11758:11794   */\n      iszero\n      tag_304\n      jumpi\n        /* \"#utility.yul\":11774:11792   */\n      tag_305\n      tag_170\n      jump\t// in\n    tag_305:\n        /* \"#utility.yul\":11758:11794   */\n    tag_304:\n        /* \"#utility.yul\":11610:11801   */\n      swap3\n      swap2\n      pop\n      pop\n      jump\t// out\n        /* \"#utility.yul\":11807:11987   */\n    tag_124:\n        /* \"#utility.yul\":11855:11932   */\n      0x4e487b7100000000000000000000000000000000000000000000000000000000\n        /* \"#utility.yul\":11852:11853   */\n      0x00\n        /* \"#utility.yul\":11845:11933   */\n      mstore\n        /* \"#utility.yul\":11952:11956   */\n      0x31\n        /* \"#utility.yul\":11949:11950   */\n      0x04\n        /* \"#utility.yul\":11942:11957   */\n      mstore\n        /* \"#utility.yul\":11976:11980   */\n      0x24\n        /* \"#utility.yul\":11973:11974   */\n      0x00\n        /* \"#utility.yul\":11966:11981   */\n      revert\n\n    auxdata: 0xa2646970667358221220572c748e6297212a6a178bf25fd74eefa848c9b0306dbe73adccab19d3f2e43164736f6c63430008120033\n}\n",
				"bytecode": {
					"linkReferences": {},
					"object": "608060405234801561001057600080fd5b5061140b806100206000396000f3fe60806040526004361061007b5760003560e01c8063a96620e11161004e578063a96620e114610140578063cf1f9be41461017f578063da52c6ff146101be578063f7c03b80146101e75761007b565b806305d01f5014610080578063225c3957146100bd5780632efae33e146100d957806347f32e5d14610117575b600080fd5b34801561008c57600080fd5b506100a760048036038101906100a29190610ebf565b610203565b6040516100b49190610f34565b60405180910390f35b6100d760048036038101906100d29190610f7b565b61023e565b005b3480156100e557600080fd5b5061010060048036038101906100fb9190610fea565b610524565b60405161010e929190611033565b60405180910390f35b34801561012357600080fd5b5061013e6004803603810190610139919061105c565b61055e565b005b34801561014c57600080fd5b506101676004803603810190610162919061105c565b6105eb565b604051610176939291906110c7565b60405180910390f35b34801561018b57600080fd5b506101a660048036038101906101a1919061105c565b610668565b6040516101b5939291906110c7565b60405180910390f35b3480156101ca57600080fd5b506101e560048036038101906101e09190610f7b565b6106e5565b005b61020160048036038101906101fc9190610f7b565b610872565b005b600160205281600052604060002081805160208101820180518482526020830160208501208183528095505050505050600091509150505481565b6000600284604051610250919061116f565b90815260200160405180910390209050600082905060005b82805490508110801561027b5750600082115b1561043757600083828154811061029557610294611186565b5b9060005260206000209060030201905085816001015410610423576000838260020154106102c357836102c9565b81600201545b905080846102d791906111e4565b9350808260020160008282546102ed91906111e4565b9250508190555080600160003373ffffffffffffffffffffffffffffffffffffffff1673ffffffffffffffffffffffffffffffffffffffff16815260200190815260200160002089604051610342919061116f565b9081526020016040518091039020600082825461035f91906111e4565b9250508190555080600160008460000160009054906101000a900473ffffffffffffffffffffffffffffffffffffffff1673ffffffffffffffffffffffffffffffffffffffff1673ffffffffffffffffffffffffffffffffffffffff168152602001908152602001600020896040516103d8919061116f565b908152602001604051809103902060008282546103f591906111e4565b925050819055506000826002015403610421576104128584610bb9565b828061041d90611218565b9350505b505b50808061042f90611241565b915050610268565b50600081111561051d57600060405180606001604052803373ffffffffffffffffffffffffffffffffffffffff168152602001868152602001838152509050600386604051610486919061116f565b908152602001604051809103902081908060018154018082558091505060019003906000526020600020906003020160009091909190915060008201518160000160006101000a81548173ffffffffffffffffffffffffffffffffffffffff021916908373ffffffffffffffffffffffffffffffffffffffff16021790555060208201518160010155604082015181600201555050505b5050505050565b6000818051602081018201805184825260208301602085012081835280955050505050506000915090508060000154908060010154905082565b6000808360405161056f919061116f565b908152602001604051809103902060000154116105c1576040517f08c379a00000000000000000000000000000000000000000000000000000000081526004016105b8906112e6565b60405180910390fd5b806000836040516105d2919061116f565b9081526020016040518091039020600001819055505050565b600382805160208101820180518482526020830160208501208183528095505050505050818154811061061d57600080fd5b9060005260206000209060030201600091509150508060000160009054906101000a900473ffffffffffffffffffffffffffffffffffffffff16908060010154908060020154905083565b600282805160208101820180518482526020830160208501208183528095505050505050818154811061069a57600080fd5b9060005260206000209060030201600091509150508060000160009054906101000a900473ffffffffffffffffffffffffffffffffffffffff16908060010154908060020154905083565b600080846040516106f6919061116f565b90815260200160405180910390206000015414610748576040517f08c379a000000000000000000000000000000000000000000000000000000000815260040161073f90611352565b60405180910390fd5b60405180604001604052808381526020018281525060008460405161076d919061116f565b90815260200160405180910390206000820151816000015560208201518160010155905050600060405180606001604052803373ffffffffffffffffffffffffffffffffffffffff1681526020018481526020018381525090506003846040516107d7919061116f565b908152602001604051809103902081908060018154018082558091505060019003906000526020600020906003020160009091909190915060008201518160000160006101000a81548173ffffffffffffffffffffffffffffffffffffffff021916908373ffffffffffffffffffffffffffffffffffffffff1602179055506020820151816001015560408201518160020155505050505050565b6000600384604051610884919061116f565b90815260200160405180910390209050600082905060005b8280549050811080156108af5750600082115b15610acc5760008382815481106108c9576108c8611186565b5b9060005260206000209060030201905085816001015411610ab8576000838260020154106108f757836108fd565b81600201545b9050808461090b91906111e4565b93508082600201600082825461092191906111e4565b9250508190555080600160003373ffffffffffffffffffffffffffffffffffffffff1673ffffffffffffffffffffffffffffffffffffffff16815260200190815260200160002089604051610976919061116f565b908152602001604051809103902060008282546109939190611372565b9250508190555080600160008460000160009054906101000a900473ffffffffffffffffffffffffffffffffffffffff1673ffffffffffffffffffffffffffffffffffffffff1673ffffffffffffffffffffffffffffffffffffffff16815260200190815260200160002089604051610a0c919061116f565b90815260200160405180910390206000828254610a2991906111e4565b925050819055506000826002015403610ab657610a468584610bb9565b84805480610a5757610a566113a6565b5b6001900381819060005260206000209060030201600080820160006101000a81549073ffffffffffffffffffffffffffffffffffffffff021916905560018201600090556002820160009055505090558280610ab290611218565b9350505b505b508080610ac490611241565b91505061089c565b506000811115610bb257600060405180606001604052803373ffffffffffffffffffffffffffffffffffffffff168152602001868152602001838152509050600286604051610b1b919061116f565b908152602001604051809103902081908060018154018082558091505060019003906000526020600020906003020160009091909190915060008201518160000160006101000a81548173ffffffffffffffffffffffffffffffffffffffff021916908373ffffffffffffffffffffffffffffffffffffffff16021790555060208201518160010155604082015181600201555050505b5050505050565b60018280549050610bca91906111e4565b811015610ca2578160018380549050610be391906111e4565b81548110610bf457610bf3611186565b5b9060005260206000209060030201828281548110610c1557610c14611186565b5b90600052602060002090600302016000820160009054906101000a900473ffffffffffffffffffffffffffffffffffffffff168160000160006101000a81548173ffffffffffffffffffffffffffffffffffffffff021916908373ffffffffffffffffffffffffffffffffffffffff16021790555060018201548160010155600282015481600201559050505b81805480610cb357610cb26113a6565b5b6001900381819060005260206000209060030201600080820160006101000a81549073ffffffffffffffffffffffffffffffffffffffff021916905560018201600090556002820160009055505090555050565b6000604051905090565b600080fd5b600080fd5b600073ffffffffffffffffffffffffffffffffffffffff82169050919050565b6000610d4682610d1b565b9050919050565b610d5681610d3b565b8114610d6157600080fd5b50565b600081359050610d7381610d4d565b92915050565b600080fd5b600080fd5b6000601f19601f8301169050919050565b7f4e487b7100000000000000000000000000000000000000000000000000000000600052604160045260246000fd5b610dcc82610d83565b810181811067ffffffffffffffff82111715610deb57610dea610d94565b5b80604052505050565b6000610dfe610d07565b9050610e0a8282610dc3565b919050565b600067ffffffffffffffff821115610e2a57610e29610d94565b5b610e3382610d83565b9050602081019050919050565b82818337600083830152505050565b6000610e62610e5d84610e0f565b610df4565b905082815260208101848484011115610e7e57610e7d610d7e565b5b610e89848285610e40565b509392505050565b600082601f830112610ea657610ea5610d79565b5b8135610eb6848260208601610e4f565b91505092915050565b60008060408385031215610ed657610ed5610d11565b5b6000610ee485828601610d64565b925050602083013567ffffffffffffffff811115610f0557610f04610d16565b5b610f1185828601610e91565b9150509250929050565b6000819050919050565b610f2e81610f1b565b82525050565b6000602082019050610f496000830184610f25565b92915050565b610f5881610f1b565b8114610f6357600080fd5b50565b600081359050610f7581610f4f565b92915050565b600080600060608486031215610f9457610f93610d11565b5b600084013567ffffffffffffffff811115610fb257610fb1610d16565b5b610fbe86828701610e91565b9350506020610fcf86828701610f66565b9250506040610fe086828701610f66565b9150509250925092565b60006020828403121561100057610fff610d11565b5b600082013567ffffffffffffffff81111561101e5761101d610d16565b5b61102a84828501610e91565b91505092915050565b60006040820190506110486000830185610f25565b6110556020830184610f25565b9392505050565b6000806040838503121561107357611072610d11565b5b600083013567ffffffffffffffff81111561109157611090610d16565b5b61109d85828601610e91565b92505060206110ae85828601610f66565b9150509250929050565b6110c181610d3b565b82525050565b60006060820190506110dc60008301866110b8565b6110e96020830185610f25565b6110f66040830184610f25565b949350505050565b600081519050919050565b600081905092915050565b60005b83811015611132578082015181840152602081019050611117565b60008484015250505050565b6000611149826110fe565b6111538185611109565b9350611163818560208601611114565b80840191505092915050565b600061117b828461113e565b915081905092915050565b7f4e487b7100000000000000000000000000000000000000000000000000000000600052603260045260246000fd5b7f4e487b7100000000000000000000000000000000000000000000000000000000600052601160045260246000fd5b60006111ef82610f1b565b91506111fa83610f1b565b9250828203905081811115611212576112116111b5565b5b92915050565b600061122382610f1b565b915060008203611236576112356111b5565b5b600182039050919050565b600061124c82610f1b565b91507fffffffffffffffffffffffffffffffffffffffffffffffffffffffffffffffff820361127e5761127d6111b5565b5b600182019050919050565b600082825260208201905092915050565b7f53746f636b206e6f7420646f756e640000000000000000000000000000000000600082015250565b60006112d0600f83611289565b91506112db8261129a565b602082019050919050565b600060208201905081810360008301526112ff816112c3565b9050919050565b7f53746f636b20616c726561647920657869737473000000000000000000000000600082015250565b600061133c601483611289565b915061134782611306565b602082019050919050565b6000602082019050818103600083015261136b8161132f565b9050919050565b600061137d82610f1b565b915061138883610f1b565b92508282019050808211156113a05761139f6111b5565b5b92915050565b7f4e487b7100000000000000000000000000000000000000000000000000000000600052603160045260246000fdfea2646970667358221220572c748e6297212a6a178bf25fd74eefa848c9b0306dbe73adccab19d3f2e43164736f6c63430008120033",
					"opcodes": "PUSH1 0x80 PUSH1 0x40 MSTORE CALLVALUE DUP1 ISZERO PUSH2 0x10 JUMPI PUSH1 0x0 DUP1 REVERT JUMPDEST POP PUSH2 0x140B DUP1 PUSH2 0x20 PUSH1 0x0 CODECOPY PUSH1 0x0 RETURN INVALID PUSH1 0x80 PUSH1 0x40 MSTORE PUSH1 0x4 CALLDATASIZE LT PUSH2 0x7B JUMPI PUSH1 0x0 CALLDATALOAD PUSH1 0xE0 SHR DUP1 PUSH4 0xA96620E1 GT PUSH2 0x4E JUMPI DUP1 PUSH4 0xA96620E1 EQ PUSH2 0x140 JUMPI DUP1 PUSH4 0xCF1F9BE4 EQ PUSH2 0x17F JUMPI DUP1 PUSH4 0xDA52C6FF EQ PUSH2 0x1BE JUMPI DUP1 PUSH4 0xF7C03B80 EQ PUSH2 0x1E7 JUMPI PUSH2 0x7B JUMP JUMPDEST DUP1 PUSH4 0x5D01F50 EQ PUSH2 0x80 JUMPI DUP1 PUSH4 0x225C3957 EQ PUSH2 0xBD JUMPI DUP1 PUSH4 0x2EFAE33E EQ PUSH2 0xD9 JUMPI DUP1 PUSH4 0x47F32E5D EQ PUSH2 0x117 JUMPI JUMPDEST PUSH1 0x0 DUP1 REVERT JUMPDEST CALLVALUE DUP1 ISZERO PUSH2 0x8C JUMPI PUSH1 0x0 DUP1 REVERT JUMPDEST POP PUSH2 0xA7 PUSH1 0x4 DUP1 CALLDATASIZE SUB DUP2 ADD SWAP1 PUSH2 0xA2 SWAP2 SWAP1 PUSH2 0xEBF JUMP JUMPDEST PUSH2 0x203 JUMP JUMPDEST PUSH1 0x40 MLOAD PUSH2 0xB4 SWAP2 SWAP1 PUSH2 0xF34 JUMP JUMPDEST PUSH1 0x40 MLOAD DUP1 SWAP2 SUB SWAP1 RETURN JUMPDEST PUSH2 0xD7 PUSH1 0x4 DUP1 CALLDATASIZE SUB DUP2 ADD SWAP1 PUSH2 0xD2 SWAP2 SWAP1 PUSH2 0xF7B JUMP JUMPDEST PUSH2 0x23E JUMP JUMPDEST STOP JUMPDEST CALLVALUE DUP1 ISZERO PUSH2 0xE5 JUMPI PUSH1 0x0 DUP1 REVERT JUMPDEST POP PUSH2 0x100 PUSH1 0x4 DUP1 CALLDATASIZE SUB DUP2 ADD SWAP1 PUSH2 0xFB SWAP2 SWAP1 PUSH2 0xFEA JUMP JUMPDEST PUSH2 0x524 JUMP JUMPDEST PUSH1 0x40 MLOAD PUSH2 0x10E SWAP3 SWAP2 SWAP1 PUSH2 0x1033 JUMP JUMPDEST PUSH1 0x40 MLOAD DUP1 SWAP2 SUB SWAP1 RETURN JUMPDEST CALLVALUE DUP1 ISZERO PUSH2 0x123 JUMPI PUSH1 0x0 DUP1 REVERT JUMPDEST POP PUSH2 0x13E PUSH1 0x4 DUP1 CALLDATASIZE SUB DUP2 ADD SWAP1 PUSH2 0x139 SWAP2 SWAP1 PUSH2 0x105C JUMP JUMPDEST PUSH2 0x55E JUMP JUMPDEST STOP JUMPDEST CALLVALUE DUP1 ISZERO PUSH2 0x14C JUMPI PUSH1 0x0 DUP1 REVERT JUMPDEST POP PUSH2 0x167 PUSH1 0x4 DUP1 CALLDATASIZE SUB DUP2 ADD SWAP1 PUSH2 0x162 SWAP2 SWAP1 PUSH2 0x105C JUMP JUMPDEST PUSH2 0x5EB JUMP JUMPDEST PUSH1 0x40 MLOAD PUSH2 0x176 SWAP4 SWAP3 SWAP2 SWAP1 PUSH2 0x10C7 JUMP JUMPDEST PUSH1 0x40 MLOAD DUP1 SWAP2 SUB SWAP1 RETURN JUMPDEST CALLVALUE DUP1 ISZERO PUSH2 0x18B JUMPI PUSH1 0x0 DUP1 REVERT JUMPDEST POP PUSH2 0x1A6 PUSH1 0x4 DUP1 CALLDATASIZE SUB DUP2 ADD SWAP1 PUSH2 0x1A1 SWAP2 SWAP1 PUSH2 0x105C JUMP JUMPDEST PUSH2 0x668 JUMP JUMPDEST PUSH1 0x40 MLOAD PUSH2 0x1B5 SWAP4 SWAP3 SWAP2 SWAP1 PUSH2 0x10C7 JUMP JUMPDEST PUSH1 0x40 MLOAD DUP1 SWAP2 SUB SWAP1 RETURN JUMPDEST CALLVALUE DUP1 ISZERO PUSH2 0x1CA JUMPI PUSH1 0x0 DUP1 REVERT JUMPDEST POP PUSH2 0x1E5 PUSH1 0x4 DUP1 CALLDATASIZE SUB DUP2 ADD SWAP1 PUSH2 0x1E0 SWAP2 SWAP1 PUSH2 0xF7B JUMP JUMPDEST PUSH2 0x6E5 JUMP JUMPDEST STOP JUMPDEST PUSH2 0x201 PUSH1 0x4 DUP1 CALLDATASIZE SUB DUP2 ADD SWAP1 PUSH2 0x1FC SWAP2 SWAP1 PUSH2 0xF7B JUMP JUMPDEST PUSH2 0x872 JUMP JUMPDEST STOP JUMPDEST PUSH1 0x1 PUSH1 0x20 MSTORE DUP2 PUSH1 0x0 MSTORE PUSH1 0x40 PUSH1 0x0 KECCAK256 DUP2 DUP1 MLOAD PUSH1 0x20 DUP2 ADD DUP3 ADD DUP1 MLOAD DUP5 DUP3 MSTORE PUSH1 0x20 DUP4 ADD PUSH1 0x20 DUP6 ADD KECCAK256 DUP2 DUP4 MSTORE DUP1 SWAP6 POP POP POP POP POP POP PUSH1 0x0 SWAP2 POP SWAP2 POP POP SLOAD DUP2 JUMP JUMPDEST PUSH1 0x0 PUSH1 0x2 DUP5 PUSH1 0x40 MLOAD PUSH2 0x250 SWAP2 SWAP1 PUSH2 0x116F JUMP JUMPDEST SWAP1 DUP2 MSTORE PUSH1 0x20 ADD PUSH1 0x40 MLOAD DUP1 SWAP2 SUB SWAP1 KECCAK256 SWAP1 POP PUSH1 0x0 DUP3 SWAP1 POP PUSH1 0x0 JUMPDEST DUP3 DUP1 SLOAD SWAP1 POP DUP2 LT DUP1 ISZERO PUSH2 0x27B JUMPI POP PUSH1 0x0 DUP3 GT JUMPDEST ISZERO PUSH2 0x437 JUMPI PUSH1 0x0 DUP4 DUP3 DUP2 SLOAD DUP2 LT PUSH2 0x295 JUMPI PUSH2 0x294 PUSH2 0x1186 JUMP JUMPDEST JUMPDEST SWAP1 PUSH1 0x0 MSTORE PUSH1 0x20 PUSH1 0x0 KECCAK256 SWAP1 PUSH1 0x3 MUL ADD SWAP1 POP DUP6 DUP2 PUSH1 0x1 ADD SLOAD LT PUSH2 0x423 JUMPI PUSH1 0x0 DUP4 DUP3 PUSH1 0x2 ADD SLOAD LT PUSH2 0x2C3 JUMPI DUP4 PUSH2 0x2C9 JUMP JUMPDEST DUP2 PUSH1 0x2 ADD SLOAD JUMPDEST SWAP1 POP DUP1 DUP5 PUSH2 0x2D7 SWAP2 SWAP1 PUSH2 0x11E4 JUMP JUMPDEST SWAP4 POP DUP1 DUP3 PUSH1 0x2 ADD PUSH1 0x0 DUP3 DUP3 SLOAD PUSH2 0x2ED SWAP2 SWAP1 PUSH2 0x11E4 JUMP JUMPDEST SWAP3 POP POP DUP2 SWAP1 SSTORE POP DUP1 PUSH1 0x1 PUSH1 0x0 CALLER PUSH20 0xFFFFFFFFFFFFFFFFFFFFFFFFFFFFFFFFFFFFFFFF AND PUSH20 0xFFFFFFFFFFFFFFFFFFFFFFFFFFFFFFFFFFFFFFFF AND DUP2 MSTORE PUSH1 0x20 ADD SWAP1 DUP2 MSTORE PUSH1 0x20 ADD PUSH1 0x0 KECCAK256 DUP10 PUSH1 0x40 MLOAD PUSH2 0x342 SWAP2 SWAP1 PUSH2 0x116F JUMP JUMPDEST SWAP1 DUP2 MSTORE PUSH1 0x20 ADD PUSH1 0x40 MLOAD DUP1 SWAP2 SUB SWAP1 KECCAK256 PUSH1 0x0 DUP3 DUP3 SLOAD PUSH2 0x35F SWAP2 SWAP1 PUSH2 0x11E4 JUMP JUMPDEST SWAP3 POP POP DUP2 SWAP1 SSTORE POP DUP1 PUSH1 0x1 PUSH1 0x0 DUP5 PUSH1 0x0 ADD PUSH1 0x0 SWAP1 SLOAD SWAP1 PUSH2 0x100 EXP SWAP1 DIV PUSH20 0xFFFFFFFFFFFFFFFFFFFFFFFFFFFFFFFFFFFFFFFF AND PUSH20 0xFFFFFFFFFFFFFFFFFFFFFFFFFFFFFFFFFFFFFFFF AND PUSH20 0xFFFFFFFFFFFFFFFFFFFFFFFFFFFFFFFFFFFFFFFF AND DUP2 MSTORE PUSH1 0x20 ADD SWAP1 DUP2 MSTORE PUSH1 0x20 ADD PUSH1 0x0 KECCAK256 DUP10 PUSH1 0x40 MLOAD PUSH2 0x3D8 SWAP2 SWAP1 PUSH2 0x116F JUMP JUMPDEST SWAP1 DUP2 MSTORE PUSH1 0x20 ADD PUSH1 0x40 MLOAD DUP1 SWAP2 SUB SWAP1 KECCAK256 PUSH1 0x0 DUP3 DUP3 SLOAD PUSH2 0x3F5 SWAP2 SWAP1 PUSH2 0x11E4 JUMP JUMPDEST SWAP3 POP POP DUP2 SWAP1 SSTORE POP PUSH1 0x0 DUP3 PUSH1 0x2 ADD SLOAD SUB PUSH2 0x421 JUMPI PUSH2 0x412 DUP6 DUP5 PUSH2 0xBB9 JUMP JUMPDEST DUP3 DUP1 PUSH2 0x41D SWAP1 PUSH2 0x1218 JUMP JUMPDEST SWAP4 POP POP JUMPDEST POP JUMPDEST POP DUP1 DUP1 PUSH2 0x42F SWAP1 PUSH2 0x1241 JUMP JUMPDEST SWAP2 POP POP PUSH2 0x268 JUMP JUMPDEST POP PUSH1 0x0 DUP2 GT ISZERO PUSH2 0x51D JUMPI PUSH1 0x0 PUSH1 0x40 MLOAD DUP1 PUSH1 0x60 ADD PUSH1 0x40 MSTORE DUP1 CALLER PUSH20 0xFFFFFFFFFFFFFFFFFFFFFFFFFFFFFFFFFFFFFFFF AND DUP2 MSTORE PUSH1 0x20 ADD DUP7 DUP2 MSTORE PUSH1 0x20 ADD DUP4 DUP2 MSTORE POP SWAP1 POP PUSH1 0x3 DUP7 PUSH1 0x40 MLOAD PUSH2 0x486 SWAP2 SWAP1 PUSH2 0x116F JUMP JUMPDEST SWAP1 DUP2 MSTORE PUSH1 0x20 ADD PUSH1 0x40 MLOAD DUP1 SWAP2 SUB SWAP1 KECCAK256 DUP2 SWAP1 DUP1 PUSH1 0x1 DUP2 SLOAD ADD DUP1 DUP3 SSTORE DUP1 SWAP2 POP POP PUSH1 0x1 SWAP1 SUB SWAP1 PUSH1 0x0 MSTORE PUSH1 0x20 PUSH1 0x0 KECCAK256 SWAP1 PUSH1 0x3 MUL ADD PUSH1 0x0 SWAP1 SWAP2 SWAP1 SWAP2 SWAP1 SWAP2 POP PUSH1 0x0 DUP3 ADD MLOAD DUP2 PUSH1 0x0 ADD PUSH1 0x0 PUSH2 0x100 EXP DUP2 SLOAD DUP2 PUSH20 0xFFFFFFFFFFFFFFFFFFFFFFFFFFFFFFFFFFFFFFFF MUL NOT AND SWAP1 DUP4 PUSH20 0xFFFFFFFFFFFFFFFFFFFFFFFFFFFFFFFFFFFFFFFF AND MUL OR SWAP1 SSTORE POP PUSH1 0x20 DUP3 ADD MLOAD DUP2 PUSH1 0x1 ADD SSTORE PUSH1 0x40 DUP3 ADD MLOAD DUP2 PUSH1 0x2 ADD SSTORE POP POP POP JUMPDEST POP POP POP POP POP JUMP JUMPDEST PUSH1 0x0 DUP2 DUP1 MLOAD PUSH1 0x20 DUP2 ADD DUP3 ADD DUP1 MLOAD DUP5 DUP3 MSTORE PUSH1 0x20 DUP4 ADD PUSH1 0x20 DUP6 ADD KECCAK256 DUP2 DUP4 MSTORE DUP1 SWAP6 POP POP POP POP POP POP PUSH1 0x0 SWAP2 POP SWAP1 POP DUP1 PUSH1 0x0 ADD SLOAD SWAP1 DUP1 PUSH1 0x1 ADD SLOAD SWAP1 POP DUP3 JUMP JUMPDEST PUSH1 0x0 DUP1 DUP4 PUSH1 0x40 MLOAD PUSH2 0x56F SWAP2 SWAP1 PUSH2 0x116F JUMP JUMPDEST SWAP1 DUP2 MSTORE PUSH1 0x20 ADD PUSH1 0x40 MLOAD DUP1 SWAP2 SUB SWAP1 KECCAK256 PUSH1 0x0 ADD SLOAD GT PUSH2 0x5C1 JUMPI PUSH1 0x40 MLOAD PUSH32 0x8C379A000000000000000000000000000000000000000000000000000000000 DUP2 MSTORE PUSH1 0x4 ADD PUSH2 0x5B8 SWAP1 PUSH2 0x12E6 JUMP JUMPDEST PUSH1 0x40 MLOAD DUP1 SWAP2 SUB SWAP1 REVERT JUMPDEST DUP1 PUSH1 0x0 DUP4 PUSH1 0x40 MLOAD PUSH2 0x5D2 SWAP2 SWAP1 PUSH2 0x116F JUMP JUMPDEST SWAP1 DUP2 MSTORE PUSH1 0x20 ADD PUSH1 0x40 MLOAD DUP1 SWAP2 SUB SWAP1 KECCAK256 PUSH1 0x0 ADD DUP2 SWAP1 SSTORE POP POP POP JUMP JUMPDEST PUSH1 0x3 DUP3 DUP1 MLOAD PUSH1 0x20 DUP2 ADD DUP3 ADD DUP1 MLOAD DUP5 DUP3 MSTORE PUSH1 0x20 DUP4 ADD PUSH1 0x20 DUP6 ADD KECCAK256 DUP2 DUP4 MSTORE DUP1 SWAP6 POP POP POP POP POP POP DUP2 DUP2 SLOAD DUP2 LT PUSH2 0x61D JUMPI PUSH1 0x0 DUP1 REVERT JUMPDEST SWAP1 PUSH1 0x0 MSTORE PUSH1 0x20 PUSH1 0x0 KECCAK256 SWAP1 PUSH1 0x3 MUL ADD PUSH1 0x0 SWAP2 POP SWAP2 POP POP DUP1 PUSH1 0x0 ADD PUSH1 0x0 SWAP1 SLOAD SWAP1 PUSH2 0x100 EXP SWAP1 DIV PUSH20 0xFFFFFFFFFFFFFFFFFFFFFFFFFFFFFFFFFFFFFFFF AND SWAP1 DUP1 PUSH1 0x1 ADD SLOAD SWAP1 DUP1 PUSH1 0x2 ADD SLOAD SWAP1 POP DUP4 JUMP JUMPDEST PUSH1 0x2 DUP3 DUP1 MLOAD PUSH1 0x20 DUP2 ADD DUP3 ADD DUP1 MLOAD DUP5 DUP3 MSTORE PUSH1 0x20 DUP4 ADD PUSH1 0x20 DUP6 ADD KECCAK256 DUP2 DUP4 MSTORE DUP1 SWAP6 POP POP POP POP POP POP DUP2 DUP2 SLOAD DUP2 LT PUSH2 0x69A JUMPI PUSH1 0x0 DUP1 REVERT JUMPDEST SWAP1 PUSH1 0x0 MSTORE PUSH1 0x20 PUSH1 0x0 KECCAK256 SWAP1 PUSH1 0x3 MUL ADD PUSH1 0x0 SWAP2 POP SWAP2 POP POP DUP1 PUSH1 0x0 ADD PUSH1 0x0 SWAP1 SLOAD SWAP1 PUSH2 0x100 EXP SWAP1 DIV PUSH20 0xFFFFFFFFFFFFFFFFFFFFFFFFFFFFFFFFFFFFFFFF AND SWAP1 DUP1 PUSH1 0x1 ADD SLOAD SWAP1 DUP1 PUSH1 0x2 ADD SLOAD SWAP1 POP DUP4 JUMP JUMPDEST PUSH1 0x0 DUP1 DUP5 PUSH1 0x40 MLOAD PUSH2 0x6F6 SWAP2 SWAP1 PUSH2 0x116F JUMP JUMPDEST SWAP1 DUP2 MSTORE PUSH1 0x20 ADD PUSH1 0x40 MLOAD DUP1 SWAP2 SUB SWAP1 KECCAK256 PUSH1 0x0 ADD SLOAD EQ PUSH2 0x748 JUMPI PUSH1 0x40 MLOAD PUSH32 0x8C379A000000000000000000000000000000000000000000000000000000000 DUP2 MSTORE PUSH1 0x4 ADD PUSH2 0x73F SWAP1 PUSH2 0x1352 JUMP JUMPDEST PUSH1 0x40 MLOAD DUP1 SWAP2 SUB SWAP1 REVERT JUMPDEST PUSH1 0x40 MLOAD DUP1 PUSH1 0x40 ADD PUSH1 0x40 MSTORE DUP1 DUP4 DUP2 MSTORE PUSH1 0x20 ADD DUP3 DUP2 MSTORE POP PUSH1 0x0 DUP5 PUSH1 0x40 MLOAD PUSH2 0x76D SWAP2 SWAP1 PUSH2 0x116F JUMP JUMPDEST SWAP1 DUP2 MSTORE PUSH1 0x20 ADD PUSH1 0x40 MLOAD DUP1 SWAP2 SUB SWAP1 KECCAK256 PUSH1 0x0 DUP3 ADD MLOAD DUP2 PUSH1 0x0 ADD SSTORE PUSH1 0x20 DUP3 ADD MLOAD DUP2 PUSH1 0x1 ADD SSTORE SWAP1 POP POP PUSH1 0x0 PUSH1 0x40 MLOAD DUP1 PUSH1 0x60 ADD PUSH1 0x40 MSTORE DUP1 CALLER PUSH20 0xFFFFFFFFFFFFFFFFFFFFFFFFFFFFFFFFFFFFFFFF AND DUP2 MSTORE PUSH1 0x20 ADD DUP5 DUP2 MSTORE PUSH1 0x20 ADD DUP4 DUP2 MSTORE POP SWAP1 POP PUSH1 0x3 DUP5 PUSH1 0x40 MLOAD PUSH2 0x7D7 SWAP2 SWAP1 PUSH2 0x116F JUMP JUMPDEST SWAP1 DUP2 MSTORE PUSH1 0x20 ADD PUSH1 0x40 MLOAD DUP1 SWAP2 SUB SWAP1 KECCAK256 DUP2 SWAP1 DUP1 PUSH1 0x1 DUP2 SLOAD ADD DUP1 DUP3 SSTORE DUP1 SWAP2 POP POP PUSH1 0x1 SWAP1 SUB SWAP1 PUSH1 0x0 MSTORE PUSH1 0x20 PUSH1 0x0 KECCAK256 SWAP1 PUSH1 0x3 MUL ADD PUSH1 0x0 SWAP1 SWAP2 SWAP1 SWAP2 SWAP1 SWAP2 POP PUSH1 0x0 DUP3 ADD MLOAD DUP2 PUSH1 0x0 ADD PUSH1 0x0 PUSH2 0x100 EXP DUP2 SLOAD DUP2 PUSH20 0xFFFFFFFFFFFFFFFFFFFFFFFFFFFFFFFFFFFFFFFF MUL NOT AND SWAP1 DUP4 PUSH20 0xFFFFFFFFFFFFFFFFFFFFFFFFFFFFFFFFFFFFFFFF AND MUL OR SWAP1 SSTORE POP PUSH1 0x20 DUP3 ADD MLOAD DUP2 PUSH1 0x1 ADD SSTORE PUSH1 0x40 DUP3 ADD MLOAD DUP2 PUSH1 0x2 ADD SSTORE POP POP POP POP POP POP JUMP JUMPDEST PUSH1 0x0 PUSH1 0x3 DUP5 PUSH1 0x40 MLOAD PUSH2 0x884 SWAP2 SWAP1 PUSH2 0x116F JUMP JUMPDEST SWAP1 DUP2 MSTORE PUSH1 0x20 ADD PUSH1 0x40 MLOAD DUP1 SWAP2 SUB SWAP1 KECCAK256 SWAP1 POP PUSH1 0x0 DUP3 SWAP1 POP PUSH1 0x0 JUMPDEST DUP3 DUP1 SLOAD SWAP1 POP DUP2 LT DUP1 ISZERO PUSH2 0x8AF JUMPI POP PUSH1 0x0 DUP3 GT JUMPDEST ISZERO PUSH2 0xACC JUMPI PUSH1 0x0 DUP4 DUP3 DUP2 SLOAD DUP2 LT PUSH2 0x8C9 JUMPI PUSH2 0x8C8 PUSH2 0x1186 JUMP JUMPDEST JUMPDEST SWAP1 PUSH1 0x0 MSTORE PUSH1 0x20 PUSH1 0x0 KECCAK256 SWAP1 PUSH1 0x3 MUL ADD SWAP1 POP DUP6 DUP2 PUSH1 0x1 ADD SLOAD GT PUSH2 0xAB8 JUMPI PUSH1 0x0 DUP4 DUP3 PUSH1 0x2 ADD SLOAD LT PUSH2 0x8F7 JUMPI DUP4 PUSH2 0x8FD JUMP JUMPDEST DUP2 PUSH1 0x2 ADD SLOAD JUMPDEST SWAP1 POP DUP1 DUP5 PUSH2 0x90B SWAP2 SWAP1 PUSH2 0x11E4 JUMP JUMPDEST SWAP4 POP DUP1 DUP3 PUSH1 0x2 ADD PUSH1 0x0 DUP3 DUP3 SLOAD PUSH2 0x921 SWAP2 SWAP1 PUSH2 0x11E4 JUMP JUMPDEST SWAP3 POP POP DUP2 SWAP1 SSTORE POP DUP1 PUSH1 0x1 PUSH1 0x0 CALLER PUSH20 0xFFFFFFFFFFFFFFFFFFFFFFFFFFFFFFFFFFFFFFFF AND PUSH20 0xFFFFFFFFFFFFFFFFFFFFFFFFFFFFFFFFFFFFFFFF AND DUP2 MSTORE PUSH1 0x20 ADD SWAP1 DUP2 MSTORE PUSH1 0x20 ADD PUSH1 0x0 KECCAK256 DUP10 PUSH1 0x40 MLOAD PUSH2 0x976 SWAP2 SWAP1 PUSH2 0x116F JUMP JUMPDEST SWAP1 DUP2 MSTORE PUSH1 0x20 ADD PUSH1 0x40 MLOAD DUP1 SWAP2 SUB SWAP1 KECCAK256 PUSH1 0x0 DUP3 DUP3 SLOAD PUSH2 0x993 SWAP2 SWAP1 PUSH2 0x1372 JUMP JUMPDEST SWAP3 POP POP DUP2 SWAP1 SSTORE POP DUP1 PUSH1 0x1 PUSH1 0x0 DUP5 PUSH1 0x0 ADD PUSH1 0x0 SWAP1 SLOAD SWAP1 PUSH2 0x100 EXP SWAP1 DIV PUSH20 0xFFFFFFFFFFFFFFFFFFFFFFFFFFFFFFFFFFFFFFFF AND PUSH20 0xFFFFFFFFFFFFFFFFFFFFFFFFFFFFFFFFFFFFFFFF AND PUSH20 0xFFFFFFFFFFFFFFFFFFFFFFFFFFFFFFFFFFFFFFFF AND DUP2 MSTORE PUSH1 0x20 ADD SWAP1 DUP2 MSTORE PUSH1 0x20 ADD PUSH1 0x0 KECCAK256 DUP10 PUSH1 0x40 MLOAD PUSH2 0xA0C SWAP2 SWAP1 PUSH2 0x116F JUMP JUMPDEST SWAP1 DUP2 MSTORE PUSH1 0x20 ADD PUSH1 0x40 MLOAD DUP1 SWAP2 SUB SWAP1 KECCAK256 PUSH1 0x0 DUP3 DUP3 SLOAD PUSH2 0xA29 SWAP2 SWAP1 PUSH2 0x11E4 JUMP JUMPDEST SWAP3 POP POP DUP2 SWAP1 SSTORE POP PUSH1 0x0 DUP3 PUSH1 0x2 ADD SLOAD SUB PUSH2 0xAB6 JUMPI PUSH2 0xA46 DUP6 DUP5 PUSH2 0xBB9 JUMP JUMPDEST DUP5 DUP1 SLOAD DUP1 PUSH2 0xA57 JUMPI PUSH2 0xA56 PUSH2 0x13A6 JUMP JUMPDEST JUMPDEST PUSH1 0x1 SWAP1 SUB DUP2 DUP2 SWAP1 PUSH1 0x0 MSTORE PUSH1 0x20 PUSH1 0x0 KECCAK256 SWAP1 PUSH1 0x3 MUL ADD PUSH1 0x0 DUP1 DUP3 ADD PUSH1 0x0 PUSH2 0x100 EXP DUP2 SLOAD SWAP1 PUSH20 0xFFFFFFFFFFFFFFFFFFFFFFFFFFFFFFFFFFFFFFFF MUL NOT AND SWAP1 SSTORE PUSH1 0x1 DUP3 ADD PUSH1 0x0 SWAP1 SSTORE PUSH1 0x2 DUP3 ADD PUSH1 0x0 SWAP1 SSTORE POP POP SWAP1 SSTORE DUP3 DUP1 PUSH2 0xAB2 SWAP1 PUSH2 0x1218 JUMP JUMPDEST SWAP4 POP POP JUMPDEST POP JUMPDEST POP DUP1 DUP1 PUSH2 0xAC4 SWAP1 PUSH2 0x1241 JUMP JUMPDEST SWAP2 POP POP PUSH2 0x89C JUMP JUMPDEST POP PUSH1 0x0 DUP2 GT ISZERO PUSH2 0xBB2 JUMPI PUSH1 0x0 PUSH1 0x40 MLOAD DUP1 PUSH1 0x60 ADD PUSH1 0x40 MSTORE DUP1 CALLER PUSH20 0xFFFFFFFFFFFFFFFFFFFFFFFFFFFFFFFFFFFFFFFF AND DUP2 MSTORE PUSH1 0x20 ADD DUP7 DUP2 MSTORE PUSH1 0x20 ADD DUP4 DUP2 MSTORE POP SWAP1 POP PUSH1 0x2 DUP7 PUSH1 0x40 MLOAD PUSH2 0xB1B SWAP2 SWAP1 PUSH2 0x116F JUMP JUMPDEST SWAP1 DUP2 MSTORE PUSH1 0x20 ADD PUSH1 0x40 MLOAD DUP1 SWAP2 SUB SWAP1 KECCAK256 DUP2 SWAP1 DUP1 PUSH1 0x1 DUP2 SLOAD ADD DUP1 DUP3 SSTORE DUP1 SWAP2 POP POP PUSH1 0x1 SWAP1 SUB SWAP1 PUSH1 0x0 MSTORE PUSH1 0x20 PUSH1 0x0 KECCAK256 SWAP1 PUSH1 0x3 MUL ADD PUSH1 0x0 SWAP1 SWAP2 SWAP1 SWAP2 SWAP1 SWAP2 POP PUSH1 0x0 DUP3 ADD MLOAD DUP2 PUSH1 0x0 ADD PUSH1 0x0 PUSH2 0x100 EXP DUP2 SLOAD DUP2 PUSH20 0xFFFFFFFFFFFFFFFFFFFFFFFFFFFFFFFFFFFFFFFF MUL NOT AND SWAP1 DUP4 PUSH20 0xFFFFFFFFFFFFFFFFFFFFFFFFFFFFFFFFFFFFFFFF AND MUL OR SWAP1 SSTORE POP PUSH1 0x20 DUP3 ADD MLOAD DUP2 PUSH1 0x1 ADD SSTORE PUSH1 0x40 DUP3 ADD MLOAD DUP2 PUSH1 0x2 ADD SSTORE POP POP POP JUMPDEST POP POP POP POP POP JUMP JUMPDEST PUSH1 0x1 DUP3 DUP1 SLOAD SWAP1 POP PUSH2 0xBCA SWAP2 SWAP1 PUSH2 0x11E4 JUMP JUMPDEST DUP2 LT ISZERO PUSH2 0xCA2 JUMPI DUP2 PUSH1 0x1 DUP4 DUP1 SLOAD SWAP1 POP PUSH2 0xBE3 SWAP2 SWAP1 PUSH2 0x11E4 JUMP JUMPDEST DUP2 SLOAD DUP2 LT PUSH2 0xBF4 JUMPI PUSH2 0xBF3 PUSH2 0x1186 JUMP JUMPDEST JUMPDEST SWAP1 PUSH1 0x0 MSTORE PUSH1 0x20 PUSH1 0x0 KECCAK256 SWAP1 PUSH1 0x3 MUL ADD DUP3 DUP3 DUP2 SLOAD DUP2 LT PUSH2 0xC15 JUMPI PUSH2 0xC14 PUSH2 0x1186 JUMP JUMPDEST JUMPDEST SWAP1 PUSH1 0x0 MSTORE PUSH1 0x20 PUSH1 0x0 KECCAK256 SWAP1 PUSH1 0x3 MUL ADD PUSH1 0x0 DUP3 ADD PUSH1 0x0 SWAP1 SLOAD SWAP1 PUSH2 0x100 EXP SWAP1 DIV PUSH20 0xFFFFFFFFFFFFFFFFFFFFFFFFFFFFFFFFFFFFFFFF AND DUP2 PUSH1 0x0 ADD PUSH1 0x0 PUSH2 0x100 EXP DUP2 SLOAD DUP2 PUSH20 0xFFFFFFFFFFFFFFFFFFFFFFFFFFFFFFFFFFFFFFFF MUL NOT AND SWAP1 DUP4 PUSH20 0xFFFFFFFFFFFFFFFFFFFFFFFFFFFFFFFFFFFFFFFF AND MUL OR SWAP1 SSTORE POP PUSH1 0x1 DUP3 ADD SLOAD DUP2 PUSH1 0x1 ADD SSTORE PUSH1 0x2 DUP3 ADD SLOAD DUP2 PUSH1 0x2 ADD SSTORE SWAP1 POP POP JUMPDEST DUP2 DUP1 SLOAD DUP1 PUSH2 0xCB3 JUMPI PUSH2 0xCB2 PUSH2 0x13A6 JUMP JUMPDEST JUMPDEST PUSH1 0x1 SWAP1 SUB DUP2 DUP2 SWAP1 PUSH1 0x0 MSTORE PUSH1 0x20 PUSH1 0x0 KECCAK256 SWAP1 PUSH1 0x3 MUL ADD PUSH1 0x0 DUP1 DUP3 ADD PUSH1 0x0 PUSH2 0x100 EXP DUP2 SLOAD SWAP1 PUSH20 0xFFFFFFFFFFFFFFFFFFFFFFFFFFFFFFFFFFFFFFFF MUL NOT AND SWAP1 SSTORE PUSH1 0x1 DUP3 ADD PUSH1 0x0 SWAP1 SSTORE PUSH1 0x2 DUP3 ADD PUSH1 0x0 SWAP1 SSTORE POP POP SWAP1 SSTORE POP POP JUMP JUMPDEST PUSH1 0x0 PUSH1 0x40 MLOAD SWAP1 POP SWAP1 JUMP JUMPDEST PUSH1 0x0 DUP1 REVERT JUMPDEST PUSH1 0x0 DUP1 REVERT JUMPDEST PUSH1 0x0 PUSH20 0xFFFFFFFFFFFFFFFFFFFFFFFFFFFFFFFFFFFFFFFF DUP3 AND SWAP1 POP SWAP2 SWAP1 POP JUMP JUMPDEST PUSH1 0x0 PUSH2 0xD46 DUP3 PUSH2 0xD1B JUMP JUMPDEST SWAP1 POP SWAP2 SWAP1 POP JUMP JUMPDEST PUSH2 0xD56 DUP2 PUSH2 0xD3B JUMP JUMPDEST DUP2 EQ PUSH2 0xD61 JUMPI PUSH1 0x0 DUP1 REVERT JUMPDEST POP JUMP JUMPDEST PUSH1 0x0 DUP2 CALLDATALOAD SWAP1 POP PUSH2 0xD73 DUP2 PUSH2 0xD4D JUMP JUMPDEST SWAP3 SWAP2 POP POP JUMP JUMPDEST PUSH1 0x0 DUP1 REVERT JUMPDEST PUSH1 0x0 DUP1 REVERT JUMPDEST PUSH1 0x0 PUSH1 0x1F NOT PUSH1 0x1F DUP4 ADD AND SWAP1 POP SWAP2 SWAP1 POP JUMP JUMPDEST PUSH32 0x4E487B7100000000000000000000000000000000000000000000000000000000 PUSH1 0x0 MSTORE PUSH1 0x41 PUSH1 0x4 MSTORE PUSH1 0x24 PUSH1 0x0 REVERT JUMPDEST PUSH2 0xDCC DUP3 PUSH2 0xD83 JUMP JUMPDEST DUP2 ADD DUP2 DUP2 LT PUSH8 0xFFFFFFFFFFFFFFFF DUP3 GT OR ISZERO PUSH2 0xDEB JUMPI PUSH2 0xDEA PUSH2 0xD94 JUMP JUMPDEST JUMPDEST DUP1 PUSH1 0x40 MSTORE POP POP POP JUMP JUMPDEST PUSH1 0x0 PUSH2 0xDFE PUSH2 0xD07 JUMP JUMPDEST SWAP1 POP PUSH2 0xE0A DUP3 DUP3 PUSH2 0xDC3 JUMP JUMPDEST SWAP2 SWAP1 POP JUMP JUMPDEST PUSH1 0x0 PUSH8 0xFFFFFFFFFFFFFFFF DUP3 GT ISZERO PUSH2 0xE2A JUMPI PUSH2 0xE29 PUSH2 0xD94 JUMP JUMPDEST JUMPDEST PUSH2 0xE33 DUP3 PUSH2 0xD83 JUMP JUMPDEST SWAP1 POP PUSH1 0x20 DUP2 ADD SWAP1 POP SWAP2 SWAP1 POP JUMP JUMPDEST DUP3 DUP2 DUP4 CALLDATACOPY PUSH1 0x0 DUP4 DUP4 ADD MSTORE POP POP POP JUMP JUMPDEST PUSH1 0x0 PUSH2 0xE62 PUSH2 0xE5D DUP5 PUSH2 0xE0F JUMP JUMPDEST PUSH2 0xDF4 JUMP JUMPDEST SWAP1 POP DUP3 DUP2 MSTORE PUSH1 0x20 DUP2 ADD DUP5 DUP5 DUP5 ADD GT ISZERO PUSH2 0xE7E JUMPI PUSH2 0xE7D PUSH2 0xD7E JUMP JUMPDEST JUMPDEST PUSH2 0xE89 DUP5 DUP3 DUP6 PUSH2 0xE40 JUMP JUMPDEST POP SWAP4 SWAP3 POP POP POP JUMP JUMPDEST PUSH1 0x0 DUP3 PUSH1 0x1F DUP4 ADD SLT PUSH2 0xEA6 JUMPI PUSH2 0xEA5 PUSH2 0xD79 JUMP JUMPDEST JUMPDEST DUP2 CALLDATALOAD PUSH2 0xEB6 DUP5 DUP3 PUSH1 0x20 DUP7 ADD PUSH2 0xE4F JUMP JUMPDEST SWAP2 POP POP SWAP3 SWAP2 POP POP JUMP JUMPDEST PUSH1 0x0 DUP1 PUSH1 0x40 DUP4 DUP6 SUB SLT ISZERO PUSH2 0xED6 JUMPI PUSH2 0xED5 PUSH2 0xD11 JUMP JUMPDEST JUMPDEST PUSH1 0x0 PUSH2 0xEE4 DUP6 DUP3 DUP7 ADD PUSH2 0xD64 JUMP JUMPDEST SWAP3 POP POP PUSH1 0x20 DUP4 ADD CALLDATALOAD PUSH8 0xFFFFFFFFFFFFFFFF DUP2 GT ISZERO PUSH2 0xF05 JUMPI PUSH2 0xF04 PUSH2 0xD16 JUMP JUMPDEST JUMPDEST PUSH2 0xF11 DUP6 DUP3 DUP7 ADD PUSH2 0xE91 JUMP JUMPDEST SWAP2 POP POP SWAP3 POP SWAP3 SWAP1 POP JUMP JUMPDEST PUSH1 0x0 DUP2 SWAP1 POP SWAP2 SWAP1 POP JUMP JUMPDEST PUSH2 0xF2E DUP2 PUSH2 0xF1B JUMP JUMPDEST DUP3 MSTORE POP POP JUMP JUMPDEST PUSH1 0x0 PUSH1 0x20 DUP3 ADD SWAP1 POP PUSH2 0xF49 PUSH1 0x0 DUP4 ADD DUP5 PUSH2 0xF25 JUMP JUMPDEST SWAP3 SWAP2 POP POP JUMP JUMPDEST PUSH2 0xF58 DUP2 PUSH2 0xF1B JUMP JUMPDEST DUP2 EQ PUSH2 0xF63 JUMPI PUSH1 0x0 DUP1 REVERT JUMPDEST POP JUMP JUMPDEST PUSH1 0x0 DUP2 CALLDATALOAD SWAP1 POP PUSH2 0xF75 DUP2 PUSH2 0xF4F JUMP JUMPDEST SWAP3 SWAP2 POP POP JUMP JUMPDEST PUSH1 0x0 DUP1 PUSH1 0x0 PUSH1 0x60 DUP5 DUP7 SUB SLT ISZERO PUSH2 0xF94 JUMPI PUSH2 0xF93 PUSH2 0xD11 JUMP JUMPDEST JUMPDEST PUSH1 0x0 DUP5 ADD CALLDATALOAD PUSH8 0xFFFFFFFFFFFFFFFF DUP2 GT ISZERO PUSH2 0xFB2 JUMPI PUSH2 0xFB1 PUSH2 0xD16 JUMP JUMPDEST JUMPDEST PUSH2 0xFBE DUP7 DUP3 DUP8 ADD PUSH2 0xE91 JUMP JUMPDEST SWAP4 POP POP PUSH1 0x20 PUSH2 0xFCF DUP7 DUP3 DUP8 ADD PUSH2 0xF66 JUMP JUMPDEST SWAP3 POP POP PUSH1 0x40 PUSH2 0xFE0 DUP7 DUP3 DUP8 ADD PUSH2 0xF66 JUMP JUMPDEST SWAP2 POP POP SWAP3 POP SWAP3 POP SWAP3 JUMP JUMPDEST PUSH1 0x0 PUSH1 0x20 DUP3 DUP5 SUB SLT ISZERO PUSH2 0x1000 JUMPI PUSH2 0xFFF PUSH2 0xD11 JUMP JUMPDEST JUMPDEST PUSH1 0x0 DUP3 ADD CALLDATALOAD PUSH8 0xFFFFFFFFFFFFFFFF DUP2 GT ISZERO PUSH2 0x101E JUMPI PUSH2 0x101D PUSH2 0xD16 JUMP JUMPDEST JUMPDEST PUSH2 0x102A DUP5 DUP3 DUP6 ADD PUSH2 0xE91 JUMP JUMPDEST SWAP2 POP POP SWAP3 SWAP2 POP POP JUMP JUMPDEST PUSH1 0x0 PUSH1 0x40 DUP3 ADD SWAP1 POP PUSH2 0x1048 PUSH1 0x0 DUP4 ADD DUP6 PUSH2 0xF25 JUMP JUMPDEST PUSH2 0x1055 PUSH1 0x20 DUP4 ADD DUP5 PUSH2 0xF25 JUMP JUMPDEST SWAP4 SWAP3 POP POP POP JUMP JUMPDEST PUSH1 0x0 DUP1 PUSH1 0x40 DUP4 DUP6 SUB SLT ISZERO PUSH2 0x1073 JUMPI PUSH2 0x1072 PUSH2 0xD11 JUMP JUMPDEST JUMPDEST PUSH1 0x0 DUP4 ADD CALLDATALOAD PUSH8 0xFFFFFFFFFFFFFFFF DUP2 GT ISZERO PUSH2 0x1091 JUMPI PUSH2 0x1090 PUSH2 0xD16 JUMP JUMPDEST JUMPDEST PUSH2 0x109D DUP6 DUP3 DUP7 ADD PUSH2 0xE91 JUMP JUMPDEST SWAP3 POP POP PUSH1 0x20 PUSH2 0x10AE DUP6 DUP3 DUP7 ADD PUSH2 0xF66 JUMP JUMPDEST SWAP2 POP POP SWAP3 POP SWAP3 SWAP1 POP JUMP JUMPDEST PUSH2 0x10C1 DUP2 PUSH2 0xD3B JUMP JUMPDEST DUP3 MSTORE POP POP JUMP JUMPDEST PUSH1 0x0 PUSH1 0x60 DUP3 ADD SWAP1 POP PUSH2 0x10DC PUSH1 0x0 DUP4 ADD DUP7 PUSH2 0x10B8 JUMP JUMPDEST PUSH2 0x10E9 PUSH1 0x20 DUP4 ADD DUP6 PUSH2 0xF25 JUMP JUMPDEST PUSH2 0x10F6 PUSH1 0x40 DUP4 ADD DUP5 PUSH2 0xF25 JUMP JUMPDEST SWAP5 SWAP4 POP POP POP POP JUMP JUMPDEST PUSH1 0x0 DUP2 MLOAD SWAP1 POP SWAP2 SWAP1 POP JUMP JUMPDEST PUSH1 0x0 DUP2 SWAP1 POP SWAP3 SWAP2 POP POP JUMP JUMPDEST PUSH1 0x0 JUMPDEST DUP4 DUP2 LT ISZERO PUSH2 0x1132 JUMPI DUP1 DUP3 ADD MLOAD DUP2 DUP5 ADD MSTORE PUSH1 0x20 DUP2 ADD SWAP1 POP PUSH2 0x1117 JUMP JUMPDEST PUSH1 0x0 DUP5 DUP5 ADD MSTORE POP POP POP POP JUMP JUMPDEST PUSH1 0x0 PUSH2 0x1149 DUP3 PUSH2 0x10FE JUMP JUMPDEST PUSH2 0x1153 DUP2 DUP6 PUSH2 0x1109 JUMP JUMPDEST SWAP4 POP PUSH2 0x1163 DUP2 DUP6 PUSH1 0x20 DUP7 ADD PUSH2 0x1114 JUMP JUMPDEST DUP1 DUP5 ADD SWAP2 POP POP SWAP3 SWAP2 POP POP JUMP JUMPDEST PUSH1 0x0 PUSH2 0x117B DUP3 DUP5 PUSH2 0x113E JUMP JUMPDEST SWAP2 POP DUP2 SWAP1 POP SWAP3 SWAP2 POP POP JUMP JUMPDEST PUSH32 0x4E487B7100000000000000000000000000000000000000000000000000000000 PUSH1 0x0 MSTORE PUSH1 0x32 PUSH1 0x4 MSTORE PUSH1 0x24 PUSH1 0x0 REVERT JUMPDEST PUSH32 0x4E487B7100000000000000000000000000000000000000000000000000000000 PUSH1 0x0 MSTORE PUSH1 0x11 PUSH1 0x4 MSTORE PUSH1 0x24 PUSH1 0x0 REVERT JUMPDEST PUSH1 0x0 PUSH2 0x11EF DUP3 PUSH2 0xF1B JUMP JUMPDEST SWAP2 POP PUSH2 0x11FA DUP4 PUSH2 0xF1B JUMP JUMPDEST SWAP3 POP DUP3 DUP3 SUB SWAP1 POP DUP2 DUP2 GT ISZERO PUSH2 0x1212 JUMPI PUSH2 0x1211 PUSH2 0x11B5 JUMP JUMPDEST JUMPDEST SWAP3 SWAP2 POP POP JUMP JUMPDEST PUSH1 0x0 PUSH2 0x1223 DUP3 PUSH2 0xF1B JUMP JUMPDEST SWAP2 POP PUSH1 0x0 DUP3 SUB PUSH2 0x1236 JUMPI PUSH2 0x1235 PUSH2 0x11B5 JUMP JUMPDEST JUMPDEST PUSH1 0x1 DUP3 SUB SWAP1 POP SWAP2 SWAP1 POP JUMP JUMPDEST PUSH1 0x0 PUSH2 0x124C DUP3 PUSH2 0xF1B JUMP JUMPDEST SWAP2 POP PUSH32 0xFFFFFFFFFFFFFFFFFFFFFFFFFFFFFFFFFFFFFFFFFFFFFFFFFFFFFFFFFFFFFFFF DUP3 SUB PUSH2 0x127E JUMPI PUSH2 0x127D PUSH2 0x11B5 JUMP JUMPDEST JUMPDEST PUSH1 0x1 DUP3 ADD SWAP1 POP SWAP2 SWAP1 POP JUMP JUMPDEST PUSH1 0x0 DUP3 DUP3 MSTORE PUSH1 0x20 DUP3 ADD SWAP1 POP SWAP3 SWAP2 POP POP JUMP JUMPDEST PUSH32 0x53746F636B206E6F7420646F756E640000000000000000000000000000000000 PUSH1 0x0 DUP3 ADD MSTORE POP JUMP JUMPDEST PUSH1 0x0 PUSH2 0x12D0 PUSH1 0xF DUP4 PUSH2 0x1289 JUMP JUMPDEST SWAP2 POP PUSH2 0x12DB DUP3 PUSH2 0x129A JUMP JUMPDEST PUSH1 0x20 DUP3 ADD SWAP1 POP SWAP2 SWAP1 POP JUMP JUMPDEST PUSH1 0x0 PUSH1 0x20 DUP3 ADD SWAP1 POP DUP2 DUP2 SUB PUSH1 0x0 DUP4 ADD MSTORE PUSH2 0x12FF DUP2 PUSH2 0x12C3 JUMP JUMPDEST SWAP1 POP SWAP2 SWAP1 POP JUMP JUMPDEST PUSH32 0x53746F636B20616C726561647920657869737473000000000000000000000000 PUSH1 0x0 DUP3 ADD MSTORE POP JUMP JUMPDEST PUSH1 0x0 PUSH2 0x133C PUSH1 0x14 DUP4 PUSH2 0x1289 JUMP JUMPDEST SWAP2 POP PUSH2 0x1347 DUP3 PUSH2 0x1306 JUMP JUMPDEST PUSH1 0x20 DUP3 ADD SWAP1 POP SWAP2 SWAP1 POP JUMP JUMPDEST PUSH1 0x0 PUSH1 0x20 DUP3 ADD SWAP1 POP DUP2 DUP2 SUB PUSH1 0x0 DUP4 ADD MSTORE PUSH2 0x136B DUP2 PUSH2 0x132F JUMP JUMPDEST SWAP1 POP SWAP2 SWAP1 POP JUMP JUMPDEST PUSH1 0x0 PUSH2 0x137D DUP3 PUSH2 0xF1B JUMP JUMPDEST SWAP2 POP PUSH2 0x1388 DUP4 PUSH2 0xF1B JUMP JUMPDEST SWAP3 POP DUP3 DUP3 ADD SWAP1 POP DUP1 DUP3 GT ISZERO PUSH2 0x13A0 JUMPI PUSH2 0x139F PUSH2 0x11B5 JUMP JUMPDEST JUMPDEST SWAP3 SWAP2 POP POP JUMP JUMPDEST PUSH32 0x4E487B7100000000000000000000000000000000000000000000000000000000 PUSH1 0x0 MSTORE PUSH1 0x31 PUSH1 0x4 MSTORE PUSH1 0x24 PUSH1 0x0 REVERT INVALID LOG2 PUSH5 0x6970667358 0x22 SLT KECCAK256 JUMPI 0x2C PUSH21 0x8E6297212A6A178BF25FD74EEFA848C9B0306DBE73 0xAD 0xCC 0xAB NOT 0xD3 CALLCODE 0xE4 BALANCE PUSH5 0x736F6C6343 STOP ADDMOD SLT STOP CALLER "
				},
				"gasEstimates": {
					"creation": {
						"codeDepositCost": "1026200",
						"executionCost": "1067",
						"totalCost": "1027267"
					},
					"external": {
						"addStock(string,uint256,uint256)": "infinite",
						"balances(address,string)": "infinite",
						"buyOrderBook(string,uint256)": "infinite",
						"placeBuyOrder(string,uint256,uint256)": "infinite",
						"placeSellOrder(string,uint256,uint256)": "infinite",
						"sellOrderBook(string,uint256)": "infinite",
						"stocks(string)": "infinite",
						"updateStockPrice(string,uint256)": "infinite"
					},
					"internal": {
						"removeOrder(struct StockTrading.Order storage ref[] storage pointer,uint256)": "infinite"
					}
				},
				"methodIdentifiers": {
					"addStock(string,uint256,uint256)": "da52c6ff",
					"balances(address,string)": "05d01f50",
					"buyOrderBook(string,uint256)": "cf1f9be4",
					"placeBuyOrder(string,uint256,uint256)": "f7c03b80",
					"placeSellOrder(string,uint256,uint256)": "225c3957",
					"sellOrderBook(string,uint256)": "a96620e1",
					"stocks(string)": "2efae33e",
					"updateStockPrice(string,uint256)": "47f32e5d"
				}
			},
			"storageLayout": {
				"storage": [
					{
						"astId": 18,
						"contract": "StockTrading.sol:StockTrading",
						"label": "stocks",
						"offset": 0,
						"slot": "0",
						"type": "t_mapping(t_string_memory_ptr,t_struct(Stock)6_storage)"
					},
					{
						"astId": 24,
						"contract": "StockTrading.sol:StockTrading",
						"label": "balances",
						"offset": 0,
						"slot": "1",
						"type": "t_mapping(t_address,t_mapping(t_string_memory_ptr,t_uint256))"
					},
					{
						"astId": 30,
						"contract": "StockTrading.sol:StockTrading",
						"label": "buyOrderBook",
						"offset": 0,
						"slot": "2",
						"type": "t_mapping(t_string_memory_ptr,t_array(t_struct(Order)13_storage)dyn_storage)"
					},
					{
						"astId": 36,
						"contract": "StockTrading.sol:StockTrading",
						"label": "sellOrderBook",
						"offset": 0,
						"slot": "3",
						"type": "t_mapping(t_string_memory_ptr,t_array(t_struct(Order)13_storage)dyn_storage)"
					}
				],
				"types": {
					"t_address": {
						"encoding": "inplace",
						"label": "address",
						"numberOfBytes": "20"
					},
					"t_array(t_struct(Order)13_storage)dyn_storage": {
						"base": "t_struct(Order)13_storage",
						"encoding": "dynamic_array",
						"label": "struct StockTrading.Order[]",
						"numberOfBytes": "32"
					},
					"t_mapping(t_address,t_mapping(t_string_memory_ptr,t_uint256))": {
						"encoding": "mapping",
						"key": "t_address",
						"label": "mapping(address => mapping(string => uint256))",
						"numberOfBytes": "32",
						"value": "t_mapping(t_string_memory_ptr,t_uint256)"
					},
					"t_mapping(t_string_memory_ptr,t_array(t_struct(Order)13_storage)dyn_storage)": {
						"encoding": "mapping",
						"key": "t_string_memory_ptr",
						"label": "mapping(string => struct StockTrading.Order[])",
						"numberOfBytes": "32",
						"value": "t_array(t_struct(Order)13_storage)dyn_storage"
					},
					"t_mapping(t_string_memory_ptr,t_struct(Stock)6_storage)": {
						"encoding": "mapping",
						"key": "t_string_memory_ptr",
						"label": "mapping(string => struct StockTrading.Stock)",
						"numberOfBytes": "32",
						"value": "t_struct(Stock)6_storage"
					},
					"t_mapping(t_string_memory_ptr,t_uint256)": {
						"encoding": "mapping",
						"key": "t_string_memory_ptr",
						"label": "mapping(string => uint256)",
						"numberOfBytes": "32",
						"value": "t_uint256"
					},
					"t_string_memory_ptr": {
						"encoding": "bytes",
						"label": "string",
						"numberOfBytes": "32"
					},
					"t_struct(Order)13_storage": {
						"encoding": "inplace",
						"label": "struct StockTrading.Order",
						"members": [
							{
								"astId": 8,
								"contract": "StockTrading.sol:StockTrading",
								"label": "trader",
								"offset": 0,
								"slot": "0",
								"type": "t_address"
							},
							{
								"astId": 10,
								"contract": "StockTrading.sol:StockTrading",
								"label": "price",
								"offset": 0,
								"slot": "1",
								"type": "t_uint256"
							},
							{
								"astId": 12,
								"contract": "StockTrading.sol:StockTrading",
								"label": "quantity",
								"offset": 0,
								"slot": "2",
								"type": "t_uint256"
							}
						],
						"numberOfBytes": "96"
					},
					"t_struct(Stock)6_storage": {
						"encoding": "inplace",
						"label": "struct StockTrading.Stock",
						"members": [
							{
								"astId": 3,
								"contract": "StockTrading.sol:StockTrading",
								"label": "price",
								"offset": 0,
								"slot": "0",
								"type": "t_uint256"
							},
							{
								"astId": 5,
								"contract": "StockTrading.sol:StockTrading",
								"label": "quantity",
								"offset": 0,
								"slot": "1",
								"type": "t_uint256"
							}
						],
						"numberOfBytes": "64"
					},
					"t_uint256": {
						"encoding": "inplace",
						"label": "uint256",
						"numberOfBytes": "32"
					}
				}
			},
			"userdoc": {
				"kind": "user",
				"methods": {},
				"version": 1
			}
		}
	}
}